{
  "transactions": [
    {
      "hash": "0xad830062298b68fe59871288a986ab7673caf13701d16e284dd86aa064ffc77f",
      "transactionType": "CALL",
      "contractName": null,
      "contractAddress": "0xda282e89244424e297ce8e78089b54d043fb28b6",
      "function": "register(bytes32,address)",
      "arguments": [
        "0xaa92f8c143657dde575de430aecaea6ca91f2e6072339b16932d426895d8d678",
        "0x5bf3912399F0f3f9D336Af362b9d35bffBBde318"
      ],
      "transaction": {
        "from": "0xe3fd5228ac2d2c15856959f9e27a4671c5d45958",
        "to": "0xda282e89244424e297ce8e78089b54d043fb28b6",
        "gas": "0x11ec3",
        "value": "0x0",
        "input": "0xd22057a9aa92f8c143657dde575de430aecaea6ca91f2e6072339b16932d426895d8d6780000000000000000000000005bf3912399f0f3f9d336af362b9d35bffbbde318",
        "nonce": "0x15",
        "chainId": "0x164ce"
      },
      "additionalContracts": [],
      "isFixedGasLimit": false
    },
    {
      "hash": "0x11c945fa19a0a24c129a41c0b6f35ccde6c654865d778227ca501482f5a8500c",
      "transactionType": "CALL",
      "contractName": null,
      "contractAddress": "0x692009fe206c3f897867f6bf7b5b45506b747f9e",
      "function": "allowAttester(address)",
      "arguments": [
        "0x5bf3912399F0f3f9D336Af362b9d35bffBBde318"
      ],
      "transaction": {
        "from": "0xe3fd5228ac2d2c15856959f9e27a4671c5d45958",
        "to": "0x692009fe206c3f897867f6bf7b5b45506b747f9e",
        "gas": "0x12acf",
        "value": "0x0",
        "input": "0x723275530000000000000000000000005bf3912399f0f3f9d336af362b9d35bffbbde318",
        "nonce": "0x16",
        "chainId": "0x164ce"
      },
      "additionalContracts": [],
      "isFixedGasLimit": false
    }
  ],
  "receipts": [
    {
      "status": "0x1",
      "cumulativeGasUsed": "0x48511",
      "logs": [
        {
          "address": "0xda282e89244424e297ce8e78089b54d043fb28b6",
          "topics": [
            "0x1f7edeefba33ab6ff8898c9a6036a28c6b19d2865e8738039e3e2a2e5410dc1c",
            "0xaa92f8c143657dde575de430aecaea6ca91f2e6072339b16932d426895d8d678",
            "0x0000000000000000000000005bf3912399f0f3f9d336af362b9d35bffbbde318"
          ],
          "data": "0x",
          "blockHash": "0xa15958f28d12b7dc4deb56a7c245ee57bc69b4fd22bbf0cc0b3108abe451ae5d",
          "blockNumber": "0x9bcff8",
          "blockTimestamp": "0x691dbc54",
          "transactionHash": "0xad830062298b68fe59871288a986ab7673caf13701d16e284dd86aa064ffc77f",
          "transactionIndex": "0x3",
          "logIndex": "0x6",
          "removed": false
        }
      ],
      "logsBloom": "0x80000000000000000000000000000800000000000000000000000000000000000000000000000000000000100000000000000000000000000000000000000000000000010008000000000000000000000000000400000000000000000000000000004000000000000000000000000000000000000000000000000000000000200000000200000000000000000000000000000000000000000000000000000000000000000000000000000000000000000000000000000000000000000000000000000000000000000000000000000000000000000000000200000000000000000000400000000000000000000000000000000004000000000000000000000000",
      "type": "0x2",
      "transactionHash": "0xad830062298b68fe59871288a986ab7673caf13701d16e284dd86aa064ffc77f",
      "transactionIndex": "0x3",
      "blockHash": "0xa15958f28d12b7dc4deb56a7c245ee57bc69b4fd22bbf0cc0b3108abe451ae5d",
      "blockNumber": "0x9bcff8",
      "gasUsed": "0xcf9d",
      "effectiveGasPrice": "0xf4240",
      "from": "0xe3fd5228ac2d2c15856959f9e27a4671c5d45958",
      "to": "0xda282e89244424e297ce8e78089b54d043fb28b6",
      "contractAddress": null,
      "l1BaseFeeScalar": "0x558",
      "l1BlobBaseFee": "0xb",
      "l1BlobBaseFeeScalar": "0xc5fc5",
      "l1Fee": "0x5a8",
      "l1GasPrice": "0xd7",
      "l1GasUsed": "0x6a4"
    },
    {
      "status": "0x1",
      "cumulativeGasUsed": "0x55162",
      "logs": [
        {
          "address": "0x692009fe206c3f897867f6bf7b5b45506b747f9e",
          "topics": [
            "0x84c8e535ea2c772fdcaab7fd1c78efb11d06931c5d61fd4b75fbff891da9cc00",
            "0x0000000000000000000000005bf3912399f0f3f9d336af362b9d35bffbbde318"
          ],
          "data": "0x",
          "blockHash": "0xa15958f28d12b7dc4deb56a7c245ee57bc69b4fd22bbf0cc0b3108abe451ae5d",
          "blockNumber": "0x9bcff8",
          "blockTimestamp": "0x691dbc54",
          "transactionHash": "0x11c945fa19a0a24c129a41c0b6f35ccde6c654865d778227ca501482f5a8500c",
          "transactionIndex": "0x4",
          "logIndex": "0x7",
          "removed": false
        }
      ],
      "logsBloom": "0x00000000000000000000000000000800000000000000000000000000040000000000000000000000000000000000000000000000000000000000000000000000000000000000000000000000000000000000000400000000000000000000000000000000000000000000000000000002000000000000000000000000000000000000000200000000000000000000000000000000000000000000000000000000000000000000000000000000000000000000000000000000000000000000010000000000000000000000000000000000000000000000000100400000000000000000000000040000000000000000000000000000000000000000000000000000",
      "type": "0x2",
      "transactionHash": "0x11c945fa19a0a24c129a41c0b6f35ccde6c654865d778227ca501482f5a8500c",
      "transactionIndex": "0x4",
      "blockHash": "0xa15958f28d12b7dc4deb56a7c245ee57bc69b4fd22bbf0cc0b3108abe451ae5d",
      "blockNumber": "0x9bcff8",
      "gasUsed": "0xcc51",
      "effectiveGasPrice": "0xf4240",
      "from": "0xe3fd5228ac2d2c15856959f9e27a4671c5d45958",
      "to": "0x692009fe206c3f897867f6bf7b5b45506b747f9e",
      "contractAddress": null,
      "l1BaseFeeScalar": "0x558",
      "l1BlobBaseFee": "0xb",
      "l1BlobBaseFeeScalar": "0xc5fc5",
      "l1Fee": "0x552",
      "l1GasPrice": "0xd7",
      "l1GasUsed": "0x640"
    }
  ],
  "libraries": [],
  "pending": [],
  "returns": {},
  "timestamp": 1763556436130,
  "chain": 91342,
  "commit": "39e7fff"
}