{
  "transactions": [
    {
      "hash": "0xc31ec23fcb75604cc5df9b4c74e10f259c669232d4731907c29c04847acc619c",
      "transactionType": "CALL",
      "contractName": null,
      "contractAddress": "0xda282e89244424e297ce8e78089b54d043fb28b6",
      "function": "register(bytes32,address)",
      "arguments": [
        "0xaa92f8c143657dde575de430aecaea6ca91f2e6072339b16932d426895d8d678",
        "0x63CCe2b569A7bC35895ee24306c1512fefc06121"
      ],
      "transaction": {
        "from": "0xe3fd5228ac2d2c15856959f9e27a4671c5d45958",
        "to": "0xda282e89244424e297ce8e78089b54d043fb28b6",
        "gas": "0xcdf1",
        "value": "0x0",
        "input": "0xd22057a9aa92f8c143657dde575de430aecaea6ca91f2e6072339b16932d426895d8d67800000000000000000000000063cce2b569a7bc35895ee24306c1512fefc06121",
        "nonce": "0x23",
        "chainId": "0x164ce"
      },
      "additionalContracts": [],
      "isFixedGasLimit": false
    },
    {
      "hash": "0xeb13c94993c63c01025c1984518f70a7470f92c576d9b359a5f1cbc233e6845b",
      "transactionType": "CALL",
      "contractName": null,
      "contractAddress": "0x692009fe206c3f897867f6bf7b5b45506b747f9e",
      "function": "allowAttester(address)",
      "arguments": [
        "0x63CCe2b569A7bC35895ee24306c1512fefc06121"
      ],
      "transaction": {
        "from": "0xe3fd5228ac2d2c15856959f9e27a4671c5d45958",
        "to": "0x692009fe206c3f897867f6bf7b5b45506b747f9e",
        "gas": "0x12acf",
        "value": "0x0",
        "input": "0x7232755300000000000000000000000063cce2b569a7bc35895ee24306c1512fefc06121",
        "nonce": "0x24",
        "chainId": "0x164ce"
      },
      "additionalContracts": [],
      "isFixedGasLimit": false
    }
  ],
  "receipts": [
    {
      "status": "0x1",
      "cumulativeGasUsed": "0x75dc5",
      "logs": [
        {
          "address": "0xda282e89244424e297ce8e78089b54d043fb28b6",
          "topics": [
            "0x1f7edeefba33ab6ff8898c9a6036a28c6b19d2865e8738039e3e2a2e5410dc1c",
            "0xaa92f8c143657dde575de430aecaea6ca91f2e6072339b16932d426895d8d678",
            "0x00000000000000000000000063cce2b569a7bc35895ee24306c1512fefc06121"
          ],
          "data": "0x",
          "blockHash": "0x7a0bd04bff8d29cdd527b8b654052fac8401fbc63bf9dfe817b7b9046e35dc33",
          "blockNumber": "0xbde38b",
          "blockTimestamp": "0x693fcfe7",
          "transactionHash": "0xc31ec23fcb75604cc5df9b4c74e10f259c669232d4731907c29c04847acc619c",
          "transactionIndex": "0x7",
          "logIndex": "0x4",
          "removed": false
        }
      ],
      "logsBloom": "0x80000000000000000000000000000000000000000000000000000000000000000000000000000000000010100000000000000000000000000000000000000000000000010008000000000000000000000000000000000000000000000000000000004000000000400000000000000000000000000000000000000000000000200000000000000000000000000000000000000000000000000000000000000000000000000000000000000000000000000000000000000000000000000000000000000000000000000000000000000000000000000000000200000000000100000000400000000000000000000000000000000004000000000000000000000000",
      "type": "0x2",
      "transactionHash": "0xc31ec23fcb75604cc5df9b4c74e10f259c669232d4731907c29c04847acc619c",
      "transactionIndex": "0x7",
      "blockHash": "0x7a0bd04bff8d29cdd527b8b654052fac8401fbc63bf9dfe817b7b9046e35dc33",
      "blockNumber": "0xbde38b",
      "gasUsed": "0x8cd1",
      "effectiveGasPrice": "0xf42bd",
      "from": "0xe3fd5228ac2d2c15856959f9e27a4671c5d45958",
      "to": "0xda282e89244424e297ce8e78089b54d043fb28b6",
      "contractAddress": null,
      "l1BaseFeeScalar": "0x558",
      "l1BlobBaseFee": "0x3",
      "l1BlobBaseFeeScalar": "0xc5fc5",
      "l1Fee": "0x168",
      "l1GasPrice": "0x2d",
      "l1GasUsed": "0x697"
    },
    {
      "status": "0x1",
      "cumulativeGasUsed": "0x82a16",
      "logs": [
        {
          "address": "0x692009fe206c3f897867f6bf7b5b45506b747f9e",
          "topics": [
            "0x84c8e535ea2c772fdcaab7fd1c78efb11d06931c5d61fd4b75fbff891da9cc00",
            "0x00000000000000000000000063cce2b569a7bc35895ee24306c1512fefc06121"
          ],
          "data": "0x",
          "blockHash": "0x7a0bd04bff8d29cdd527b8b654052fac8401fbc63bf9dfe817b7b9046e35dc33",
          "blockNumber": "0xbde38b",
          "blockTimestamp": "0x693fcfe7",
          "transactionHash": "0xeb13c94993c63c01025c1984518f70a7470f92c576d9b359a5f1cbc233e6845b",
          "transactionIndex": "0x8",
          "logIndex": "0x5",
          "removed": false
        }
      ],
      "logsBloom": "0x00000000000000000000000000000000000000000000000000000000040000000000000000000000000010000000000000000000000000000000000000000000000000000000000000000000000000000000000000000000000000000000000000000000000000400000000000000002000000000000000000000000000000000000000000000000000000000000000000000000000000000000000000000000000000000000000000000000000000000000000000000000000000000000010000000000000000000000000000000000000000000000000100400000000100000000000000040000000000000000000000000000000000000000000000000000",
      "type": "0x2",
      "transactionHash": "0xeb13c94993c63c01025c1984518f70a7470f92c576d9b359a5f1cbc233e6845b",
      "transactionIndex": "0x8",
      "blockHash": "0x7a0bd04bff8d29cdd527b8b654052fac8401fbc63bf9dfe817b7b9046e35dc33",
      "blockNumber": "0xbde38b",
      "gasUsed": "0xcc51",
      "effectiveGasPrice": "0xf42bd",
      "from": "0xe3fd5228ac2d2c15856959f9e27a4671c5d45958",
      "to": "0x692009fe206c3f897867f6bf7b5b45506b747f9e",
      "contractAddress": null,
      "l1BaseFeeScalar": "0x558",
      "l1BlobBaseFee": "0x3",
      "l1BlobBaseFeeScalar": "0xc5fc5",
      "l1Fee": "0x155",
      "l1GasPrice": "0x2d",
      "l1GasUsed": "0x640"
    }
  ],
  "libraries": [],
  "pending": [],
  "returns": {},
  "timestamp": 1765789672478,
  "chain": 91342,
  "commit": "d9595eb"
}