{
  "transactions": [
    {
      "hash": "0xf6c34111b28b726b5118f4e70d0207f005f4576357d4e619cb7253f49fcc2fdb",
      "transactionType": "CALL",
      "contractName": null,
      "contractAddress": "0xda282e89244424e297ce8e78089b54d043fb28b6",
      "function": "register(bytes32,address)",
      "arguments": [
        "0xa883d8535e78ce885ac4f5618c9a0f97733e5a36ea399265266c860bd63aa0c0",
        "0x56DD660EaCdAA5187ae4Aa1652891465cc85F4a1"
      ],
      "transaction": {
        "from": "0xe3fd5228ac2d2c15856959f9e27a4671c5d45958",
        "to": "0xda282e89244424e297ce8e78089b54d043fb28b6",
        "gas": "0x11ec3",
        "value": "0x0",
        "input": "0xd22057a9a883d8535e78ce885ac4f5618c9a0f97733e5a36ea399265266c860bd63aa0c000000000000000000000000056dd660eacdaa5187ae4aa1652891465cc85f4a1",
        "nonce": "0x2b",
        "chainId": "0x164ce"
      },
      "additionalContracts": [],
      "isFixedGasLimit": false
    },
    {
      "hash": "0xc35f3b61171102bf77587192a6f3eac45d2cd91ea40e74e4d3e37956fa7713dd",
      "transactionType": "CALL",
      "contractName": null,
      "contractAddress": "0x843ff433f7657901118ff3e2eca915abb9bc12df",
      "function": "allowAttester(address)",
      "arguments": [
        "0x56DD660EaCdAA5187ae4Aa1652891465cc85F4a1"
      ],
      "transaction": {
        "from": "0xe3fd5228ac2d2c15856959f9e27a4671c5d45958",
        "to": "0x843ff433f7657901118ff3e2eca915abb9bc12df",
        "gas": "0x12acf",
        "value": "0x0",
        "input": "0x7232755300000000000000000000000056dd660eacdaa5187ae4aa1652891465cc85f4a1",
        "nonce": "0x2c",
        "chainId": "0x164ce"
      },
      "additionalContracts": [],
      "isFixedGasLimit": false
    }
  ],
  "receipts": [
    {
      "status": "0x1",
      "cumulativeGasUsed": "0x18427",
      "logs": [
        {
          "address": "0xda282e89244424e297ce8e78089b54d043fb28b6",
          "topics": [
            "0x1f7edeefba33ab6ff8898c9a6036a28c6b19d2865e8738039e3e2a2e5410dc1c",
            "0xa883d8535e78ce885ac4f5618c9a0f97733e5a36ea399265266c860bd63aa0c0",
            "0x00000000000000000000000056dd660eacdaa5187ae4aa1652891465cc85f4a1"
          ],
          "data": "0x",
          "blockHash": "0xbea3fb99c401a3f1d753c0262c147e7c2c90f5eae61f372406d62cd1fbec5ad0",
          "blockNumber": "0xed195a",
          "blockTimestamp": "0x696f05b6",
          "transactionHash": "0xf6c34111b28b726b5118f4e70d0207f005f4576357d4e619cb7253f49fcc2fdb",
          "transactionIndex": "0x1",
          "logIndex": "0x0",
          "removed": false
        }
      ],
      "logsBloom": "0x00000000000000000000000000000000000000000000000000000000000000000000000000000000000000100000000000000000000000008000000000000000000000010008000000000000000000000000000000000000000000000000000000004000000000000000000000000008000000000000000000000000000000200000000000000000000000000000001000000000000000000000000000000000000000000000000000000000000200000000000000000000000000000000000000000000000000000000000000000000000000000000000200000000000000000000000000000000000000041000000000000000000000000000000000000000",
      "type": "0x2",
      "transactionHash": "0xf6c34111b28b726b5118f4e70d0207f005f4576357d4e619cb7253f49fcc2fdb",
      "transactionIndex": "0x1",
      "blockHash": "0xbea3fb99c401a3f1d753c0262c147e7c2c90f5eae61f372406d62cd1fbec5ad0",
      "blockNumber": "0xed195a",
      "gasUsed": "0xcf9d",
      "effectiveGasPrice": "0xf42bd",
      "blobGasUsed": "0xa5a0",
      "from": "0xe3fd5228ac2d2c15856959f9e27a4671c5d45958",
      "to": "0xda282e89244424e297ce8e78089b54d043fb28b6",
      "contractAddress": null,
      "daFootprintGasScalar": "0x190",
      "l1BaseFeeScalar": "0x558",
      "l1BlobBaseFee": "0x381d4da",
      "l1BlobBaseFeeScalar": "0xc5fc5",
      "l1Fee": "0x1c17d7e2d",
      "l1GasPrice": "0x3f3a4fbb",
      "l1GasUsed": "0x6a4"
    },
    {
      "status": "0x1",
      "cumulativeGasUsed": "0x25078",
      "logs": [
        {
          "address": "0x843ff433f7657901118ff3e2eca915abb9bc12df",
          "topics": [
            "0x84c8e535ea2c772fdcaab7fd1c78efb11d06931c5d61fd4b75fbff891da9cc00",
            "0x00000000000000000000000056dd660eacdaa5187ae4aa1652891465cc85f4a1"
          ],
          "data": "0x",
          "blockHash": "0xbea3fb99c401a3f1d753c0262c147e7c2c90f5eae61f372406d62cd1fbec5ad0",
          "blockNumber": "0xed195a",
          "blockTimestamp": "0x696f05b6",
          "transactionHash": "0xc35f3b61171102bf77587192a6f3eac45d2cd91ea40e74e4d3e37956fa7713dd",
          "transactionIndex": "0x2",
          "logIndex": "0x1",
          "removed": false
        }
      ],
      "logsBloom": "0x00000000040000000000000000000000000000000000000000000000000000000008000000000000000000000000000000000000000000008000000000000000000000000000000000000000000000000000000000000000000000000000000000000000000000000000000000000000000000000000000000000000000000000000000000000000000000000000000000000000000000000000000000000000000000000000000000000000000200000000000000000000000000000000010000000000000000000000000000000000000000000000000100400000000000000000000000000000000000040000000000000000000000000000000100000000",
      "type": "0x2",
      "transactionHash": "0xc35f3b61171102bf77587192a6f3eac45d2cd91ea40e74e4d3e37956fa7713dd",
      "transactionIndex": "0x2",
      "blockHash": "0xbea3fb99c401a3f1d753c0262c147e7c2c90f5eae61f372406d62cd1fbec5ad0",
      "blockNumber": "0xed195a",
      "gasUsed": "0xcc51",
      "effectiveGasPrice": "0xf42bd",
      "blobGasUsed": "0x9c40",
      "from": "0xe3fd5228ac2d2c15856959f9e27a4671c5d45958",
      "to": "0x843ff433f7657901118ff3e2eca915abb9bc12df",
      "contractAddress": null,
      "daFootprintGasScalar": "0x190",
      "l1BaseFeeScalar": "0x558",
      "l1BlobBaseFee": "0x381d4da",
      "l1BlobBaseFeeScalar": "0xc5fc5",
      "l1Fee": "0x1a6ce2677",
      "l1GasPrice": "0x3f3a4fbb",
      "l1GasUsed": "0x640"
    }
  ],
  "libraries": [],
  "pending": [],
  "returns": {},
  "timestamp": 1768883639096,
  "chain": 91342,
  "commit": "5f0bd2a"
}