{
  "transactions": [
    {
      "hash": "0x5708be9996654388566452bbc83009ec10f33bc831bfc33b5445e4e098e40f10",
      "transactionType": "CALL",
      "contractName": null,
      "contractAddress": "0xda282e89244424e297ce8e78089b54d043fb28b6",
      "function": "register(bytes32,address)",
      "arguments": [
        "0xea91a39653d7f636e1feea86b9711dd494c8c02fc63d2ad38c9618ca39888ba9",
        "0x84c1284BA3F3935cA3ff5352958F19f285B43dce"
      ],
      "transaction": {
        "from": "0xe3fd5228ac2d2c15856959f9e27a4671c5d45958",
        "to": "0xda282e89244424e297ce8e78089b54d043fb28b6",
        "gas": "0x11ec3",
        "value": "0x0",
        "input": "0xd22057a9ea91a39653d7f636e1feea86b9711dd494c8c02fc63d2ad38c9618ca39888ba900000000000000000000000084c1284ba3f3935ca3ff5352958f19f285b43dce",
        "nonce": "0x25",
        "chainId": "0x164ce"
      },
      "additionalContracts": [],
      "isFixedGasLimit": false
    },
    {
      "hash": "0x50a56ba49a1308bdf9d7c078e6a9aa8c1088c48351d0153cbc02612dc111daf7",
      "transactionType": "CALL",
      "contractName": null,
      "contractAddress": "0x843ff433f7657901118ff3e2eca915abb9bc12df",
      "function": "allowAttester(address)",
      "arguments": [
        "0x84c1284BA3F3935cA3ff5352958F19f285B43dce"
      ],
      "transaction": {
        "from": "0xe3fd5228ac2d2c15856959f9e27a4671c5d45958",
        "to": "0x843ff433f7657901118ff3e2eca915abb9bc12df",
        "gas": "0x12acf",
        "value": "0x0",
        "input": "0x7232755300000000000000000000000084c1284ba3f3935ca3ff5352958f19f285b43dce",
        "nonce": "0x26",
        "chainId": "0x164ce"
      },
      "additionalContracts": [],
      "isFixedGasLimit": false
    }
  ],
  "receipts": [
    {
      "status": "0x1",
      "cumulativeGasUsed": "0x242ce",
      "logs": [
        {
          "address": "0xda282e89244424e297ce8e78089b54d043fb28b6",
          "topics": [
            "0x1f7edeefba33ab6ff8898c9a6036a28c6b19d2865e8738039e3e2a2e5410dc1c",
            "0xea91a39653d7f636e1feea86b9711dd494c8c02fc63d2ad38c9618ca39888ba9",
            "0x00000000000000000000000084c1284ba3f3935ca3ff5352958f19f285b43dce"
          ],
          "data": "0x",
          "blockHash": "0x38b2dd8f9ce3c3e4b1ce379660db59aa41337af10a31164a15b89fdca2c60193",
          "blockNumber": "0xe80785",
          "blockTimestamp": "0x6969f3e1",
          "transactionHash": "0x5708be9996654388566452bbc83009ec10f33bc831bfc33b5445e4e098e40f10",
          "transactionIndex": "0x2",
          "logIndex": "0x1",
          "removed": false
        }
      ],
      "logsBloom": "0x00000004000000000000000000000000000000000000000000000000000000000000000000000000000000100000000000200000000001000000000000000000000000010008000000000000000000000000200000000000000000000000000000004000000000000000000000000000000000000000000000000000000000200000000000000000000000000000000000000000000000000000000000000000000000000000000000002000000000000000000000000000000000000000000400000000000000000000000000000000000000000000000200000000000000000000000000000000000000000000000000000000000000000000000000000000",
      "type": "0x2",
      "transactionHash": "0x5708be9996654388566452bbc83009ec10f33bc831bfc33b5445e4e098e40f10",
      "transactionIndex": "0x2",
      "blockHash": "0x38b2dd8f9ce3c3e4b1ce379660db59aa41337af10a31164a15b89fdca2c60193",
      "blockNumber": "0xe80785",
      "gasUsed": "0xcf9d",
      "effectiveGasPrice": "0xf433b",
      "blobGasUsed": "0xa5a0",
      "from": "0xe3fd5228ac2d2c15856959f9e27a4671c5d45958",
      "to": "0xda282e89244424e297ce8e78089b54d043fb28b6",
      "contractAddress": null,
      "daFootprintGasScalar": "0x190",
      "l1BaseFeeScalar": "0x558",
      "l1BlobBaseFee": "0x36b26b7",
      "l1BlobBaseFeeScalar": "0xc5fc5",
      "l1Fee": "0x1bbd69e15",
      "l1GasPrice": "0x4014d1f2",
      "l1GasUsed": "0x6a4"
    },
    {
      "status": "0x1",
      "cumulativeGasUsed": "0x30f1f",
      "logs": [
        {
          "address": "0x843ff433f7657901118ff3e2eca915abb9bc12df",
          "topics": [
            "0x84c8e535ea2c772fdcaab7fd1c78efb11d06931c5d61fd4b75fbff891da9cc00",
            "0x00000000000000000000000084c1284ba3f3935ca3ff5352958f19f285b43dce"
          ],
          "data": "0x",
          "blockHash": "0x38b2dd8f9ce3c3e4b1ce379660db59aa41337af10a31164a15b89fdca2c60193",
          "blockNumber": "0xe80785",
          "blockTimestamp": "0x6969f3e1",
          "transactionHash": "0x50a56ba49a1308bdf9d7c078e6a9aa8c1088c48351d0153cbc02612dc111daf7",
          "transactionIndex": "0x3",
          "logIndex": "0x2",
          "removed": false
        }
      ],
      "logsBloom": "0x00000000040000000000000000000000000000000000000000000000000000000008000000000000000000000000000000200000000001000000000000000000000000000000000000000000000000000000200000000000000000000000000000000000000000000000000000000000000000000000000000000000000000000000000000000000000000000000000000000000000000000000000000000000000000000000000000000000000000000000000000000000000000000000010000000000000000000000000000000000000000000000000100400000000000000000000000000000000000000000000000000000000000000000000100000000",
      "type": "0x2",
      "transactionHash": "0x50a56ba49a1308bdf9d7c078e6a9aa8c1088c48351d0153cbc02612dc111daf7",
      "transactionIndex": "0x3",
      "blockHash": "0x38b2dd8f9ce3c3e4b1ce379660db59aa41337af10a31164a15b89fdca2c60193",
      "blockNumber": "0xe80785",
      "gasUsed": "0xcc51",
      "effectiveGasPrice": "0xf433b",
      "blobGasUsed": "0x9c40",
      "from": "0xe3fd5228ac2d2c15856959f9e27a4671c5d45958",
      "to": "0x843ff433f7657901118ff3e2eca915abb9bc12df",
      "contractAddress": null,
      "daFootprintGasScalar": "0x190",
      "l1BaseFeeScalar": "0x558",
      "l1BlobBaseFee": "0x36b26b7",
      "l1BlobBaseFeeScalar": "0xc5fc5",
      "l1Fee": "0x1a17d2bf4",
      "l1GasPrice": "0x4014d1f2",
      "l1GasUsed": "0x640"
    }
  ],
  "libraries": [],
  "pending": [],
  "returns": {},
  "timestamp": 1768551393721,
  "chain": 91342,
  "commit": "d9595eb"
}