{
  "transactions": [
    {
      "hash": "0x6e7bea9372075a824a3a1bc0c53f58c97b86e4d66becbc7dbe474d44b1907a10",
      "transactionType": "CREATE",
      "contractName": "SchemaBook",
      "contractAddress": "0x626cac9ba80a383d25ca4b4b8248d5e35bcac82a",
      "function": null,
      "arguments": null,
      "transaction": {
        "from": "0x0027b0882c92a1a86c5885fed632667e81e49e5f",
        "gas": "0x18d458",
        "value": "0x0",
        "input": "0x60a080604052346100c257306080525f51602061161d5f395f51905f525460ff8160401c166100b3576002600160401b03196001600160401b03821601610060575b60405161155690816100c7823960805181818161061501526107340152f35b6001600160401b0319166001600160401b039081175f51602061161d5f395f51905f525581527fc7f505b2f371ae2175ee4913f4499e1f2633a7b5936321eed1cdaeb6115181d290602090a15f80610041565b63f92ee8a960e01b5f5260045ffd5b5f80fdfe6080806040526004361015610012575f80fd5b5f3560e01c90816301ffc9a714610ec4575080631a0919dc14610e46578063248a9ca314610dd65780632f2ff15d14610d5b5780632f92673214610af557806336568abe14610a6d5780634f1ef2861461068d57806352d1902d146105d057806354d4f9db1461058957806391d14854146104f5578063a217fddf146104bd578063ad3cb1cc1461040b578063c4d66de81461019f578063d547741f1461011d5763f72c0d8b146100c1575f80fd5b34610119575f7ffffffffffffffffffffffffffffffffffffffffffffffffffffffffffffffffc3601126101195760206040517f94128ea7f74a449ce658791007e32321f49a24a085ab70669bc3d744a5146add8152f35b5f80fd5b346101195760407ffffffffffffffffffffffffffffffffffffffffffffffffffffffffffffffffc3601126101195761019d60043561015a610f80565b90610198610193825f527f02dd7bc7dec4dceedda775e58dd541e08a116c6c53815c0bd028192f7b626800602052600160405f20015490565b6110a9565b611328565b005b346101195760207ffffffffffffffffffffffffffffffffffffffffffffffffffffffffffffffffc360112610119576101d6610fa3565b7ff0c57e16840df040f15088dc2f81fe391c3923bec73e23a9662efc9c229c6a00549060ff8260401c16159167ffffffffffffffff811680159081610403575b60011490816103f9575b1590816103f0575b506103c8578260017fffffffffffffffffffffffffffffffffffffffffffffffff00000000000000008316177ff0c57e16840df040f15088dc2f81fe391c3923bec73e23a9662efc9c229c6a0055610373575b5073ffffffffffffffffffffffffffffffffffffffff81161561034b576102b1906102a4611430565b6102ac611430565b61112f565b506102b857005b7fffffffffffffffffffffffffffffffffffffffffffffff00ffffffffffffffff7ff0c57e16840df040f15088dc2f81fe391c3923bec73e23a9662efc9c229c6a0054167ff0c57e16840df040f15088dc2f81fe391c3923bec73e23a9662efc9c229c6a00557fc7f505b2f371ae2175ee4913f4499e1f2633a7b5936321eed1cdaeb6115181d2602060405160018152a1005b7fd92e233d000000000000000000000000000000000000000000000000000000005f5260045ffd5b7fffffffffffffffffffffffffffffffffffffffffffffff0000000000000000001668010000000000000001177ff0c57e16840df040f15088dc2f81fe391c3923bec73e23a9662efc9c229c6a00558261027b565b7ff92ee8a9000000000000000000000000000000000000000000000000000000005f5260045ffd5b90501584610228565b303b159150610220565b849150610216565b34610119575f7ffffffffffffffffffffffffffffffffffffffffffffffffffffffffffffffffc3601126101195760408051906104488183610fc6565b6005825260208201917f352e302e3000000000000000000000000000000000000000000000000000000083527fffffffffffffffffffffffffffffffffffffffffffffffffffffffffffffffe0601f8351948593602085525180918160208701528686015e5f85828601015201168101030190f35b34610119575f7ffffffffffffffffffffffffffffffffffffffffffffffffffffffffffffffffc3601126101195760206040515f8152f35b346101195760407ffffffffffffffffffffffffffffffffffffffffffffffffffffffffffffffffc3601126101195761052c610f80565b6004355f527f02dd7bc7dec4dceedda775e58dd541e08a116c6c53815c0bd028192f7b62680060205273ffffffffffffffffffffffffffffffffffffffff60405f2091165f52602052602060ff60405f2054166040519015158152f35b346101195760207ffffffffffffffffffffffffffffffffffffffffffffffffffffffffffffffffc360112610119576004355f525f602052602060405f2054604051908152f35b34610119575f7ffffffffffffffffffffffffffffffffffffffffffffffffffffffffffffffffc3601126101195773ffffffffffffffffffffffffffffffffffffffff7f00000000000000000000000000000000000000000000000000000000000000001630036106655760206040517f360894a13ba1a3210667c828492db98dca3e2076cc3735a920a3ca505d382bbc8152f35b7fe07c8dba000000000000000000000000000000000000000000000000000000005f5260045ffd5b60407ffffffffffffffffffffffffffffffffffffffffffffffffffffffffffffffffc360112610119576106bf610fa3565b6024359067ffffffffffffffff82116101195736602383011215610119578160040135906106ec82611007565b916106fa6040519384610fc6565b8083526020830193366024838301011161011957815f9260246020930187378401015273ffffffffffffffffffffffffffffffffffffffff7f000000000000000000000000000000000000000000000000000000000000000016803014908115610a2b575b5061066557335f9081527f23d7726237ed0b98f9723b3476cd941b47b87809f88a9493ae6e64e1ca36ed4e602052604090205460ff16156109db5773ffffffffffffffffffffffffffffffffffffffff8116926040517f52d1902d000000000000000000000000000000000000000000000000000000008152602081600481885afa5f91816109a7575b5061081a57847f4c9c8ce3000000000000000000000000000000000000000000000000000000005f5260045260245ffd5b807f360894a13ba1a3210667c828492db98dca3e2076cc3735a920a3ca505d382bbc86920361097c5750823b1561095157807fffffffffffffffffffffffff00000000000000000000000000000000000000007f360894a13ba1a3210667c828492db98dca3e2076cc3735a920a3ca505d382bbc5416177f360894a13ba1a3210667c828492db98dca3e2076cc3735a920a3ca505d382bbc557fbc7cd75a20ee27fd9adebab32041f755214dbc6bffa90cc0225b39da2e5c2d3b5f80a282511561091f575f809161019d945190845af43d15610917573d916108fb83611007565b926109096040519485610fc6565b83523d5f602085013e611487565b606091611487565b5050503461092957005b7fb398979f000000000000000000000000000000000000000000000000000000005f5260045ffd5b7f4c9c8ce3000000000000000000000000000000000000000000000000000000005f5260045260245ffd5b7faa1d49a4000000000000000000000000000000000000000000000000000000005f5260045260245ffd5b9091506020813d6020116109d3575b816109c360209383610fc6565b81010312610119575190866107e9565b3d91506109b6565b7fe2517d3f000000000000000000000000000000000000000000000000000000005f52336004527f94128ea7f74a449ce658791007e32321f49a24a085ab70669bc3d744a5146add60245260445ffd5b905073ffffffffffffffffffffffffffffffffffffffff7f360894a13ba1a3210667c828492db98dca3e2076cc3735a920a3ca505d382bbc541614158461075f565b346101195760407ffffffffffffffffffffffffffffffffffffffffffffffffffffffffffffffffc36011261011957610aa4610f80565b3373ffffffffffffffffffffffffffffffffffffffff821603610acd5761019d90600435611328565b7f6697b232000000000000000000000000000000000000000000000000000000005f5260045ffd5b346101195760407ffffffffffffffffffffffffffffffffffffffffffffffffffffffffffffffffc36011261011957602435600435610b32611041565b8015610d335781158015610ba0575b610b7857805f525f6020528160405f20557f563ebecbb9df1c7112240e62907d4eb34dce7d568194f648e126e148bd9f275b5f80a3005b7fca3e2776000000000000000000000000000000000000000000000000000000005f5260045ffd5b506040517fa2ea7c6e0000000000000000000000000000000000000000000000000000000081528260048201525f816024817342000000000000000000000000000000000000205afa908115610d28575f91610bff575b505115610b41565b90503d805f833e610c108183610fc6565b8101906020818303126101195780519067ffffffffffffffff821161011957019060808282031261011957604051916080830183811067ffffffffffffffff821117610cfb5760405280518352602081015173ffffffffffffffffffffffffffffffffffffffff811681036101195760208401526040810151801515810361011957604084015260608101519067ffffffffffffffff8211610119570181601f8201121561011957805190610cc482611007565b92610cd26040519485610fc6565b8284526020838301011161011957815f9260208093018386015e83010152606082015283610bf7565b7f4e487b71000000000000000000000000000000000000000000000000000000005f52604160045260245ffd5b6040513d5f823e3d90fd5b7f30ccdca1000000000000000000000000000000000000000000000000000000005f5260045ffd5b346101195760407ffffffffffffffffffffffffffffffffffffffffffffffffffffffffffffffffc3601126101195761019d600435610d98610f80565b90610dd1610193825f527f02dd7bc7dec4dceedda775e58dd541e08a116c6c53815c0bd028192f7b626800602052600160405f20015490565b611216565b346101195760207ffffffffffffffffffffffffffffffffffffffffffffffffffffffffffffffffc360112610119576020610e3e6004355f527f02dd7bc7dec4dceedda775e58dd541e08a116c6c53815c0bd028192f7b626800602052600160405f20015490565b604051908152f35b346101195760207ffffffffffffffffffffffffffffffffffffffffffffffffffffffffffffffffc36011261011957600435610e80611041565b805f525f60205260405f205415610d3357805f525f6020525f60408120557f1af628ebeae91886202be87a44790fab4644154e4464b578a48648755be67b485f80a2005b346101195760207ffffffffffffffffffffffffffffffffffffffffffffffffffffffffffffffffc36011261011957600435907fffffffff00000000000000000000000000000000000000000000000000000000821680920361011957817f7965db0b0000000000000000000000000000000000000000000000000000000060209314908115610f56575b5015158152f35b7f01ffc9a70000000000000000000000000000000000000000000000000000000091501483610f4f565b6024359073ffffffffffffffffffffffffffffffffffffffff8216820361011957565b6004359073ffffffffffffffffffffffffffffffffffffffff8216820361011957565b90601f7fffffffffffffffffffffffffffffffffffffffffffffffffffffffffffffffe0910116810190811067ffffffffffffffff821117610cfb57604052565b67ffffffffffffffff8111610cfb57601f017fffffffffffffffffffffffffffffffffffffffffffffffffffffffffffffffe01660200190565b335f9081527fb7db2dd08fcb62d0c9e08c51941cae53c267786a0b75803fb7960902fc8ef97d602052604090205460ff161561107957565b7fe2517d3f000000000000000000000000000000000000000000000000000000005f52336004525f60245260445ffd5b805f527f02dd7bc7dec4dceedda775e58dd541e08a116c6c53815c0bd028192f7b62680060205260405f2073ffffffffffffffffffffffffffffffffffffffff33165f5260205260ff60405f205416156111005750565b7fe2517d3f000000000000000000000000000000000000000000000000000000005f523360045260245260445ffd5b73ffffffffffffffffffffffffffffffffffffffff81165f9081527fb7db2dd08fcb62d0c9e08c51941cae53c267786a0b75803fb7960902fc8ef97d602052604090205460ff166112115773ffffffffffffffffffffffffffffffffffffffff165f8181527fb7db2dd08fcb62d0c9e08c51941cae53c267786a0b75803fb7960902fc8ef97d6020526040812080547fffffffffffffffffffffffffffffffffffffffffffffffffffffffffffffff001660011790553391907f2f8788117e7eff1d82e926ec794901d17c78024a50270940304540a733656f0d8180a4600190565b505f90565b805f527f02dd7bc7dec4dceedda775e58dd541e08a116c6c53815c0bd028192f7b62680060205260405f2073ffffffffffffffffffffffffffffffffffffffff83165f5260205260ff60405f205416155f1461132257805f527f02dd7bc7dec4dceedda775e58dd541e08a116c6c53815c0bd028192f7b62680060205260405f2073ffffffffffffffffffffffffffffffffffffffff83165f5260205260405f2060017fffffffffffffffffffffffffffffffffffffffffffffffffffffffffffffff0082541617905573ffffffffffffffffffffffffffffffffffffffff339216907f2f8788117e7eff1d82e926ec794901d17c78024a50270940304540a733656f0d5f80a4600190565b50505f90565b805f527f02dd7bc7dec4dceedda775e58dd541e08a116c6c53815c0bd028192f7b62680060205260405f2073ffffffffffffffffffffffffffffffffffffffff83165f5260205260ff60405f2054165f1461132257805f527f02dd7bc7dec4dceedda775e58dd541e08a116c6c53815c0bd028192f7b62680060205260405f2073ffffffffffffffffffffffffffffffffffffffff83165f5260205260405f207fffffffffffffffffffffffffffffffffffffffffffffffffffffffffffffff00815416905573ffffffffffffffffffffffffffffffffffffffff339216907ff6391f5c32d9c69d2a47ea670b442974b53935d1edc7fd64eb21e047a839171b5f80a4600190565b60ff7ff0c57e16840df040f15088dc2f81fe391c3923bec73e23a9662efc9c229c6a005460401c161561145f57565b7fd7e6bcf8000000000000000000000000000000000000000000000000000000005f5260045ffd5b906114c4575080511561149c57805190602001fd5b7fd6bda275000000000000000000000000000000000000000000000000000000005f5260045ffd5b81511580611517575b6114d5575090565b73ffffffffffffffffffffffffffffffffffffffff907f9996b315000000000000000000000000000000000000000000000000000000005f521660045260245ffd5b50803b156114cd56fea264697066735822122097f614ffbf4aab328e8c87165232a9512a266b138acfa0c4fb47a674a53c6ee964736f6c634300081c0033f0c57e16840df040f15088dc2f81fe391c3923bec73e23a9662efc9c229c6a00",
        "nonce": "0x1",
        "chainId": "0x164ce"
      },
      "additionalContracts": [],
      "isFixedGasLimit": false
    },
    {
      "hash": "0x500de4d1b40cee6f4f9b2ac25729b4fe17a28f4466340b381a62c27cdf5b7bf2",
      "transactionType": "CREATE",
      "contractName": "ERC1967Proxy",
      "contractAddress": "0x78cbb3413fbb6af05ef1d21e646440e56bae3ad6",
      "function": null,
      "arguments": [
        "0x626caC9BA80a383D25Ca4b4b8248D5E35bCac82A",
        "0xc4d66de8000000000000000000000000e3fd5228ac2d2c15856959f9e27a4671c5d45958"
      ],
      "transaction": {
        "from": "0x0027b0882c92a1a86c5885fed632667e81e49e5f",
        "gas": "0x35a50",
        "value": "0x0",
        "input": "0x60806040526102a88038038061001481610168565b92833981016040828203126101645781516001600160a01b03811692909190838303610164576020810151906001600160401b03821161016457019281601f8501121561016457835161006e610069826101a1565b610168565b9481865260208601936020838301011161016457815f926020809301865e86010152823b15610152577f360894a13ba1a3210667c828492db98dca3e2076cc3735a920a3ca505d382bbc80546001600160a01b031916821790557fbc7cd75a20ee27fd9adebab32041f755214dbc6bffa90cc0225b39da2e5c2d3b5f80a282511561013a575f8091610122945190845af43d15610132573d91610113610069846101a1565b9283523d5f602085013e6101bc565b505b604051608d908161021b8239f35b6060916101bc565b50505034156101245763b398979f60e01b5f5260045ffd5b634c9c8ce360e01b5f5260045260245ffd5b5f80fd5b6040519190601f01601f191682016001600160401b0381118382101761018d57604052565b634e487b7160e01b5f52604160045260245ffd5b6001600160401b03811161018d57601f01601f191660200190565b906101e057508051156101d157805190602001fd5b63d6bda27560e01b5f5260045ffd5b81511580610211575b6101f1575090565b639996b31560e01b5f9081526001600160a01b0391909116600452602490fd5b50803b156101e956fe60806040525f8073ffffffffffffffffffffffffffffffffffffffff7f360894a13ba1a3210667c828492db98dca3e2076cc3735a920a3ca505d382bbc5416368280378136915af43d5f803e156053573d5ff35b3d5ffdfea264697066735822122023fa31abe8b821721bc98dcd0d14aa90fabb922ce91da6144ff3262e40aa4dd164736f6c634300081c0033000000000000000000000000626cac9ba80a383d25ca4b4b8248d5e35bcac82a00000000000000000000000000000000000000000000000000000000000000400000000000000000000000000000000000000000000000000000000000000024c4d66de8000000000000000000000000e3fd5228ac2d2c15856959f9e27a4671c5d4595800000000000000000000000000000000000000000000000000000000",
        "nonce": "0x2",
        "chainId": "0x164ce"
      },
      "additionalContracts": [],
      "isFixedGasLimit": false
    },
    {
      "hash": "0xf68b2d1bba9855fdfbc5dadbcfbfc08a4942aed0be0228a546d34919041aeb07",
      "transactionType": "CREATE",
      "contractName": "DojangAttesterBook",
      "contractAddress": "0x18b08bb2e34e586436d873b85d8555a99bfc41a7",
      "function": null,
      "arguments": null,
      "transaction": {
        "from": "0x0027b0882c92a1a86c5885fed632667e81e49e5f",
        "gas": "0x175e24",
        "value": "0x0",
        "input": "0x60a080604052346100c257306080525f5160206114c55f395f51905f525460ff8160401c166100b3576002600160401b03196001600160401b03821601610060575b6040516113fe90816100c7823960805181818161068601526107a50152f35b6001600160401b0319166001600160401b039081175f5160206114c55f395f51905f525581527fc7f505b2f371ae2175ee4913f4499e1f2633a7b5936321eed1cdaeb6115181d290602090a15f80610041565b63f92ee8a960e01b5f5260045ffd5b5f80fdfe6080806040526004361015610012575f80fd5b5f3560e01c90816301ffc9a714610d3f5750806310d736d514610ce25780631a0919dc14610c51578063248a9ca314610be15780632f2ff15d14610b6657806336568abe14610ade5780634f1ef286146106fe57806352d1902d1461064157806391d14854146105ad578063a217fddf14610575578063ad3cb1cc146104c3578063c4d66de81461027f578063d22057a91461019f578063d547741f1461011d5763f72c0d8b146100c1575f80fd5b34610119575f7ffffffffffffffffffffffffffffffffffffffffffffffffffffffffffffffffc3601126101195760206040517f635a0c1689ad5a7df2dedc643572aeaf20ebc2ba3151b047c687dd08ef00e5918152f35b5f80fd5b346101195760407ffffffffffffffffffffffffffffffffffffffffffffffffffffffffffffffffc3601126101195761019d60043561015a610dfb565b90610198610193825f527f02dd7bc7dec4dceedda775e58dd541e08a116c6c53815c0bd028192f7b626800602052600160405f20015490565b610f51565b6111d0565b005b346101195760407ffffffffffffffffffffffffffffffffffffffffffffffffffffffffffffffffc3601126101195760043573ffffffffffffffffffffffffffffffffffffffff6101ee610dfb565b6101f6610ee9565b1690811561025757805f525f60205260405f20827fffffffffffffffffffffffff00000000000000000000000000000000000000008254161790557f1f7edeefba33ab6ff8898c9a6036a28c6b19d2865e8738039e3e2a2e5410dc1c5f80a3005b7fd92e233d000000000000000000000000000000000000000000000000000000005f5260045ffd5b346101195760207ffffffffffffffffffffffffffffffffffffffffffffffffffffffffffffffffc360112610119576102b6610e1e565b7ff0c57e16840df040f15088dc2f81fe391c3923bec73e23a9662efc9c229c6a00549060ff8260401c16159167ffffffffffffffff8116801590816104bb575b60011490816104b1575b1590816104a8575b50610480578260017fffffffffffffffffffffffffffffffffffffffffffffffff00000000000000008316177ff0c57e16840df040f15088dc2f81fe391c3923bec73e23a9662efc9c229c6a005561042b575b5073ffffffffffffffffffffffffffffffffffffffff81161561025757610391906103846112d8565b61038c6112d8565b610fd7565b5061039857005b7fffffffffffffffffffffffffffffffffffffffffffffff00ffffffffffffffff7ff0c57e16840df040f15088dc2f81fe391c3923bec73e23a9662efc9c229c6a0054167ff0c57e16840df040f15088dc2f81fe391c3923bec73e23a9662efc9c229c6a00557fc7f505b2f371ae2175ee4913f4499e1f2633a7b5936321eed1cdaeb6115181d2602060405160018152a1005b7fffffffffffffffffffffffffffffffffffffffffffffff0000000000000000001668010000000000000001177ff0c57e16840df040f15088dc2f81fe391c3923bec73e23a9662efc9c229c6a00558261035b565b7ff92ee8a9000000000000000000000000000000000000000000000000000000005f5260045ffd5b90501584610308565b303b159150610300565b8491506102f6565b34610119575f7ffffffffffffffffffffffffffffffffffffffffffffffffffffffffffffffffc3601126101195760408051906105008183610e41565b6005825260208201917f352e302e3000000000000000000000000000000000000000000000000000000083527fffffffffffffffffffffffffffffffffffffffffffffffffffffffffffffffe0601f8351948593602085525180918160208701528686015e5f85828601015201168101030190f35b34610119575f7ffffffffffffffffffffffffffffffffffffffffffffffffffffffffffffffffc3601126101195760206040515f8152f35b346101195760407ffffffffffffffffffffffffffffffffffffffffffffffffffffffffffffffffc360112610119576105e4610dfb565b6004355f527f02dd7bc7dec4dceedda775e58dd541e08a116c6c53815c0bd028192f7b62680060205273ffffffffffffffffffffffffffffffffffffffff60405f2091165f52602052602060ff60405f2054166040519015158152f35b34610119575f7ffffffffffffffffffffffffffffffffffffffffffffffffffffffffffffffffc3601126101195773ffffffffffffffffffffffffffffffffffffffff7f00000000000000000000000000000000000000000000000000000000000000001630036106d65760206040517f360894a13ba1a3210667c828492db98dca3e2076cc3735a920a3ca505d382bbc8152f35b7fe07c8dba000000000000000000000000000000000000000000000000000000005f5260045ffd5b60407ffffffffffffffffffffffffffffffffffffffffffffffffffffffffffffffffc36011261011957610730610e1e565b6024359067ffffffffffffffff821161011957366023830112156101195781600401359061075d82610eaf565b9161076b6040519384610e41565b8083526020830193366024838301011161011957815f9260246020930187378401015273ffffffffffffffffffffffffffffffffffffffff7f000000000000000000000000000000000000000000000000000000000000000016803014908115610a9c575b506106d657335f9081527f6a12985812d3e2bd745ec59f5712b1e9350268088e42b28673cbef0b22b65d0b602052604090205460ff1615610a4c5773ffffffffffffffffffffffffffffffffffffffff8116926040517f52d1902d000000000000000000000000000000000000000000000000000000008152602081600481885afa5f9181610a18575b5061088b57847f4c9c8ce3000000000000000000000000000000000000000000000000000000005f5260045260245ffd5b807f360894a13ba1a3210667c828492db98dca3e2076cc3735a920a3ca505d382bbc8692036109ed5750823b156109c257807fffffffffffffffffffffffff00000000000000000000000000000000000000007f360894a13ba1a3210667c828492db98dca3e2076cc3735a920a3ca505d382bbc5416177f360894a13ba1a3210667c828492db98dca3e2076cc3735a920a3ca505d382bbc557fbc7cd75a20ee27fd9adebab32041f755214dbc6bffa90cc0225b39da2e5c2d3b5f80a2825115610990575f809161019d945190845af43d15610988573d9161096c83610eaf565b9261097a6040519485610e41565b83523d5f602085013e61132f565b60609161132f565b5050503461099a57005b7fb398979f000000000000000000000000000000000000000000000000000000005f5260045ffd5b7f4c9c8ce3000000000000000000000000000000000000000000000000000000005f5260045260245ffd5b7faa1d49a4000000000000000000000000000000000000000000000000000000005f5260045260245ffd5b9091506020813d602011610a44575b81610a3460209383610e41565b810103126101195751908661085a565b3d9150610a27565b7fe2517d3f000000000000000000000000000000000000000000000000000000005f52336004527f635a0c1689ad5a7df2dedc643572aeaf20ebc2ba3151b047c687dd08ef00e59160245260445ffd5b905073ffffffffffffffffffffffffffffffffffffffff7f360894a13ba1a3210667c828492db98dca3e2076cc3735a920a3ca505d382bbc54161415846107d0565b346101195760407ffffffffffffffffffffffffffffffffffffffffffffffffffffffffffffffffc36011261011957610b15610dfb565b3373ffffffffffffffffffffffffffffffffffffffff821603610b3e5761019d906004356111d0565b7f6697b232000000000000000000000000000000000000000000000000000000005f5260045ffd5b346101195760407ffffffffffffffffffffffffffffffffffffffffffffffffffffffffffffffffc3601126101195761019d600435610ba3610dfb565b90610bdc610193825f527f02dd7bc7dec4dceedda775e58dd541e08a116c6c53815c0bd028192f7b626800602052600160405f20015490565b6110be565b346101195760207ffffffffffffffffffffffffffffffffffffffffffffffffffffffffffffffffc360112610119576020610c496004355f527f02dd7bc7dec4dceedda775e58dd541e08a116c6c53815c0bd028192f7b626800602052600160405f20015490565b604051908152f35b346101195760207ffffffffffffffffffffffffffffffffffffffffffffffffffffffffffffffffc36011261011957600435610c8b610ee9565b805f525f60205260405f207fffffffffffffffffffffffff000000000000000000000000000000000000000081541690557fa9e205404f87cde56d761eaebce3fa7f6b54fc2341593831dc78545f7399c79c5f80a2005b346101195760207ffffffffffffffffffffffffffffffffffffffffffffffffffffffffffffffffc360112610119576004355f525f602052602073ffffffffffffffffffffffffffffffffffffffff60405f205416604051908152f35b346101195760207ffffffffffffffffffffffffffffffffffffffffffffffffffffffffffffffffc36011261011957600435907fffffffff00000000000000000000000000000000000000000000000000000000821680920361011957817f7965db0b0000000000000000000000000000000000000000000000000000000060209314908115610dd1575b5015158152f35b7f01ffc9a70000000000000000000000000000000000000000000000000000000091501483610dca565b6024359073ffffffffffffffffffffffffffffffffffffffff8216820361011957565b6004359073ffffffffffffffffffffffffffffffffffffffff8216820361011957565b90601f7fffffffffffffffffffffffffffffffffffffffffffffffffffffffffffffffe0910116810190811067ffffffffffffffff821117610e8257604052565b7f4e487b71000000000000000000000000000000000000000000000000000000005f52604160045260245ffd5b67ffffffffffffffff8111610e8257601f017fffffffffffffffffffffffffffffffffffffffffffffffffffffffffffffffe01660200190565b335f9081527fb7db2dd08fcb62d0c9e08c51941cae53c267786a0b75803fb7960902fc8ef97d602052604090205460ff1615610f2157565b7fe2517d3f000000000000000000000000000000000000000000000000000000005f52336004525f60245260445ffd5b805f527f02dd7bc7dec4dceedda775e58dd541e08a116c6c53815c0bd028192f7b62680060205260405f2073ffffffffffffffffffffffffffffffffffffffff33165f5260205260ff60405f20541615610fa85750565b7fe2517d3f000000000000000000000000000000000000000000000000000000005f523360045260245260445ffd5b73ffffffffffffffffffffffffffffffffffffffff81165f9081527fb7db2dd08fcb62d0c9e08c51941cae53c267786a0b75803fb7960902fc8ef97d602052604090205460ff166110b95773ffffffffffffffffffffffffffffffffffffffff165f8181527fb7db2dd08fcb62d0c9e08c51941cae53c267786a0b75803fb7960902fc8ef97d6020526040812080547fffffffffffffffffffffffffffffffffffffffffffffffffffffffffffffff001660011790553391907f2f8788117e7eff1d82e926ec794901d17c78024a50270940304540a733656f0d8180a4600190565b505f90565b805f527f02dd7bc7dec4dceedda775e58dd541e08a116c6c53815c0bd028192f7b62680060205260405f2073ffffffffffffffffffffffffffffffffffffffff83165f5260205260ff60405f205416155f146111ca57805f527f02dd7bc7dec4dceedda775e58dd541e08a116c6c53815c0bd028192f7b62680060205260405f2073ffffffffffffffffffffffffffffffffffffffff83165f5260205260405f2060017fffffffffffffffffffffffffffffffffffffffffffffffffffffffffffffff0082541617905573ffffffffffffffffffffffffffffffffffffffff339216907f2f8788117e7eff1d82e926ec794901d17c78024a50270940304540a733656f0d5f80a4600190565b50505f90565b805f527f02dd7bc7dec4dceedda775e58dd541e08a116c6c53815c0bd028192f7b62680060205260405f2073ffffffffffffffffffffffffffffffffffffffff83165f5260205260ff60405f2054165f146111ca57805f527f02dd7bc7dec4dceedda775e58dd541e08a116c6c53815c0bd028192f7b62680060205260405f2073ffffffffffffffffffffffffffffffffffffffff83165f5260205260405f207fffffffffffffffffffffffffffffffffffffffffffffffffffffffffffffff00815416905573ffffffffffffffffffffffffffffffffffffffff339216907ff6391f5c32d9c69d2a47ea670b442974b53935d1edc7fd64eb21e047a839171b5f80a4600190565b60ff7ff0c57e16840df040f15088dc2f81fe391c3923bec73e23a9662efc9c229c6a005460401c161561130757565b7fd7e6bcf8000000000000000000000000000000000000000000000000000000005f5260045ffd5b9061136c575080511561134457805190602001fd5b7fd6bda275000000000000000000000000000000000000000000000000000000005f5260045ffd5b815115806113bf575b61137d575090565b73ffffffffffffffffffffffffffffffffffffffff907f9996b315000000000000000000000000000000000000000000000000000000005f521660045260245ffd5b50803b1561137556fea26469706673582212200ed4fa847e458ed7e85dc9625f0627f97e43b7721b493d2f4e81292ab1daedce64736f6c634300081c0033f0c57e16840df040f15088dc2f81fe391c3923bec73e23a9662efc9c229c6a00",
        "nonce": "0x3",
        "chainId": "0x164ce"
      },
      "additionalContracts": [],
      "isFixedGasLimit": false
    },
    {
      "hash": "0x4dca0bdb775d5b35efd508d532603e24936dffe3a79ca6cb55c8539fdefacb7c",
      "transactionType": "CREATE",
      "contractName": "ERC1967Proxy",
      "contractAddress": "0xda282e89244424e297ce8e78089b54d043fb28b6",
      "function": null,
      "arguments": [
        "0x18B08Bb2e34E586436d873B85D8555a99BfC41A7",
        "0xc4d66de8000000000000000000000000e3fd5228ac2d2c15856959f9e27a4671c5d45958"
      ],
      "transaction": {
        "from": "0x0027b0882c92a1a86c5885fed632667e81e49e5f",
        "gas": "0x35a34",
        "value": "0x0",
        "input": "0x60806040526102a88038038061001481610168565b92833981016040828203126101645781516001600160a01b03811692909190838303610164576020810151906001600160401b03821161016457019281601f8501121561016457835161006e610069826101a1565b610168565b9481865260208601936020838301011161016457815f926020809301865e86010152823b15610152577f360894a13ba1a3210667c828492db98dca3e2076cc3735a920a3ca505d382bbc80546001600160a01b031916821790557fbc7cd75a20ee27fd9adebab32041f755214dbc6bffa90cc0225b39da2e5c2d3b5f80a282511561013a575f8091610122945190845af43d15610132573d91610113610069846101a1565b9283523d5f602085013e6101bc565b505b604051608d908161021b8239f35b6060916101bc565b50505034156101245763b398979f60e01b5f5260045ffd5b634c9c8ce360e01b5f5260045260245ffd5b5f80fd5b6040519190601f01601f191682016001600160401b0381118382101761018d57604052565b634e487b7160e01b5f52604160045260245ffd5b6001600160401b03811161018d57601f01601f191660200190565b906101e057508051156101d157805190602001fd5b63d6bda27560e01b5f5260045ffd5b81511580610211575b6101f1575090565b639996b31560e01b5f9081526001600160a01b0391909116600452602490fd5b50803b156101e956fe60806040525f8073ffffffffffffffffffffffffffffffffffffffff7f360894a13ba1a3210667c828492db98dca3e2076cc3735a920a3ca505d382bbc5416368280378136915af43d5f803e156053573d5ff35b3d5ffdfea264697066735822122023fa31abe8b821721bc98dcd0d14aa90fabb922ce91da6144ff3262e40aa4dd164736f6c634300081c003300000000000000000000000018b08bb2e34e586436d873b85d8555a99bfc41a700000000000000000000000000000000000000000000000000000000000000400000000000000000000000000000000000000000000000000000000000000024c4d66de8000000000000000000000000e3fd5228ac2d2c15856959f9e27a4671c5d4595800000000000000000000000000000000000000000000000000000000",
        "nonce": "0x4",
        "chainId": "0x164ce"
      },
      "additionalContracts": [],
      "isFixedGasLimit": false
    },
    {
      "hash": "0x0ae9dad37df1b76cb40d28ecfa4052f429d452bc8f613df9c50bc26968c502f4",
      "transactionType": "CREATE",
      "contractName": "AttestationIndexer",
      "contractAddress": "0x25c77d37ca2100b66a5bf6e21528a0f24e3a7ecd",
      "function": null,
      "arguments": null,
      "transaction": {
        "from": "0x0027b0882c92a1a86c5885fed632667e81e49e5f",
        "gas": "0x236367",
        "value": "0x0",
        "input": "0x60a080604052346100c257306080525f516020611fc75f395f51905f525460ff8160401c166100b3576002600160401b03196001600160401b03821601610060575b604051611f0090816100c78239608051818181610bcc0152610ff70152f35b6001600160401b0319166001600160401b039081175f516020611fc75f395f51905f525581527fc7f505b2f371ae2175ee4913f4499e1f2633a7b5936321eed1cdaeb6115181d290602090a15f80610041565b63f92ee8a960e01b5f5260045ffd5b5f80fdfe6080806040526004361015610012575f80fd5b5f3560e01c90816301ffc9a7146116985750806310a34fc61461164057806323b9b7561461159c578063248a9ca31461152c578063298e6eb71461067a5780632f2ff15d146114b157806336568abe146114295780633f4ba83a146113305780634f1ef28614610f505780635250fec714610c4457806352d1902d14610b875780635c975abb14610b285780638456cb5914610a5557806391d14854146109c15780639b1a175f1461067f578063a217fddf1461067a578063ad3cb1cc146105c8578063c4d66de8146102e6578063d547741f14610264578063e63ab1e91461020c578063f20f03bc1461016a5763f72c0d8b1461010e575f80fd5b34610166575f7ffffffffffffffffffffffffffffffffffffffffffffffffffffffffffffffffc3601126101665760206040517f3916eed0902929784feb1e46ad4564b96fa109b7abea862fab5e29b1799b2e5f8152f35b5f80fd5b346101665760607ffffffffffffffffffffffffffffffffffffffffffffffffffffffffffffffffc360112610166576101a1611754565b6101a9611777565b906004355f525f60205273ffffffffffffffffffffffffffffffffffffffff60405f2091165f5260205273ffffffffffffffffffffffffffffffffffffffff60405f2091165f5260205260405f205f8052602052602060405f2054604051908152f35b34610166575f7ffffffffffffffffffffffffffffffffffffffffffffffffffffffffffffffffc3601126101665760206040517fa4771738a4a8d7cf0668efc96ce25cca50d013312cf387bac358f7392cc4d9058152f35b346101665760407ffffffffffffffffffffffffffffffffffffffffffffffffffffffffffffffffc360112610166576102e46004356102a1611754565b906102df6102da825f527f02dd7bc7dec4dceedda775e58dd541e08a116c6c53815c0bd028192f7b626800602052600160405f20015490565b6119ca565b611c49565b005b346101665760207ffffffffffffffffffffffffffffffffffffffffffffffffffffffffffffffffc3601126101665761031d61179a565b7ff0c57e16840df040f15088dc2f81fe391c3923bec73e23a9662efc9c229c6a00549060ff8260401c16159167ffffffffffffffff8116801590816105c0575b60011490816105b6575b1590816105ad575b50610585578260017fffffffffffffffffffffffffffffffffffffffffffffffff00000000000000008316177ff0c57e16840df040f15088dc2f81fe391c3923bec73e23a9662efc9c229c6a0055610530575b5073ffffffffffffffffffffffffffffffffffffffff8116156105085761046e906103eb611dda565b6103f3611dda565b6103fb611dda565b610403611dda565b7fffffffffffffffffffffffffffffffffffffffffffffffffffffffffffffff007fcd5ed15c6e187e77e9aee88184c21f4f2182ab5827cb3b7e07fbedcd63f0330054167fcd5ed15c6e187e77e9aee88184c21f4f2182ab5827cb3b7e07fbedcd63f0330055611a50565b5061047557005b7fffffffffffffffffffffffffffffffffffffffffffffff00ffffffffffffffff7ff0c57e16840df040f15088dc2f81fe391c3923bec73e23a9662efc9c229c6a0054167ff0c57e16840df040f15088dc2f81fe391c3923bec73e23a9662efc9c229c6a00557fc7f505b2f371ae2175ee4913f4499e1f2633a7b5936321eed1cdaeb6115181d2602060405160018152a1005b7fd92e233d000000000000000000000000000000000000000000000000000000005f5260045ffd5b7fffffffffffffffffffffffffffffffffffffffffffffff0000000000000000001668010000000000000001177ff0c57e16840df040f15088dc2f81fe391c3923bec73e23a9662efc9c229c6a0055826103c2565b7ff92ee8a9000000000000000000000000000000000000000000000000000000005f5260045ffd5b9050158461036f565b303b159150610367565b84915061035d565b34610166575f7ffffffffffffffffffffffffffffffffffffffffffffffffffffffffffffffffc360112610166576040805190610605818361183f565b6005825260208201917f352e302e3000000000000000000000000000000000000000000000000000000083527fffffffffffffffffffffffffffffffffffffffffffffffffffffffffffffffe0601f8351948593602085525180918160208701528686015e5f85828601015201168101030190f35b6117bd565b346101665760407ffffffffffffffffffffffffffffffffffffffffffffffffffffffffffffffffc360112610166576004356024356106bc611d51565b6106c4611942565b604051917fa3112a640000000000000000000000000000000000000000000000000000000083528160048401525f836024817342000000000000000000000000000000000000215afa9283156109b6575f93610882575b5082511561085a5767ffffffffffffffff60608401511680151580610846575b610816575067ffffffffffffffff608084015116806107e657507fd378e9e8b10646155b4f486f973c3a140c3c458db0ca7546084e81f7d480023d6040602085019283515f525f60205273ffffffffffffffffffffffffffffffffffffffff80835f209560e08901968280895116165f52602052845f209760c08a019883808b5116165f52602052855f20855f52602052855f205551955116955116955182519182526020820152a4005b83517f0b64def1000000000000000000000000000000000000000000000000000000005f5260045260245260445ffd5b83517f8a1b950b000000000000000000000000000000000000000000000000000000005f5260045260245260445ffd5b5067ffffffffffffffff421681111561073b565b7f6e7910da000000000000000000000000000000000000000000000000000000005f5260045ffd5b9092503d805f833e610894818361183f565b8101906020818303126101665780519067ffffffffffffffff82116101665701906101408282031261016657604051916108cd836117f5565b80518352602081015160208401526108e760408201611da4565b60408401526108f860608201611da4565b606084015261090960808201611da4565b608084015260a081015160a084015261092460c08201611db9565b60c084015261093560e08201611db9565b60e08401526101008101518015158103610166576101008401526101208101519067ffffffffffffffff8211610166570181601f820112156101665780519061097d82611880565b9261098b604051948561183f565b8284526020838301011161016657815f9260208093018386015e83010152610120820152918361071b565b6040513d5f823e3d90fd5b346101665760407ffffffffffffffffffffffffffffffffffffffffffffffffffffffffffffffffc360112610166576109f8611754565b6004355f527f02dd7bc7dec4dceedda775e58dd541e08a116c6c53815c0bd028192f7b62680060205273ffffffffffffffffffffffffffffffffffffffff60405f2091165f52602052602060ff60405f2054166040519015158152f35b34610166575f7ffffffffffffffffffffffffffffffffffffffffffffffffffffffffffffffffc36011261016657610a8b6118ba565b610a93611d51565b60017fffffffffffffffffffffffffffffffffffffffffffffffffffffffffffffff007fcd5ed15c6e187e77e9aee88184c21f4f2182ab5827cb3b7e07fbedcd63f033005416177fcd5ed15c6e187e77e9aee88184c21f4f2182ab5827cb3b7e07fbedcd63f03300557f62e78cea01bee320cd4e420270b5ea74000d11b0c9f74754ebdbfc544b05a2586020604051338152a1005b34610166575f7ffffffffffffffffffffffffffffffffffffffffffffffffffffffffffffffffc36011261016657602060ff7fcd5ed15c6e187e77e9aee88184c21f4f2182ab5827cb3b7e07fbedcd63f0330054166040519015158152f35b34610166575f7ffffffffffffffffffffffffffffffffffffffffffffffffffffffffffffffffc3601126101665773ffffffffffffffffffffffffffffffffffffffff7f0000000000000000000000000000000000000000000000000000000000000000163003610c1c5760206040517f360894a13ba1a3210667c828492db98dca3e2076cc3735a920a3ca505d382bbc8152f35b7fe07c8dba000000000000000000000000000000000000000000000000000000005f5260045ffd5b346101665760207ffffffffffffffffffffffffffffffffffffffffffffffffffffffffffffffffc36011261016657600435610c7e611d51565b610c86611942565b604051907fa3112a640000000000000000000000000000000000000000000000000000000082528060048301525f826024817342000000000000000000000000000000000000215afa9182156109b6575f92610e1c575b5081511561085a5767ffffffffffffffff60608301511680151580610e08575b610dd8575067ffffffffffffffff60808301511680610da857506020820180515f525f6020527fd378e9e8b10646155b4f486f973c3a140c3c458db0ca7546084e81f7d480023d604073ffffffffffffffffffffffffffffffffffffffff80825f209460e08801958280885116165f52602052835f209660c089019783808a5116165f52602052845f205f8052602052845f20555194511694511694518151905f82526020820152a4005b82517f0b64def1000000000000000000000000000000000000000000000000000000005f5260045260245260445ffd5b82517f8a1b950b000000000000000000000000000000000000000000000000000000005f5260045260245260445ffd5b5067ffffffffffffffff4216811115610cfd565b9091503d805f833e610e2e818361183f565b8101906020818303126101665780519067ffffffffffffffff8211610166570190610140828203126101665760405191610e67836117f5565b8051835260208101516020840152610e8160408201611da4565b6040840152610e9260608201611da4565b6060840152610ea360808201611da4565b608084015260a081015160a0840152610ebe60c08201611db9565b60c0840152610ecf60e08201611db9565b60e08401526101008101518015158103610166576101008401526101208101519067ffffffffffffffff8211610166570181601f8201121561016657805190610f1782611880565b92610f25604051948561183f565b8284526020838301011161016657815f9260208093018386015e830101526101208201529082610cdd565b60407ffffffffffffffffffffffffffffffffffffffffffffffffffffffffffffffffc36011261016657610f8261179a565b6024359067ffffffffffffffff8211610166573660238301121561016657816004013590610faf82611880565b91610fbd604051938461183f565b8083526020830193366024838301011161016657815f9260246020930187378401015273ffffffffffffffffffffffffffffffffffffffff7f0000000000000000000000000000000000000000000000000000000000000000168030149081156112ee575b50610c1c57335f9081527f4aa452c26b1f5879475211c49b7e253a8a55d00fef5360177cf61498af6a5749602052604090205460ff161561129e5773ffffffffffffffffffffffffffffffffffffffff8116926040517f52d1902d000000000000000000000000000000000000000000000000000000008152602081600481885afa5f918161126a575b506110dd57847f4c9c8ce3000000000000000000000000000000000000000000000000000000005f5260045260245ffd5b807f360894a13ba1a3210667c828492db98dca3e2076cc3735a920a3ca505d382bbc86920361123f5750823b1561121457807fffffffffffffffffffffffff00000000000000000000000000000000000000007f360894a13ba1a3210667c828492db98dca3e2076cc3735a920a3ca505d382bbc5416177f360894a13ba1a3210667c828492db98dca3e2076cc3735a920a3ca505d382bbc557fbc7cd75a20ee27fd9adebab32041f755214dbc6bffa90cc0225b39da2e5c2d3b5f80a28251156111e2575f80916102e4945190845af43d156111da573d916111be83611880565b926111cc604051948561183f565b83523d5f602085013e611e31565b606091611e31565b505050346111ec57005b7fb398979f000000000000000000000000000000000000000000000000000000005f5260045ffd5b7f4c9c8ce3000000000000000000000000000000000000000000000000000000005f5260045260245ffd5b7faa1d49a4000000000000000000000000000000000000000000000000000000005f5260045260245ffd5b9091506020813d602011611296575b816112866020938361183f565b81010312610166575190866110ac565b3d9150611279565b7fe2517d3f000000000000000000000000000000000000000000000000000000005f52336004527f3916eed0902929784feb1e46ad4564b96fa109b7abea862fab5e29b1799b2e5f60245260445ffd5b905073ffffffffffffffffffffffffffffffffffffffff7f360894a13ba1a3210667c828492db98dca3e2076cc3735a920a3ca505d382bbc5416141584611022565b34610166575f7ffffffffffffffffffffffffffffffffffffffffffffffffffffffffffffffffc360112610166576113666118ba565b7fcd5ed15c6e187e77e9aee88184c21f4f2182ab5827cb3b7e07fbedcd63f033005460ff811615611401577fffffffffffffffffffffffffffffffffffffffffffffffffffffffffffffff00167fcd5ed15c6e187e77e9aee88184c21f4f2182ab5827cb3b7e07fbedcd63f03300557f5db9ee0a495bf2e6ff9c91a7834c1ba4fdd244a5e8aa4e537bd38aeae4b073aa6020604051338152a1005b7f8dfc202b000000000000000000000000000000000000000000000000000000005f5260045ffd5b346101665760407ffffffffffffffffffffffffffffffffffffffffffffffffffffffffffffffffc36011261016657611460611754565b3373ffffffffffffffffffffffffffffffffffffffff821603611489576102e490600435611c49565b7f6697b232000000000000000000000000000000000000000000000000000000005f5260045ffd5b346101665760407ffffffffffffffffffffffffffffffffffffffffffffffffffffffffffffffffc360112610166576102e46004356114ee611754565b906115276102da825f527f02dd7bc7dec4dceedda775e58dd541e08a116c6c53815c0bd028192f7b626800602052600160405f20015490565b611b37565b346101665760207ffffffffffffffffffffffffffffffffffffffffffffffffffffffffffffffffc3601126101665760206115946004355f527f02dd7bc7dec4dceedda775e58dd541e08a116c6c53815c0bd028192f7b626800602052600160405f20015490565b604051908152f35b346101665760807ffffffffffffffffffffffffffffffffffffffffffffffffffffffffffffffffc360112610166576115d3611754565b6115db611777565b906004355f525f60205273ffffffffffffffffffffffffffffffffffffffff60405f2091165f5260205273ffffffffffffffffffffffffffffffffffffffff60405f2091165f5260205260405f206064355f52602052602060405f2054604051908152f35b34610166575f7ffffffffffffffffffffffffffffffffffffffffffffffffffffffffffffffffc3601126101665760206040517f12871cff13e82f1629feba448a7c66e21bef7c90d20deb75fea29020b75d749a8152f35b346101665760207ffffffffffffffffffffffffffffffffffffffffffffffffffffffffffffffffc36011261016657600435907fffffffff00000000000000000000000000000000000000000000000000000000821680920361016657817f7965db0b000000000000000000000000000000000000000000000000000000006020931490811561172a575b5015158152f35b7f01ffc9a70000000000000000000000000000000000000000000000000000000091501483611723565b6024359073ffffffffffffffffffffffffffffffffffffffff8216820361016657565b6044359073ffffffffffffffffffffffffffffffffffffffff8216820361016657565b6004359073ffffffffffffffffffffffffffffffffffffffff8216820361016657565b34610166575f7ffffffffffffffffffffffffffffffffffffffffffffffffffffffffffffffffc3601126101665760206040515f8152f35b610140810190811067ffffffffffffffff82111761181257604052565b7f4e487b71000000000000000000000000000000000000000000000000000000005f52604160045260245ffd5b90601f7fffffffffffffffffffffffffffffffffffffffffffffffffffffffffffffffe0910116810190811067ffffffffffffffff82111761181257604052565b67ffffffffffffffff811161181257601f017fffffffffffffffffffffffffffffffffffffffffffffffffffffffffffffffe01660200190565b335f9081527fb439f20f2a5a46d372ded5b6eaaec19203ba56d2ae2088170eb3946fd4c493c5602052604090205460ff16156118f257565b7fe2517d3f000000000000000000000000000000000000000000000000000000005f52336004527fa4771738a4a8d7cf0668efc96ce25cca50d013312cf387bac358f7392cc4d90560245260445ffd5b335f9081527fdb3fcd69a8f7148953eb40ff759bcf25e10ad767cfcf12584f01bb0b8db4878a602052604090205460ff161561197a57565b7fe2517d3f000000000000000000000000000000000000000000000000000000005f52336004527f12871cff13e82f1629feba448a7c66e21bef7c90d20deb75fea29020b75d749a60245260445ffd5b805f527f02dd7bc7dec4dceedda775e58dd541e08a116c6c53815c0bd028192f7b62680060205260405f2073ffffffffffffffffffffffffffffffffffffffff33165f5260205260ff60405f20541615611a215750565b7fe2517d3f000000000000000000000000000000000000000000000000000000005f523360045260245260445ffd5b73ffffffffffffffffffffffffffffffffffffffff81165f9081527fb7db2dd08fcb62d0c9e08c51941cae53c267786a0b75803fb7960902fc8ef97d602052604090205460ff16611b325773ffffffffffffffffffffffffffffffffffffffff165f8181527fb7db2dd08fcb62d0c9e08c51941cae53c267786a0b75803fb7960902fc8ef97d6020526040812080547fffffffffffffffffffffffffffffffffffffffffffffffffffffffffffffff001660011790553391907f2f8788117e7eff1d82e926ec794901d17c78024a50270940304540a733656f0d8180a4600190565b505f90565b805f527f02dd7bc7dec4dceedda775e58dd541e08a116c6c53815c0bd028192f7b62680060205260405f2073ffffffffffffffffffffffffffffffffffffffff83165f5260205260ff60405f205416155f14611c4357805f527f02dd7bc7dec4dceedda775e58dd541e08a116c6c53815c0bd028192f7b62680060205260405f2073ffffffffffffffffffffffffffffffffffffffff83165f5260205260405f2060017fffffffffffffffffffffffffffffffffffffffffffffffffffffffffffffff0082541617905573ffffffffffffffffffffffffffffffffffffffff339216907f2f8788117e7eff1d82e926ec794901d17c78024a50270940304540a733656f0d5f80a4600190565b50505f90565b805f527f02dd7bc7dec4dceedda775e58dd541e08a116c6c53815c0bd028192f7b62680060205260405f2073ffffffffffffffffffffffffffffffffffffffff83165f5260205260ff60405f2054165f14611c4357805f527f02dd7bc7dec4dceedda775e58dd541e08a116c6c53815c0bd028192f7b62680060205260405f2073ffffffffffffffffffffffffffffffffffffffff83165f5260205260405f207fffffffffffffffffffffffffffffffffffffffffffffffffffffffffffffff00815416905573ffffffffffffffffffffffffffffffffffffffff339216907ff6391f5c32d9c69d2a47ea670b442974b53935d1edc7fd64eb21e047a839171b5f80a4600190565b60ff7fcd5ed15c6e187e77e9aee88184c21f4f2182ab5827cb3b7e07fbedcd63f033005416611d7c57565b7fd93c0665000000000000000000000000000000000000000000000000000000005f5260045ffd5b519067ffffffffffffffff8216820361016657565b519073ffffffffffffffffffffffffffffffffffffffff8216820361016657565b60ff7ff0c57e16840df040f15088dc2f81fe391c3923bec73e23a9662efc9c229c6a005460401c1615611e0957565b7fd7e6bcf8000000000000000000000000000000000000000000000000000000005f5260045ffd5b90611e6e5750805115611e4657805190602001fd5b7fd6bda275000000000000000000000000000000000000000000000000000000005f5260045ffd5b81511580611ec1575b611e7f575090565b73ffffffffffffffffffffffffffffffffffffffff907f9996b315000000000000000000000000000000000000000000000000000000005f521660045260245ffd5b50803b15611e7756fea2646970667358221220486193cf1fd2a976014043b4e38f458ad0652e822fd28f36adab48104ec2897964736f6c634300081c0033f0c57e16840df040f15088dc2f81fe391c3923bec73e23a9662efc9c229c6a00",
        "nonce": "0x5",
        "chainId": "0x164ce"
      },
      "additionalContracts": [],
      "isFixedGasLimit": false
    },
    {
      "hash": "0xe8e0ada573d7c79183d3e870b1da0fa99473837462bf0a0f394a138d8729a594",
      "transactionType": "CREATE",
      "contractName": "ERC1967Proxy",
      "contractAddress": "0x9c9bf29880448ab39795a11b669e22a0f1d790ec",
      "function": null,
      "arguments": [
        "0x25C77d37cA2100b66a5Bf6E21528A0F24E3a7Ecd",
        "0xc4d66de8000000000000000000000000e3fd5228ac2d2c15856959f9e27a4671c5d45958"
      ],
      "transaction": {
        "from": "0x0027b0882c92a1a86c5885fed632667e81e49e5f",
        "gas": "0x3679e",
        "value": "0x0",
        "input": "0x60806040526102a88038038061001481610168565b92833981016040828203126101645781516001600160a01b03811692909190838303610164576020810151906001600160401b03821161016457019281601f8501121561016457835161006e610069826101a1565b610168565b9481865260208601936020838301011161016457815f926020809301865e86010152823b15610152577f360894a13ba1a3210667c828492db98dca3e2076cc3735a920a3ca505d382bbc80546001600160a01b031916821790557fbc7cd75a20ee27fd9adebab32041f755214dbc6bffa90cc0225b39da2e5c2d3b5f80a282511561013a575f8091610122945190845af43d15610132573d91610113610069846101a1565b9283523d5f602085013e6101bc565b505b604051608d908161021b8239f35b6060916101bc565b50505034156101245763b398979f60e01b5f5260045ffd5b634c9c8ce360e01b5f5260045260245ffd5b5f80fd5b6040519190601f01601f191682016001600160401b0381118382101761018d57604052565b634e487b7160e01b5f52604160045260245ffd5b6001600160401b03811161018d57601f01601f191660200190565b906101e057508051156101d157805190602001fd5b63d6bda27560e01b5f5260045ffd5b81511580610211575b6101f1575090565b639996b31560e01b5f9081526001600160a01b0391909116600452602490fd5b50803b156101e956fe60806040525f8073ffffffffffffffffffffffffffffffffffffffff7f360894a13ba1a3210667c828492db98dca3e2076cc3735a920a3ca505d382bbc5416368280378136915af43d5f803e156053573d5ff35b3d5ffdfea264697066735822122023fa31abe8b821721bc98dcd0d14aa90fabb922ce91da6144ff3262e40aa4dd164736f6c634300081c003300000000000000000000000025c77d37ca2100b66a5bf6e21528a0f24e3a7ecd00000000000000000000000000000000000000000000000000000000000000400000000000000000000000000000000000000000000000000000000000000024c4d66de8000000000000000000000000e3fd5228ac2d2c15856959f9e27a4671c5d4595800000000000000000000000000000000000000000000000000000000",
        "nonce": "0x6",
        "chainId": "0x164ce"
      },
      "additionalContracts": [],
      "isFixedGasLimit": false
    },
    {
      "hash": "0x30126fa90985e381d9c31556d073ed8aba51ad2f16945b3e5244d081f3397eff",
      "transactionType": "CREATE",
      "contractName": "AddressDojangResolver",
      "contractAddress": "0x53cc8dfd0a59fe3fa6dd7746231249f47accabef",
      "function": null,
      "arguments": null,
      "transaction": {
        "from": "0x0027b0882c92a1a86c5885fed632667e81e49e5f",
        "gas": "0x1f9433",
        "value": "0x0",
        "input": "0x60a080604052346100c257306080525f516020611c4f5f395f51905f525460ff8160401c166100b3576002600160401b03196001600160401b03821601610060575b604051611b8890816100c78239608051818181610a0e0152610b2d0152f35b6001600160401b0319166001600160401b039081175f516020611c4f5f395f51905f525581527fc7f505b2f371ae2175ee4913f4499e1f2633a7b5936321eed1cdaeb6115181d290602090a15f80610041565b63f92ee8a960e01b5f5260045ffd5b5f80fdfe6080806040526004361015610042575b50361561001a575f80fd5b7f1574f9f3000000000000000000000000000000000000000000000000000000005f5260045ffd5b5f3560e01c90816301ffc9a71461114857508063248a9ca3146110d85780632f2ff15d1461105d57806336568abe14610fd55780633b431e9214610e665780634f1ef28614610a8657806352d1902d146109c957806354fd4d5014610954578063723275531461082757806388e5b2d91461077a57806391d14854146106e657806391db0b7e146106c7578063a217fddf14610257578063ad3cb1cc1461064e578063c4d66de8146103ba578063cc78fef11461028f578063ce46e04614610257578063d547741f146101d5578063e49617e1146101b8578063e60c3505146101915763f72c0d8b14610135575f61000f565b3461018d575f7ffffffffffffffffffffffffffffffffffffffffffffffffffffffffffffffffc36011261018d5760206040517f347b10bd654c535eeb06eaa553d718530c13c1491c49c0fe42cd3fcb18c94ab38152f35b5f80fd5b60206101ae61019f366113db565b6101a761191a565b349061195f565b6040519015158152f35b6101c1366113db565b506101ca61191a565b602060405160018152f35b3461018d5760407ffffffffffffffffffffffffffffffffffffffffffffffffffffffffffffffffc36011261018d57610255600435610212611204565b9061025061024b825f527f02dd7bc7dec4dceedda775e58dd541e08a116c6c53815c0bd028192f7b626800602052600160405f20015490565b611593565b611812565b005b3461018d575f7ffffffffffffffffffffffffffffffffffffffffffffffffffffffffffffffffc36011261018d5760206040515f8152f35b3461018d5760207ffffffffffffffffffffffffffffffffffffffffffffffffffffffffffffffffc36011261018d5773ffffffffffffffffffffffffffffffffffffffff6102db611227565b6102e361152b565b16805f527fd852276f09be10fac28953842991572f8a5e8e0a6613bca011479db2d659a50060205260ff60405f2054161561038f57805f527fd852276f09be10fac28953842991572f8a5e8e0a6613bca011479db2d659a50060205260405f207fffffffffffffffffffffffffffffffffffffffffffffffffffffffffffffff0081541690557f368846ed588a2fb12b4fabffde520ad537df26ea80ad789b60afc37c5cc7fe6b5f80a2005b7fd5c40fc8000000000000000000000000000000000000000000000000000000005f5260045260245ffd5b3461018d5760207ffffffffffffffffffffffffffffffffffffffffffffffffffffffffffffffffc36011261018d576103f1611227565b7ff0c57e16840df040f15088dc2f81fe391c3923bec73e23a9662efc9c229c6a00549060ff8260401c16159167ffffffffffffffff811680159081610646575b600114908161063c575b159081610633575b5061060b578260017fffffffffffffffffffffffffffffffffffffffffffffffff00000000000000008316177ff0c57e16840df040f15088dc2f81fe391c3923bec73e23a9662efc9c229c6a00556105b6575b5073ffffffffffffffffffffffffffffffffffffffff81161561058e576104f4906104bf611a62565b6104c7611a62565b6104cf611a62565b6104d7611a62565b6104df611a62565b6104e7611a62565b6104ef611a62565b611619565b506104fb57005b7fffffffffffffffffffffffffffffffffffffffffffffff00ffffffffffffffff7ff0c57e16840df040f15088dc2f81fe391c3923bec73e23a9662efc9c229c6a0054167ff0c57e16840df040f15088dc2f81fe391c3923bec73e23a9662efc9c229c6a00557fc7f505b2f371ae2175ee4913f4499e1f2633a7b5936321eed1cdaeb6115181d2602060405160018152a1005b7fd92e233d000000000000000000000000000000000000000000000000000000005f5260045ffd5b7fffffffffffffffffffffffffffffffffffffffffffffff0000000000000000001668010000000000000001177ff0c57e16840df040f15088dc2f81fe391c3923bec73e23a9662efc9c229c6a005582610496565b7ff92ee8a9000000000000000000000000000000000000000000000000000000005f5260045ffd5b90501584610443565b303b15915061043b565b849150610431565b3461018d575f7ffffffffffffffffffffffffffffffffffffffffffffffffffffffffffffffffc36011261018d576106c360405161068d60408261124a565b600581527f352e302e300000000000000000000000000000000000000000000000000000006020820152604051918291826112f2565b0390f35b60206101ae6106d53661136b565b926106e192919261191a565b6114c8565b3461018d5760407ffffffffffffffffffffffffffffffffffffffffffffffffffffffffffffffffc36011261018d5761071d611204565b6004355f527f02dd7bc7dec4dceedda775e58dd541e08a116c6c53815c0bd028192f7b62680060205273ffffffffffffffffffffffffffffffffffffffff60405f2091165f52602052602060ff60405f2054166040519015158152f35b6107833661136b565b61078e92919261191a565b8082036107ff575f90345b8383106107ac5760405160018152602090f35b6107b783838761144b565b358181116107d7576001916107cd85878a611488565b5003920191610799565b7f11011294000000000000000000000000000000000000000000000000000000005f5260045ffd5b7f947d5a84000000000000000000000000000000000000000000000000000000005f5260045ffd5b3461018d5760207ffffffffffffffffffffffffffffffffffffffffffffffffffffffffffffffffc36011261018d5773ffffffffffffffffffffffffffffffffffffffff610873611227565b61087b61152b565b16805f527fd852276f09be10fac28953842991572f8a5e8e0a6613bca011479db2d659a50060205260ff60405f20541661092957805f527fd852276f09be10fac28953842991572f8a5e8e0a6613bca011479db2d659a50060205260405f2060017fffffffffffffffffffffffffffffffffffffffffffffffffffffffffffffff008254161790557f84c8e535ea2c772fdcaab7fd1c78efb11d06931c5d61fd4b75fbff891da9cc005f80a2005b7f797f004b000000000000000000000000000000000000000000000000000000005f5260045260245ffd5b3461018d575f7ffffffffffffffffffffffffffffffffffffffffffffffffffffffffffffffffc36011261018d576106c360405161099360408261124a565b600581527f302e312e300000000000000000000000000000000000000000000000000000006020820152604051918291826112f2565b3461018d575f7ffffffffffffffffffffffffffffffffffffffffffffffffffffffffffffffffc36011261018d5773ffffffffffffffffffffffffffffffffffffffff7f0000000000000000000000000000000000000000000000000000000000000000163003610a5e5760206040517f360894a13ba1a3210667c828492db98dca3e2076cc3735a920a3ca505d382bbc8152f35b7fe07c8dba000000000000000000000000000000000000000000000000000000005f5260045ffd5b60407ffffffffffffffffffffffffffffffffffffffffffffffffffffffffffffffffc36011261018d57610ab8611227565b6024359067ffffffffffffffff821161018d573660238301121561018d57816004013590610ae5826112b8565b91610af3604051938461124a565b8083526020830193366024838301011161018d57815f9260246020930187378401015273ffffffffffffffffffffffffffffffffffffffff7f000000000000000000000000000000000000000000000000000000000000000016803014908115610e24575b50610a5e57335f9081527f01016a2b5e12fc65183c4e83a9faafbd74c9084cc7ebcbd4f1057a2c09d9f3e8602052604090205460ff1615610dd45773ffffffffffffffffffffffffffffffffffffffff8116926040517f52d1902d000000000000000000000000000000000000000000000000000000008152602081600481885afa5f9181610da0575b50610c1357847f4c9c8ce3000000000000000000000000000000000000000000000000000000005f5260045260245ffd5b807f360894a13ba1a3210667c828492db98dca3e2076cc3735a920a3ca505d382bbc869203610d755750823b15610d4a57807fffffffffffffffffffffffff00000000000000000000000000000000000000007f360894a13ba1a3210667c828492db98dca3e2076cc3735a920a3ca505d382bbc5416177f360894a13ba1a3210667c828492db98dca3e2076cc3735a920a3ca505d382bbc557fbc7cd75a20ee27fd9adebab32041f755214dbc6bffa90cc0225b39da2e5c2d3b5f80a2825115610d18575f8091610255945190845af43d15610d10573d91610cf4836112b8565b92610d02604051948561124a565b83523d5f602085013e611ab9565b606091611ab9565b50505034610d2257005b7fb398979f000000000000000000000000000000000000000000000000000000005f5260045ffd5b7f4c9c8ce3000000000000000000000000000000000000000000000000000000005f5260045260245ffd5b7faa1d49a4000000000000000000000000000000000000000000000000000000005f5260045260245ffd5b9091506020813d602011610dcc575b81610dbc6020938361124a565b8101031261018d57519086610be2565b3d9150610daf565b7fe2517d3f000000000000000000000000000000000000000000000000000000005f52336004527f347b10bd654c535eeb06eaa553d718530c13c1491c49c0fe42cd3fcb18c94ab360245260445ffd5b905073ffffffffffffffffffffffffffffffffffffffff7f360894a13ba1a3210667c828492db98dca3e2076cc3735a920a3ca505d382bbc5416141584610b58565b3461018d5760207ffffffffffffffffffffffffffffffffffffffffffffffffffffffffffffffffc36011261018d5773ffffffffffffffffffffffffffffffffffffffff610eb2611227565b610eba61152b565b1680158015610f95575b610f6d5773ffffffffffffffffffffffffffffffffffffffff7f865ef45a81b5ea8104b3058e4b7c920da617ffc76b0f193f84980e2e5fb3cf0054827fffffffffffffffffffffffff00000000000000000000000000000000000000008216177f865ef45a81b5ea8104b3058e4b7c920da617ffc76b0f193f84980e2e5fb3cf0055167fdf6a4c0e90a44c131ffe0dbf3a01863d23b8d807746d5342bf774d7bbf92207c5f80a3005b7fddee2104000000000000000000000000000000000000000000000000000000005f5260045ffd5b5073ffffffffffffffffffffffffffffffffffffffff7f865ef45a81b5ea8104b3058e4b7c920da617ffc76b0f193f84980e2e5fb3cf0054168114610ec4565b3461018d5760407ffffffffffffffffffffffffffffffffffffffffffffffffffffffffffffffffc36011261018d5761100c611204565b3373ffffffffffffffffffffffffffffffffffffffff8216036110355761025590600435611812565b7f6697b232000000000000000000000000000000000000000000000000000000005f5260045ffd5b3461018d5760407ffffffffffffffffffffffffffffffffffffffffffffffffffffffffffffffffc36011261018d5761025560043561109a611204565b906110d361024b825f527f02dd7bc7dec4dceedda775e58dd541e08a116c6c53815c0bd028192f7b626800602052600160405f20015490565b611700565b3461018d5760207ffffffffffffffffffffffffffffffffffffffffffffffffffffffffffffffffc36011261018d5760206111406004355f527f02dd7bc7dec4dceedda775e58dd541e08a116c6c53815c0bd028192f7b626800602052600160405f20015490565b604051908152f35b3461018d5760207ffffffffffffffffffffffffffffffffffffffffffffffffffffffffffffffffc36011261018d57600435907fffffffff00000000000000000000000000000000000000000000000000000000821680920361018d57817f7965db0b00000000000000000000000000000000000000000000000000000000602093149081156111da575b5015158152f35b7f01ffc9a700000000000000000000000000000000000000000000000000000000915014836111d3565b6024359073ffffffffffffffffffffffffffffffffffffffff8216820361018d57565b6004359073ffffffffffffffffffffffffffffffffffffffff8216820361018d57565b90601f7fffffffffffffffffffffffffffffffffffffffffffffffffffffffffffffffe0910116810190811067ffffffffffffffff82111761128b57604052565b7f4e487b71000000000000000000000000000000000000000000000000000000005f52604160045260245ffd5b67ffffffffffffffff811161128b57601f017fffffffffffffffffffffffffffffffffffffffffffffffffffffffffffffffe01660200190565b7fffffffffffffffffffffffffffffffffffffffffffffffffffffffffffffffe0601f602060409481855280519182918282880152018686015e5f8582860101520116010190565b9181601f8401121561018d5782359167ffffffffffffffff831161018d576020808501948460051b01011161018d57565b60407ffffffffffffffffffffffffffffffffffffffffffffffffffffffffffffffffc82011261018d5760043567ffffffffffffffff811161018d57816113b49160040161133a565b929092916024359067ffffffffffffffff821161018d576113d79160040161133a565b9091565b60207ffffffffffffffffffffffffffffffffffffffffffffffffffffffffffffffffc82011261018d576004359067ffffffffffffffff821161018d577ffffffffffffffffffffffffffffffffffffffffffffffffffffffffffffffffc826101409203011261018d5760040190565b919081101561145b5760051b0190565b7f4e487b71000000000000000000000000000000000000000000000000000000005f52603260045260245ffd5b919081101561145b5760051b810135907ffffffffffffffffffffffffffffffffffffffffffffffffffffffffffffffec18136030182121561018d570190565b9192908181036107ff575f91345b8284106114e857505050505050600190565b6114f384838861144b565b358181116107d75761150f8161150a87878a611488565b61195f565b1561152057600191039301926114d6565b505050505050505f90565b335f9081527fb7db2dd08fcb62d0c9e08c51941cae53c267786a0b75803fb7960902fc8ef97d602052604090205460ff161561156357565b7fe2517d3f000000000000000000000000000000000000000000000000000000005f52336004525f60245260445ffd5b805f527f02dd7bc7dec4dceedda775e58dd541e08a116c6c53815c0bd028192f7b62680060205260405f2073ffffffffffffffffffffffffffffffffffffffff33165f5260205260ff60405f205416156115ea5750565b7fe2517d3f000000000000000000000000000000000000000000000000000000005f523360045260245260445ffd5b73ffffffffffffffffffffffffffffffffffffffff81165f9081527fb7db2dd08fcb62d0c9e08c51941cae53c267786a0b75803fb7960902fc8ef97d602052604090205460ff166116fb5773ffffffffffffffffffffffffffffffffffffffff165f8181527fb7db2dd08fcb62d0c9e08c51941cae53c267786a0b75803fb7960902fc8ef97d6020526040812080547fffffffffffffffffffffffffffffffffffffffffffffffffffffffffffffff001660011790553391907f2f8788117e7eff1d82e926ec794901d17c78024a50270940304540a733656f0d8180a4600190565b505f90565b805f527f02dd7bc7dec4dceedda775e58dd541e08a116c6c53815c0bd028192f7b62680060205260405f2073ffffffffffffffffffffffffffffffffffffffff83165f5260205260ff60405f205416155f1461180c57805f527f02dd7bc7dec4dceedda775e58dd541e08a116c6c53815c0bd028192f7b62680060205260405f2073ffffffffffffffffffffffffffffffffffffffff83165f5260205260405f2060017fffffffffffffffffffffffffffffffffffffffffffffffffffffffffffffff0082541617905573ffffffffffffffffffffffffffffffffffffffff339216907f2f8788117e7eff1d82e926ec794901d17c78024a50270940304540a733656f0d5f80a4600190565b50505f90565b805f527f02dd7bc7dec4dceedda775e58dd541e08a116c6c53815c0bd028192f7b62680060205260405f2073ffffffffffffffffffffffffffffffffffffffff83165f5260205260ff60405f2054165f1461180c57805f527f02dd7bc7dec4dceedda775e58dd541e08a116c6c53815c0bd028192f7b62680060205260405f2073ffffffffffffffffffffffffffffffffffffffff83165f5260205260405f207fffffffffffffffffffffffffffffffffffffffffffffffffffffffffffffff00815416905573ffffffffffffffffffffffffffffffffffffffff339216907ff6391f5c32d9c69d2a47ea670b442974b53935d1edc7fd64eb21e047a839171b5f80a4600190565b734200000000000000000000000000000000000021330361193757565b7f4ca88867000000000000000000000000000000000000000000000000000000005f5260045ffd5b905060e081013573ffffffffffffffffffffffffffffffffffffffff811680910361018d575f527fd852276f09be10fac28953842991572f8a5e8e0a6613bca011479db2d659a50060205260ff60405f20541690816119bc575090565b7f865ef45a81b5ea8104b3058e4b7c920da617ffc76b0f193f84980e2e5fb3cf005473ffffffffffffffffffffffffffffffffffffffff169150813b1561018d575f916024839260405194859384927f5250fec70000000000000000000000000000000000000000000000000000000084523560048401525af18015611a5757611a47575b50600190565b5f611a519161124a565b5f611a41565b6040513d5f823e3d90fd5b60ff7ff0c57e16840df040f15088dc2f81fe391c3923bec73e23a9662efc9c229c6a005460401c1615611a9157565b7fd7e6bcf8000000000000000000000000000000000000000000000000000000005f5260045ffd5b90611af65750805115611ace57805190602001fd5b7fd6bda275000000000000000000000000000000000000000000000000000000005f5260045ffd5b81511580611b49575b611b07575090565b73ffffffffffffffffffffffffffffffffffffffff907f9996b315000000000000000000000000000000000000000000000000000000005f521660045260245ffd5b50803b15611aff56fea2646970667358221220addb2ee80daf4285ecedf8cd4ebcfbed3f39267327e0dadaef7eb01da3334d5e64736f6c634300081c0033f0c57e16840df040f15088dc2f81fe391c3923bec73e23a9662efc9c229c6a00",
        "nonce": "0x7",
        "chainId": "0x164ce"
      },
      "additionalContracts": [],
      "isFixedGasLimit": false
    },
    {
      "hash": "0x2dbaa5da3a4d177b8bb2895b018c79f41c98cf15e4d7834506b57de6ef998b91",
      "transactionType": "CREATE",
      "contractName": "ERC1967Proxy",
      "contractAddress": "0x692009fe206c3f897867f6bf7b5b45506b747f9e",
      "function": null,
      "arguments": [
        "0x53cc8Dfd0a59fE3fa6DD7746231249f47acCabEF",
        "0xc4d66de8000000000000000000000000e3fd5228ac2d2c15856959f9e27a4671c5d45958"
      ],
      "transaction": {
        "from": "0x0027b0882c92a1a86c5885fed632667e81e49e5f",
        "gas": "0x35e79",
        "value": "0x0",
        "input": "0x60806040526102a88038038061001481610168565b92833981016040828203126101645781516001600160a01b03811692909190838303610164576020810151906001600160401b03821161016457019281601f8501121561016457835161006e610069826101a1565b610168565b9481865260208601936020838301011161016457815f926020809301865e86010152823b15610152577f360894a13ba1a3210667c828492db98dca3e2076cc3735a920a3ca505d382bbc80546001600160a01b031916821790557fbc7cd75a20ee27fd9adebab32041f755214dbc6bffa90cc0225b39da2e5c2d3b5f80a282511561013a575f8091610122945190845af43d15610132573d91610113610069846101a1565b9283523d5f602085013e6101bc565b505b604051608d908161021b8239f35b6060916101bc565b50505034156101245763b398979f60e01b5f5260045ffd5b634c9c8ce360e01b5f5260045260245ffd5b5f80fd5b6040519190601f01601f191682016001600160401b0381118382101761018d57604052565b634e487b7160e01b5f52604160045260245ffd5b6001600160401b03811161018d57601f01601f191660200190565b906101e057508051156101d157805190602001fd5b63d6bda27560e01b5f5260045ffd5b81511580610211575b6101f1575090565b639996b31560e01b5f9081526001600160a01b0391909116600452602490fd5b50803b156101e956fe60806040525f8073ffffffffffffffffffffffffffffffffffffffff7f360894a13ba1a3210667c828492db98dca3e2076cc3735a920a3ca505d382bbc5416368280378136915af43d5f803e156053573d5ff35b3d5ffdfea264697066735822122023fa31abe8b821721bc98dcd0d14aa90fabb922ce91da6144ff3262e40aa4dd164736f6c634300081c003300000000000000000000000053cc8dfd0a59fe3fa6dd7746231249f47accabef00000000000000000000000000000000000000000000000000000000000000400000000000000000000000000000000000000000000000000000000000000024c4d66de8000000000000000000000000e3fd5228ac2d2c15856959f9e27a4671c5d4595800000000000000000000000000000000000000000000000000000000",
        "nonce": "0x8",
        "chainId": "0x164ce"
      },
      "additionalContracts": [],
      "isFixedGasLimit": false
    },
    {
      "hash": "0x509b91474333fc676d89b0952bff7e4922bdbdfeff1a47a856a9ac71383579eb",
      "transactionType": "CREATE",
      "contractName": "BalanceDojangResolver",
      "contractAddress": "0x3ef42bafca751eaa51369666498b9ecea4f0ff30",
      "function": null,
      "arguments": null,
      "transaction": {
        "from": "0x0027b0882c92a1a86c5885fed632667e81e49e5f",
        "gas": "0x20c477",
        "value": "0x0",
        "input": "0x60a080604052346100c257306080525f516020611d645f395f51905f525460ff8160401c166100b3576002600160401b03196001600160401b03821601610060575b604051611c9d90816100c78239608051818181610a1e0152610b3d0152f35b6001600160401b0319166001600160401b039081175f516020611d645f395f51905f525581527fc7f505b2f371ae2175ee4913f4499e1f2633a7b5936321eed1cdaeb6115181d290602090a15f80610041565b63f92ee8a960e01b5f5260045ffd5b5f80fdfe6080806040526004361015610042575b50361561001a575f80fd5b7f1574f9f3000000000000000000000000000000000000000000000000000000005f5260045ffd5b5f3560e01c90816301ffc9a71461115857508063248a9ca3146110e85780632f2ff15d1461106d57806336568abe14610fe55780633b431e9214610e765780634f1ef28614610a9657806352d1902d146109d957806354fd4d5014610964578063723275531461083757806388e5b2d91461078a57806391d14854146106f657806391db0b7e146106d7578063a217fddf14610257578063ad3cb1cc1461065e578063c4d66de8146103ba578063cc78fef11461028f578063ce46e04614610257578063d547741f146101d5578063e49617e1146101b8578063e60c3505146101915763f72c0d8b14610135575f61000f565b3461018d575f7ffffffffffffffffffffffffffffffffffffffffffffffffffffffffffffffffc36011261018d5760206040517f8421c86537ca8724814af8dd9a3536c8129b6f4ebed2c873a3cb4c7f1ef851b18152f35b5f80fd5b60206101ae61019f366113eb565b6101a761192a565b349061196f565b6040519015158152f35b6101c1366113eb565b506101ca61192a565b602060405160018152f35b3461018d5760407ffffffffffffffffffffffffffffffffffffffffffffffffffffffffffffffffc36011261018d57610255600435610212611214565b9061025061024b825f527f02dd7bc7dec4dceedda775e58dd541e08a116c6c53815c0bd028192f7b626800602052600160405f20015490565b6115a3565b611822565b005b3461018d575f7ffffffffffffffffffffffffffffffffffffffffffffffffffffffffffffffffc36011261018d5760206040515f8152f35b3461018d5760207ffffffffffffffffffffffffffffffffffffffffffffffffffffffffffffffffc36011261018d5773ffffffffffffffffffffffffffffffffffffffff6102db611237565b6102e361153b565b16805f527fd852276f09be10fac28953842991572f8a5e8e0a6613bca011479db2d659a50060205260ff60405f2054161561038f57805f527fd852276f09be10fac28953842991572f8a5e8e0a6613bca011479db2d659a50060205260405f207fffffffffffffffffffffffffffffffffffffffffffffffffffffffffffffff0081541690557f368846ed588a2fb12b4fabffde520ad537df26ea80ad789b60afc37c5cc7fe6b5f80a2005b7fd5c40fc8000000000000000000000000000000000000000000000000000000005f5260045260245ffd5b3461018d5760207ffffffffffffffffffffffffffffffffffffffffffffffffffffffffffffffffc36011261018d576103f1611237565b7ff0c57e16840df040f15088dc2f81fe391c3923bec73e23a9662efc9c229c6a00549060ff8260401c16159167ffffffffffffffff811680159081610656575b600114908161064c575b159081610643575b5061061b578260017fffffffffffffffffffffffffffffffffffffffffffffffff00000000000000008316177ff0c57e16840df040f15088dc2f81fe391c3923bec73e23a9662efc9c229c6a00556105c6575b5073ffffffffffffffffffffffffffffffffffffffff81161561059e57610504906104bf611b77565b6104c7611b77565b6104cf611b77565b6104d7611b77565b6104df611b77565b6104e7611b77565b6104ef611b77565b6104f7611b77565b6104ff611b77565b611629565b5061050b57005b7fffffffffffffffffffffffffffffffffffffffffffffff00ffffffffffffffff7ff0c57e16840df040f15088dc2f81fe391c3923bec73e23a9662efc9c229c6a0054167ff0c57e16840df040f15088dc2f81fe391c3923bec73e23a9662efc9c229c6a00557fc7f505b2f371ae2175ee4913f4499e1f2633a7b5936321eed1cdaeb6115181d2602060405160018152a1005b7fd92e233d000000000000000000000000000000000000000000000000000000005f5260045ffd5b7fffffffffffffffffffffffffffffffffffffffffffffff0000000000000000001668010000000000000001177ff0c57e16840df040f15088dc2f81fe391c3923bec73e23a9662efc9c229c6a005582610496565b7ff92ee8a9000000000000000000000000000000000000000000000000000000005f5260045ffd5b90501584610443565b303b15915061043b565b849150610431565b3461018d575f7ffffffffffffffffffffffffffffffffffffffffffffffffffffffffffffffffc36011261018d576106d360405161069d60408261125a565b600581527f352e302e30000000000000000000000000000000000000000000000000000000602082015260405191829182611302565b0390f35b60206101ae6106e53661137b565b926106f192919261192a565b6114d8565b3461018d5760407ffffffffffffffffffffffffffffffffffffffffffffffffffffffffffffffffc36011261018d5761072d611214565b6004355f527f02dd7bc7dec4dceedda775e58dd541e08a116c6c53815c0bd028192f7b62680060205273ffffffffffffffffffffffffffffffffffffffff60405f2091165f52602052602060ff60405f2054166040519015158152f35b6107933661137b565b61079e92919261192a565b80820361080f575f90345b8383106107bc5760405160018152602090f35b6107c783838761145b565b358181116107e7576001916107dd85878a611498565b50039201916107a9565b7f11011294000000000000000000000000000000000000000000000000000000005f5260045ffd5b7f947d5a84000000000000000000000000000000000000000000000000000000005f5260045ffd5b3461018d5760207ffffffffffffffffffffffffffffffffffffffffffffffffffffffffffffffffc36011261018d5773ffffffffffffffffffffffffffffffffffffffff610883611237565b61088b61153b565b16805f527fd852276f09be10fac28953842991572f8a5e8e0a6613bca011479db2d659a50060205260ff60405f20541661093957805f527fd852276f09be10fac28953842991572f8a5e8e0a6613bca011479db2d659a50060205260405f2060017fffffffffffffffffffffffffffffffffffffffffffffffffffffffffffffff008254161790557f84c8e535ea2c772fdcaab7fd1c78efb11d06931c5d61fd4b75fbff891da9cc005f80a2005b7f797f004b000000000000000000000000000000000000000000000000000000005f5260045260245ffd5b3461018d575f7ffffffffffffffffffffffffffffffffffffffffffffffffffffffffffffffffc36011261018d576106d36040516109a360408261125a565b600581527f302e312e30000000000000000000000000000000000000000000000000000000602082015260405191829182611302565b3461018d575f7ffffffffffffffffffffffffffffffffffffffffffffffffffffffffffffffffc36011261018d5773ffffffffffffffffffffffffffffffffffffffff7f0000000000000000000000000000000000000000000000000000000000000000163003610a6e5760206040517f360894a13ba1a3210667c828492db98dca3e2076cc3735a920a3ca505d382bbc8152f35b7fe07c8dba000000000000000000000000000000000000000000000000000000005f5260045ffd5b60407ffffffffffffffffffffffffffffffffffffffffffffffffffffffffffffffffc36011261018d57610ac8611237565b6024359067ffffffffffffffff821161018d573660238301121561018d57816004013590610af5826112c8565b91610b03604051938461125a565b8083526020830193366024838301011161018d57815f9260246020930187378401015273ffffffffffffffffffffffffffffffffffffffff7f000000000000000000000000000000000000000000000000000000000000000016803014908115610e34575b50610a6e57335f9081527fa59e0aacf128413a4d5ffa6c6412cdf840f3602520f22c756745e1611cc38f2e602052604090205460ff1615610de45773ffffffffffffffffffffffffffffffffffffffff8116926040517f52d1902d000000000000000000000000000000000000000000000000000000008152602081600481885afa5f9181610db0575b50610c2357847f4c9c8ce3000000000000000000000000000000000000000000000000000000005f5260045260245ffd5b807f360894a13ba1a3210667c828492db98dca3e2076cc3735a920a3ca505d382bbc869203610d855750823b15610d5a57807fffffffffffffffffffffffff00000000000000000000000000000000000000007f360894a13ba1a3210667c828492db98dca3e2076cc3735a920a3ca505d382bbc5416177f360894a13ba1a3210667c828492db98dca3e2076cc3735a920a3ca505d382bbc557fbc7cd75a20ee27fd9adebab32041f755214dbc6bffa90cc0225b39da2e5c2d3b5f80a2825115610d28575f8091610255945190845af43d15610d20573d91610d04836112c8565b92610d12604051948561125a565b83523d5f602085013e611bce565b606091611bce565b50505034610d3257005b7fb398979f000000000000000000000000000000000000000000000000000000005f5260045ffd5b7f4c9c8ce3000000000000000000000000000000000000000000000000000000005f5260045260245ffd5b7faa1d49a4000000000000000000000000000000000000000000000000000000005f5260045260245ffd5b9091506020813d602011610ddc575b81610dcc6020938361125a565b8101031261018d57519086610bf2565b3d9150610dbf565b7fe2517d3f000000000000000000000000000000000000000000000000000000005f52336004527f8421c86537ca8724814af8dd9a3536c8129b6f4ebed2c873a3cb4c7f1ef851b160245260445ffd5b905073ffffffffffffffffffffffffffffffffffffffff7f360894a13ba1a3210667c828492db98dca3e2076cc3735a920a3ca505d382bbc5416141584610b68565b3461018d5760207ffffffffffffffffffffffffffffffffffffffffffffffffffffffffffffffffc36011261018d5773ffffffffffffffffffffffffffffffffffffffff610ec2611237565b610eca61153b565b1680158015610fa5575b610f7d5773ffffffffffffffffffffffffffffffffffffffff7f1daeb03bc251932f84305b1d992090c50f663b400469e848b99f0e227fbdb20054827fffffffffffffffffffffffff00000000000000000000000000000000000000008216177f1daeb03bc251932f84305b1d992090c50f663b400469e848b99f0e227fbdb20055167fdf6a4c0e90a44c131ffe0dbf3a01863d23b8d807746d5342bf774d7bbf92207c5f80a3005b7fddee2104000000000000000000000000000000000000000000000000000000005f5260045ffd5b5073ffffffffffffffffffffffffffffffffffffffff7f1daeb03bc251932f84305b1d992090c50f663b400469e848b99f0e227fbdb20054168114610ed4565b3461018d5760407ffffffffffffffffffffffffffffffffffffffffffffffffffffffffffffffffc36011261018d5761101c611214565b3373ffffffffffffffffffffffffffffffffffffffff8216036110455761025590600435611822565b7f6697b232000000000000000000000000000000000000000000000000000000005f5260045ffd5b3461018d5760407ffffffffffffffffffffffffffffffffffffffffffffffffffffffffffffffffc36011261018d576102556004356110aa611214565b906110e361024b825f527f02dd7bc7dec4dceedda775e58dd541e08a116c6c53815c0bd028192f7b626800602052600160405f20015490565b611710565b3461018d5760207ffffffffffffffffffffffffffffffffffffffffffffffffffffffffffffffffc36011261018d5760206111506004355f527f02dd7bc7dec4dceedda775e58dd541e08a116c6c53815c0bd028192f7b626800602052600160405f20015490565b604051908152f35b3461018d5760207ffffffffffffffffffffffffffffffffffffffffffffffffffffffffffffffffc36011261018d57600435907fffffffff00000000000000000000000000000000000000000000000000000000821680920361018d57817f7965db0b00000000000000000000000000000000000000000000000000000000602093149081156111ea575b5015158152f35b7f01ffc9a700000000000000000000000000000000000000000000000000000000915014836111e3565b6024359073ffffffffffffffffffffffffffffffffffffffff8216820361018d57565b6004359073ffffffffffffffffffffffffffffffffffffffff8216820361018d57565b90601f7fffffffffffffffffffffffffffffffffffffffffffffffffffffffffffffffe0910116810190811067ffffffffffffffff82111761129b57604052565b7f4e487b71000000000000000000000000000000000000000000000000000000005f52604160045260245ffd5b67ffffffffffffffff811161129b57601f017fffffffffffffffffffffffffffffffffffffffffffffffffffffffffffffffe01660200190565b7fffffffffffffffffffffffffffffffffffffffffffffffffffffffffffffffe0601f602060409481855280519182918282880152018686015e5f8582860101520116010190565b9181601f8401121561018d5782359167ffffffffffffffff831161018d576020808501948460051b01011161018d57565b60407ffffffffffffffffffffffffffffffffffffffffffffffffffffffffffffffffc82011261018d5760043567ffffffffffffffff811161018d57816113c49160040161134a565b929092916024359067ffffffffffffffff821161018d576113e79160040161134a565b9091565b60207ffffffffffffffffffffffffffffffffffffffffffffffffffffffffffffffffc82011261018d576004359067ffffffffffffffff821161018d577ffffffffffffffffffffffffffffffffffffffffffffffffffffffffffffffffc826101409203011261018d5760040190565b919081101561146b5760051b0190565b7f4e487b71000000000000000000000000000000000000000000000000000000005f52603260045260245ffd5b919081101561146b5760051b810135907ffffffffffffffffffffffffffffffffffffffffffffffffffffffffffffffec18136030182121561018d570190565b91929081810361080f575f91345b8284106114f857505050505050600190565b61150384838861145b565b358181116107e75761151f8161151a87878a611498565b61196f565b1561153057600191039301926114e6565b505050505050505f90565b335f9081527fb7db2dd08fcb62d0c9e08c51941cae53c267786a0b75803fb7960902fc8ef97d602052604090205460ff161561157357565b7fe2517d3f000000000000000000000000000000000000000000000000000000005f52336004525f60245260445ffd5b805f527f02dd7bc7dec4dceedda775e58dd541e08a116c6c53815c0bd028192f7b62680060205260405f2073ffffffffffffffffffffffffffffffffffffffff33165f5260205260ff60405f205416156115fa5750565b7fe2517d3f000000000000000000000000000000000000000000000000000000005f523360045260245260445ffd5b73ffffffffffffffffffffffffffffffffffffffff81165f9081527fb7db2dd08fcb62d0c9e08c51941cae53c267786a0b75803fb7960902fc8ef97d602052604090205460ff1661170b5773ffffffffffffffffffffffffffffffffffffffff165f8181527fb7db2dd08fcb62d0c9e08c51941cae53c267786a0b75803fb7960902fc8ef97d6020526040812080547fffffffffffffffffffffffffffffffffffffffffffffffffffffffffffffff001660011790553391907f2f8788117e7eff1d82e926ec794901d17c78024a50270940304540a733656f0d8180a4600190565b505f90565b805f527f02dd7bc7dec4dceedda775e58dd541e08a116c6c53815c0bd028192f7b62680060205260405f2073ffffffffffffffffffffffffffffffffffffffff83165f5260205260ff60405f205416155f1461181c57805f527f02dd7bc7dec4dceedda775e58dd541e08a116c6c53815c0bd028192f7b62680060205260405f2073ffffffffffffffffffffffffffffffffffffffff83165f5260205260405f2060017fffffffffffffffffffffffffffffffffffffffffffffffffffffffffffffff0082541617905573ffffffffffffffffffffffffffffffffffffffff339216907f2f8788117e7eff1d82e926ec794901d17c78024a50270940304540a733656f0d5f80a4600190565b50505f90565b805f527f02dd7bc7dec4dceedda775e58dd541e08a116c6c53815c0bd028192f7b62680060205260405f2073ffffffffffffffffffffffffffffffffffffffff83165f5260205260ff60405f2054165f1461181c57805f527f02dd7bc7dec4dceedda775e58dd541e08a116c6c53815c0bd028192f7b62680060205260405f2073ffffffffffffffffffffffffffffffffffffffff83165f5260205260405f207fffffffffffffffffffffffffffffffffffffffffffffffffffffffffffffff00815416905573ffffffffffffffffffffffffffffffffffffffff339216907ff6391f5c32d9c69d2a47ea670b442974b53935d1edc7fd64eb21e047a839171b5f80a4600190565b734200000000000000000000000000000000000021330361194757565b7f4ca88867000000000000000000000000000000000000000000000000000000005f5260045ffd5b6101208101915061198b6119838383611aff565b810190611b50565b9290601f1c159283611ae7575b5082611a8e575b826119a957505090565b819250611983906119b992611aff565b67ffffffffffffffff6040519160208301938452166040820152604081526119e260608261125a565b51902073ffffffffffffffffffffffffffffffffffffffff7f1daeb03bc251932f84305b1d992090c50f663b400469e848b99f0e227fbdb200541691823b1561018d5760445f928360405195869485937f9b1a175f00000000000000000000000000000000000000000000000000000000855260048501523560248401525af18015611a8357611a73575b50600190565b5f611a7d9161125a565b5f611a6d565b6040513d5f823e3d90fd5b915060e081013573ffffffffffffffffffffffffffffffffffffffff811680910361018d575f527fd852276f09be10fac28953842991572f8a5e8e0a6613bca011479db2d659a50060205260ff60405f2054169161199f565b67ffffffffffffffff4281169116111592505f611998565b9035907fffffffffffffffffffffffffffffffffffffffffffffffffffffffffffffffe18136030182121561018d570180359067ffffffffffffffff821161018d5760200191813603831361018d57565b919082604091031261018d576020823592013567ffffffffffffffff8116810361018d5790565b60ff7ff0c57e16840df040f15088dc2f81fe391c3923bec73e23a9662efc9c229c6a005460401c1615611ba657565b7fd7e6bcf8000000000000000000000000000000000000000000000000000000005f5260045ffd5b90611c0b5750805115611be357805190602001fd5b7fd6bda275000000000000000000000000000000000000000000000000000000005f5260045ffd5b81511580611c5e575b611c1c575090565b73ffffffffffffffffffffffffffffffffffffffff907f9996b315000000000000000000000000000000000000000000000000000000005f521660045260245ffd5b50803b15611c1456fea26469706673582212209f994035a91875303cf2b5c1780113d6e85c3bf393e797c6291d6e416aecad4664736f6c634300081c0033f0c57e16840df040f15088dc2f81fe391c3923bec73e23a9662efc9c229c6a00",
        "nonce": "0x9",
        "chainId": "0x164ce"
      },
      "additionalContracts": [],
      "isFixedGasLimit": false
    },
    {
      "hash": "0xf1ac0a61a74401eb73c1a8fef01100527f06c02048fbcbec841ebac46d40d1bf",
      "transactionType": "CREATE",
      "contractName": "ERC1967Proxy",
      "contractAddress": "0x6ffa7abc1e380bb967c78d5e648ef804e1fe6dad",
      "function": null,
      "arguments": [
        "0x3Ef42bAFCA751eAA51369666498B9ecEa4f0Ff30",
        "0xc4d66de8000000000000000000000000e3fd5228ac2d2c15856959f9e27a4671c5d45958"
      ],
      "transaction": {
        "from": "0x0027b0882c92a1a86c5885fed632667e81e49e5f",
        "gas": "0x3600c",
        "value": "0x0",
        "input": "0x60806040526102a88038038061001481610168565b92833981016040828203126101645781516001600160a01b03811692909190838303610164576020810151906001600160401b03821161016457019281601f8501121561016457835161006e610069826101a1565b610168565b9481865260208601936020838301011161016457815f926020809301865e86010152823b15610152577f360894a13ba1a3210667c828492db98dca3e2076cc3735a920a3ca505d382bbc80546001600160a01b031916821790557fbc7cd75a20ee27fd9adebab32041f755214dbc6bffa90cc0225b39da2e5c2d3b5f80a282511561013a575f8091610122945190845af43d15610132573d91610113610069846101a1565b9283523d5f602085013e6101bc565b505b604051608d908161021b8239f35b6060916101bc565b50505034156101245763b398979f60e01b5f5260045ffd5b634c9c8ce360e01b5f5260045260245ffd5b5f80fd5b6040519190601f01601f191682016001600160401b0381118382101761018d57604052565b634e487b7160e01b5f52604160045260245ffd5b6001600160401b03811161018d57601f01601f191660200190565b906101e057508051156101d157805190602001fd5b63d6bda27560e01b5f5260045ffd5b81511580610211575b6101f1575090565b639996b31560e01b5f9081526001600160a01b0391909116600452602490fd5b50803b156101e956fe60806040525f8073ffffffffffffffffffffffffffffffffffffffff7f360894a13ba1a3210667c828492db98dca3e2076cc3735a920a3ca505d382bbc5416368280378136915af43d5f803e156053573d5ff35b3d5ffdfea264697066735822122023fa31abe8b821721bc98dcd0d14aa90fabb922ce91da6144ff3262e40aa4dd164736f6c634300081c00330000000000000000000000003ef42bafca751eaa51369666498b9ecea4f0ff3000000000000000000000000000000000000000000000000000000000000000400000000000000000000000000000000000000000000000000000000000000024c4d66de8000000000000000000000000e3fd5228ac2d2c15856959f9e27a4671c5d4595800000000000000000000000000000000000000000000000000000000",
        "nonce": "0xa",
        "chainId": "0x164ce"
      },
      "additionalContracts": [],
      "isFixedGasLimit": false
    },
    {
      "hash": "0xf9df5fa31c092465819ff0d8464df25c93640ae9e36e19ab57de8d8a8832c3c7",
      "transactionType": "CREATE",
      "contractName": "DojangScroll",
      "contractAddress": "0xb5f8922315cbba1051af035267f75684c282023c",
      "function": null,
      "arguments": null,
      "transaction": {
        "from": "0x0027b0882c92a1a86c5885fed632667e81e49e5f",
        "gas": "0x25453e",
        "value": "0x0",
        "input": "0x60a080604052346100c257306080525f5160206121885f395f51905f525460ff8160401c166100b3576002600160401b03196001600160401b03821601610060575b6040516120c190816100c78239608051818181610a0c0152610b2b0152f35b6001600160401b0319166001600160401b039081175f5160206121885f395f51905f525581527fc7f505b2f371ae2175ee4913f4499e1f2633a7b5936321eed1cdaeb6115181d290602090a15f80610041565b63f92ee8a960e01b5f5260045ffd5b5f80fdfe6080806040526004361015610012575f80fd5b5f3560e01c90816301ffc9a7146111a65750806314c4444214611155578063248a9ca3146110e55780632f2ff15d1461106a57806336568abe14610fe25780633b431e9214610ed05780633d39103514610eb45780634ab3fd6414610e645780634f1ef28614610a8457806352d1902d146109c75780636bee807b146108ed57806386e3c7c61461089c57806391d1485414610808578063a217fddf146107d0578063ad3cb1cc1461071e578063ba03e205146106d0578063c4d66de814610464578063d547741f146103e2578063d5fe8b63146102d3578063ec3a1e201461027c578063f72c0d8b146102245763fddb843b1461010e575f80fd5b346102205760207ffffffffffffffffffffffffffffffffffffffffffffffffffffffffffffffffc3601126102205773ffffffffffffffffffffffffffffffffffffffff61015a611285565b6101626113ec565b16801580156101ff575b6101d75773ffffffffffffffffffffffffffffffffffffffff600154827fffffffffffffffffffffffff0000000000000000000000000000000000000000821617600155167f56a88b858fc673d2ba943657de48abe642ad371325825e357fa28413cdbbcdfc5f80a3005b7f97c39864000000000000000000000000000000000000000000000000000000005f5260045ffd5b5073ffffffffffffffffffffffffffffffffffffffff60015416811461016c565b5f80fd5b34610220575f7ffffffffffffffffffffffffffffffffffffffffffffffffffffffffffffffffc3601126102205760206040517f780d9af2547ff489e27e4d081cfe787295973a1c8d1b8ee9585d9bfa2fb9258f8152f35b346102205760407ffffffffffffffffffffffffffffffffffffffffffffffffffffffffffffffffc3601126102205760206102c16102b8611285565b60243590611d0a565b6102ca81611c32565b51604051908152f35b346102205760207ffffffffffffffffffffffffffffffffffffffffffffffffffffffffffffffffc3601126102205773ffffffffffffffffffffffffffffffffffffffff61031f611285565b6103276113ec565b16801580156103c2575b61039a5773ffffffffffffffffffffffffffffffffffffffff5f54827fffffffffffffffffffffffff00000000000000000000000000000000000000008216175f55167f65c0d85604294186a63b32cc4a5a76ea89245daaff1c29065ea588c5fc9196fd5f80a3005b7f69aaebdb000000000000000000000000000000000000000000000000000000005f5260045ffd5b5073ffffffffffffffffffffffffffffffffffffffff5f54168114610331565b346102205760407ffffffffffffffffffffffffffffffffffffffffffffffffffffffffffffffffc3601126102205761046260043561041f611262565b9061045d610458825f527f02dd7bc7dec4dceedda775e58dd541e08a116c6c53815c0bd028192f7b626800602052600160405f20015490565b611454565b6116d3565b005b346102205760207ffffffffffffffffffffffffffffffffffffffffffffffffffffffffffffffffc3601126102205761049b611285565b7ff0c57e16840df040f15088dc2f81fe391c3923bec73e23a9662efc9c229c6a00549060ff8260401c16159167ffffffffffffffff8116801590816106c8575b60011490816106be575b1590816106b5575b5061068d578260017fffffffffffffffffffffffffffffffffffffffffffffffff00000000000000008316177ff0c57e16840df040f15088dc2f81fe391c3923bec73e23a9662efc9c229c6a0055610638575b5073ffffffffffffffffffffffffffffffffffffffff8116156106105761057690610569611f9b565b610571611f9b565b6114da565b5061057d57005b7fffffffffffffffffffffffffffffffffffffffffffffff00ffffffffffffffff7ff0c57e16840df040f15088dc2f81fe391c3923bec73e23a9662efc9c229c6a0054167ff0c57e16840df040f15088dc2f81fe391c3923bec73e23a9662efc9c229c6a00557fc7f505b2f371ae2175ee4913f4499e1f2633a7b5936321eed1cdaeb6115181d2602060405160018152a1005b7fd92e233d000000000000000000000000000000000000000000000000000000005f5260045ffd5b7fffffffffffffffffffffffffffffffffffffffffffffff0000000000000000001668010000000000000001177ff0c57e16840df040f15088dc2f81fe391c3923bec73e23a9662efc9c229c6a005582610540565b7ff92ee8a9000000000000000000000000000000000000000000000000000000005f5260045ffd5b905015846104ed565b303b1591506104e5565b8491506104db565b346102205760407ffffffffffffffffffffffffffffffffffffffffffffffffffffffffffffffffc36011261022057602061071461070f6102b8611285565b611f42565b6040519015158152f35b34610220575f7ffffffffffffffffffffffffffffffffffffffffffffffffffffffffffffffffc36011261022057604080519061075b818361135c565b6005825260208201917f352e302e3000000000000000000000000000000000000000000000000000000083527fffffffffffffffffffffffffffffffffffffffffffffffffffffffffffffffe0601f8351948593602085525180918160208701528686015e5f85828601015201168101030190f35b34610220575f7ffffffffffffffffffffffffffffffffffffffffffffffffffffffffffffffffc3601126102205760206040515f8152f35b346102205760407ffffffffffffffffffffffffffffffffffffffffffffffffffffffffffffffffc3601126102205761083f611262565b6004355f527f02dd7bc7dec4dceedda775e58dd541e08a116c6c53815c0bd028192f7b62680060205273ffffffffffffffffffffffffffffffffffffffff60405f2091165f52602052602060ff60405f2054166040519015158152f35b34610220575f7ffffffffffffffffffffffffffffffffffffffffffffffffffffffffffffffffc36011261022057602073ffffffffffffffffffffffffffffffffffffffff60025416604051908152f35b346102205761012061090f610901366112a8565b818385979495969396611961565b61091881611c32565b0151926060848051810103126102205760208401519382606061093d604084016113d7565b9201519514908115916109af575b5061095b57602084604051908152f35b67ffffffffffffffff935073ffffffffffffffffffffffffffffffffffffffff907f33fcb907000000000000000000000000000000000000000000000000000000005f52166004526024521660445260645ffd5b905067ffffffffffffffff808516911614158561094b565b34610220575f7ffffffffffffffffffffffffffffffffffffffffffffffffffffffffffffffffc3601126102205773ffffffffffffffffffffffffffffffffffffffff7f0000000000000000000000000000000000000000000000000000000000000000163003610a5c5760206040517f360894a13ba1a3210667c828492db98dca3e2076cc3735a920a3ca505d382bbc8152f35b7fe07c8dba000000000000000000000000000000000000000000000000000000005f5260045ffd5b60407ffffffffffffffffffffffffffffffffffffffffffffffffffffffffffffffffc36011261022057610ab6611285565b6024359067ffffffffffffffff8211610220573660238301121561022057816004013590610ae38261139d565b91610af1604051938461135c565b8083526020830193366024838301011161022057815f9260246020930187378401015273ffffffffffffffffffffffffffffffffffffffff7f000000000000000000000000000000000000000000000000000000000000000016803014908115610e22575b50610a5c57335f9081527fb13845a86f7d916157cb690bfc11ef193afbec43de99a66b9b7ec445b813a050602052604090205460ff1615610dd25773ffffffffffffffffffffffffffffffffffffffff8116926040517f52d1902d000000000000000000000000000000000000000000000000000000008152602081600481885afa5f9181610d9e575b50610c1157847f4c9c8ce3000000000000000000000000000000000000000000000000000000005f5260045260245ffd5b807f360894a13ba1a3210667c828492db98dca3e2076cc3735a920a3ca505d382bbc869203610d735750823b15610d4857807fffffffffffffffffffffffff00000000000000000000000000000000000000007f360894a13ba1a3210667c828492db98dca3e2076cc3735a920a3ca505d382bbc5416177f360894a13ba1a3210667c828492db98dca3e2076cc3735a920a3ca505d382bbc557fbc7cd75a20ee27fd9adebab32041f755214dbc6bffa90cc0225b39da2e5c2d3b5f80a2825115610d16575f8091610462945190845af43d15610d0e573d91610cf28361139d565b92610d00604051948561135c565b83523d5f602085013e611ff2565b606091611ff2565b50505034610d2057005b7fb398979f000000000000000000000000000000000000000000000000000000005f5260045ffd5b7f4c9c8ce3000000000000000000000000000000000000000000000000000000005f5260045260245ffd5b7faa1d49a4000000000000000000000000000000000000000000000000000000005f5260045260245ffd5b9091506020813d602011610dca575b81610dba6020938361135c565b8101031261022057519086610be0565b3d9150610dad565b7fe2517d3f000000000000000000000000000000000000000000000000000000005f52336004527f780d9af2547ff489e27e4d081cfe787295973a1c8d1b8ee9585d9bfa2fb9258f60245260445ffd5b905073ffffffffffffffffffffffffffffffffffffffff7f360894a13ba1a3210667c828492db98dca3e2076cc3735a920a3ca505d382bbc5416141584610b56565b34610220575f7ffffffffffffffffffffffffffffffffffffffffffffffffffffffffffffffffc36011261022057602073ffffffffffffffffffffffffffffffffffffffff5f5416604051908152f35b346102205760206102c1610ec7366112a8565b92919091611961565b346102205760207ffffffffffffffffffffffffffffffffffffffffffffffffffffffffffffffffc3601126102205773ffffffffffffffffffffffffffffffffffffffff610f1c611285565b610f246113ec565b1680158015610fc1575b610f995773ffffffffffffffffffffffffffffffffffffffff600254827fffffffffffffffffffffffff0000000000000000000000000000000000000000821617600255167fdf6a4c0e90a44c131ffe0dbf3a01863d23b8d807746d5342bf774d7bbf92207c5f80a3005b7fddee2104000000000000000000000000000000000000000000000000000000005f5260045ffd5b5073ffffffffffffffffffffffffffffffffffffffff600254168114610f2e565b346102205760407ffffffffffffffffffffffffffffffffffffffffffffffffffffffffffffffffc36011261022057611019611262565b3373ffffffffffffffffffffffffffffffffffffffff82160361104257610462906004356116d3565b7f6697b232000000000000000000000000000000000000000000000000000000005f5260045ffd5b346102205760407ffffffffffffffffffffffffffffffffffffffffffffffffffffffffffffffffc360112610220576104626004356110a7611262565b906110e0610458825f527f02dd7bc7dec4dceedda775e58dd541e08a116c6c53815c0bd028192f7b626800602052600160405f20015490565b6115c1565b346102205760207ffffffffffffffffffffffffffffffffffffffffffffffffffffffffffffffffc36011261022057602061114d6004355f527f02dd7bc7dec4dceedda775e58dd541e08a116c6c53815c0bd028192f7b626800602052600160405f20015490565b604051908152f35b34610220575f7ffffffffffffffffffffffffffffffffffffffffffffffffffffffffffffffffc36011261022057602073ffffffffffffffffffffffffffffffffffffffff60015416604051908152f35b346102205760207ffffffffffffffffffffffffffffffffffffffffffffffffffffffffffffffffc36011261022057600435907fffffffff00000000000000000000000000000000000000000000000000000000821680920361022057817f7965db0b0000000000000000000000000000000000000000000000000000000060209314908115611238575b5015158152f35b7f01ffc9a70000000000000000000000000000000000000000000000000000000091501483611231565b6024359073ffffffffffffffffffffffffffffffffffffffff8216820361022057565b6004359073ffffffffffffffffffffffffffffffffffffffff8216820361022057565b7ffffffffffffffffffffffffffffffffffffffffffffffffffffffffffffffffc60809101126102205760043573ffffffffffffffffffffffffffffffffffffffff8116810361022057906024359060443567ffffffffffffffff81168103610220579060643590565b610140810190811067ffffffffffffffff82111761132f57604052565b7f4e487b71000000000000000000000000000000000000000000000000000000005f52604160045260245ffd5b90601f7fffffffffffffffffffffffffffffffffffffffffffffffffffffffffffffffe0910116810190811067ffffffffffffffff82111761132f57604052565b67ffffffffffffffff811161132f57601f017fffffffffffffffffffffffffffffffffffffffffffffffffffffffffffffffe01660200190565b519067ffffffffffffffff8216820361022057565b335f9081527fb7db2dd08fcb62d0c9e08c51941cae53c267786a0b75803fb7960902fc8ef97d602052604090205460ff161561142457565b7fe2517d3f000000000000000000000000000000000000000000000000000000005f52336004525f60245260445ffd5b805f527f02dd7bc7dec4dceedda775e58dd541e08a116c6c53815c0bd028192f7b62680060205260405f2073ffffffffffffffffffffffffffffffffffffffff33165f5260205260ff60405f205416156114ab5750565b7fe2517d3f000000000000000000000000000000000000000000000000000000005f523360045260245260445ffd5b73ffffffffffffffffffffffffffffffffffffffff81165f9081527fb7db2dd08fcb62d0c9e08c51941cae53c267786a0b75803fb7960902fc8ef97d602052604090205460ff166115bc5773ffffffffffffffffffffffffffffffffffffffff165f8181527fb7db2dd08fcb62d0c9e08c51941cae53c267786a0b75803fb7960902fc8ef97d6020526040812080547fffffffffffffffffffffffffffffffffffffffffffffffffffffffffffffff001660011790553391907f2f8788117e7eff1d82e926ec794901d17c78024a50270940304540a733656f0d8180a4600190565b505f90565b805f527f02dd7bc7dec4dceedda775e58dd541e08a116c6c53815c0bd028192f7b62680060205260405f2073ffffffffffffffffffffffffffffffffffffffff83165f5260205260ff60405f205416155f146116cd57805f527f02dd7bc7dec4dceedda775e58dd541e08a116c6c53815c0bd028192f7b62680060205260405f2073ffffffffffffffffffffffffffffffffffffffff83165f5260205260405f2060017fffffffffffffffffffffffffffffffffffffffffffffffffffffffffffffff0082541617905573ffffffffffffffffffffffffffffffffffffffff339216907f2f8788117e7eff1d82e926ec794901d17c78024a50270940304540a733656f0d5f80a4600190565b50505f90565b805f527f02dd7bc7dec4dceedda775e58dd541e08a116c6c53815c0bd028192f7b62680060205260405f2073ffffffffffffffffffffffffffffffffffffffff83165f5260205260ff60405f2054165f146116cd57805f527f02dd7bc7dec4dceedda775e58dd541e08a116c6c53815c0bd028192f7b62680060205260405f2073ffffffffffffffffffffffffffffffffffffffff83165f5260205260405f207fffffffffffffffffffffffffffffffffffffffffffffffffffffffffffffff00815416905573ffffffffffffffffffffffffffffffffffffffff339216907ff6391f5c32d9c69d2a47ea670b442974b53935d1edc7fd64eb21e047a839171b5f80a4600190565b604051906117e882611312565b6060610120835f81525f60208201525f60408201525f838201525f60808201525f60a08201525f60c08201525f60e08201525f6101008201520152565b519073ffffffffffffffffffffffffffffffffffffffff8216820361022057565b6020818303126102205780519067ffffffffffffffff821161022057019061014082820312610220576040519161187c83611312565b8051835260208101516020840152611896604082016113d7565b60408401526118a7606082016113d7565b60608401526118b8608082016113d7565b608084015260a081015160a08401526118d360c08201611825565b60c08401526118e460e08201611825565b60e08401526101008101518015158103610220576101008401526101208101519067ffffffffffffffff8211610220570181601f820112156102205780519061192c8261139d565b9261193a604051948561135c565b8284526020838301011161022057815f9260208093018386015e8301015261012082015290565b92919060249161196f6117db565b50602073ffffffffffffffffffffffffffffffffffffffff5f5416604051948580927f54d4f9db0000000000000000000000000000000000000000000000000000000082527f06c3bd846f5ea60b0b6f5a835ef85fd8253b53f67917d6c690be628d032f841b60048301525afa928315611b63575f93611bfe575b50602073ffffffffffffffffffffffffffffffffffffffff60015416946024604051809781937f10d736d500000000000000000000000000000000000000000000000000000000835260048301525afa938415611b63575f94611ba0575b509173ffffffffffffffffffffffffffffffffffffffff946084926020959467ffffffffffffffff6040519188830193845216604082015260408152611a8f60608261135c565b5190208680600254169260405198899788967f23b9b756000000000000000000000000000000000000000000000000000000008852600488015216602486015216604484015260648301525afa908115611b63575f91611b6e575b50604051907fa3112a6400000000000000000000000000000000000000000000000000000000825260048201525f816024817342000000000000000000000000000000000000215afa908115611b63575f91611b44575090565b611b6091503d805f833e611b58818361135c565b810190611846565b90565b6040513d5f823e3d90fd5b90506020813d602011611b98575b81611b896020938361135c565b8101031261022057515f611aea565b3d9150611b7c565b919350916020823d602011611bf6575b81611bbd6020938361135c565b810103126102205773ffffffffffffffffffffffffffffffffffffffff94602094611be9608494611825565b9550925094929092611a48565b3d9150611bb0565b9092506020813d602011611c2a575b81611c1a6020938361135c565b810103126102205751915f6119ea565b3d9150611c0d565b805115611ce25767ffffffffffffffff60608201511680151580611cce575b611c9e575067ffffffffffffffff6080820151169081611c6f575050565b517f0b64def1000000000000000000000000000000000000000000000000000000005f5260045260245260445ffd5b90517f8a1b950b000000000000000000000000000000000000000000000000000000005f5260045260245260445ffd5b5067ffffffffffffffff4216811115611c51565b7f6e7910da000000000000000000000000000000000000000000000000000000005f5260045ffd5b602490611d156117db565b50602073ffffffffffffffffffffffffffffffffffffffff5f5416604051938480927f54d4f9db0000000000000000000000000000000000000000000000000000000082527f568eb581cdf80b03d3bdfa414f3203bfdcc4bba4e66355612bd0e879da812f0660048301525afa918215611b63575f92611f0e575b50602073ffffffffffffffffffffffffffffffffffffffff60015416936024604051809681937f10d736d500000000000000000000000000000000000000000000000000000000835260048301525afa928315611b63575f93611eb7575b5091606460209273ffffffffffffffffffffffffffffffffffffffff948580600254169160405197889687957ff20f03bc00000000000000000000000000000000000000000000000000000000875260048701521660248501521660448301525afa908115611b63575f91611b6e5750604051907fa3112a6400000000000000000000000000000000000000000000000000000000825260048201525f816024817342000000000000000000000000000000000000215afa908115611b63575f91611b44575090565b92506020833d602011611f06575b81611ed26020938361135c565b81010312610220576064602092611efd73ffffffffffffffffffffffffffffffffffffffff95611825565b94509250611dee565b3d9150611ec5565b9091506020813d602011611f3a575b81611f2a6020938361135c565b810103126102205751905f611d90565b3d9150611f1d565b8051156115bc57611b609067ffffffffffffffff6060820151168015159081611f86575b506115bc576080015167ffffffffffffffff16611f8257600190565b5f90565b905067ffffffffffffffff421610155f611f66565b60ff7ff0c57e16840df040f15088dc2f81fe391c3923bec73e23a9662efc9c229c6a005460401c1615611fca57565b7fd7e6bcf8000000000000000000000000000000000000000000000000000000005f5260045ffd5b9061202f575080511561200757805190602001fd5b7fd6bda275000000000000000000000000000000000000000000000000000000005f5260045ffd5b81511580612082575b612040575090565b73ffffffffffffffffffffffffffffffffffffffff907f9996b315000000000000000000000000000000000000000000000000000000005f521660045260245ffd5b50803b1561203856fea264697066735822122022c76cffce8fcd2d8575ae611c37adcedc37f2ba04db48086888cc04717ca4ed64736f6c634300081c0033f0c57e16840df040f15088dc2f81fe391c3923bec73e23a9662efc9c229c6a00",
        "nonce": "0xb",
        "chainId": "0x164ce"
      },
      "additionalContracts": [],
      "isFixedGasLimit": false
    },
    {
      "hash": "0xffc80dd9ebba3fa75fd61c82c4a0eb1807a3323ce6a896aa3fa1d282c6ffab81",
      "transactionType": "CREATE",
      "contractName": "ERC1967Proxy",
      "contractAddress": "0xd5077b67dcb56cac8b270c7788fc3e6ee03f17b9",
      "function": null,
      "arguments": [
        "0xB5F8922315cbBa1051AF035267F75684C282023c",
        "0xc4d66de8000000000000000000000000e3fd5228ac2d2c15856959f9e27a4671c5d45958"
      ],
      "transaction": {
        "from": "0x0027b0882c92a1a86c5885fed632667e81e49e5f",
        "gas": "0x35ac3",
        "value": "0x0",
        "input": "0x60806040526102a88038038061001481610168565b92833981016040828203126101645781516001600160a01b03811692909190838303610164576020810151906001600160401b03821161016457019281601f8501121561016457835161006e610069826101a1565b610168565b9481865260208601936020838301011161016457815f926020809301865e86010152823b15610152577f360894a13ba1a3210667c828492db98dca3e2076cc3735a920a3ca505d382bbc80546001600160a01b031916821790557fbc7cd75a20ee27fd9adebab32041f755214dbc6bffa90cc0225b39da2e5c2d3b5f80a282511561013a575f8091610122945190845af43d15610132573d91610113610069846101a1565b9283523d5f602085013e6101bc565b505b604051608d908161021b8239f35b6060916101bc565b50505034156101245763b398979f60e01b5f5260045ffd5b634c9c8ce360e01b5f5260045260245ffd5b5f80fd5b6040519190601f01601f191682016001600160401b0381118382101761018d57604052565b634e487b7160e01b5f52604160045260245ffd5b6001600160401b03811161018d57601f01601f191660200190565b906101e057508051156101d157805190602001fd5b63d6bda27560e01b5f5260045ffd5b81511580610211575b6101f1575090565b639996b31560e01b5f9081526001600160a01b0391909116600452602490fd5b50803b156101e956fe60806040525f8073ffffffffffffffffffffffffffffffffffffffff7f360894a13ba1a3210667c828492db98dca3e2076cc3735a920a3ca505d382bbc5416368280378136915af43d5f803e156053573d5ff35b3d5ffdfea264697066735822122023fa31abe8b821721bc98dcd0d14aa90fabb922ce91da6144ff3262e40aa4dd164736f6c634300081c0033000000000000000000000000b5f8922315cbba1051af035267f75684c282023c00000000000000000000000000000000000000000000000000000000000000400000000000000000000000000000000000000000000000000000000000000024c4d66de8000000000000000000000000e3fd5228ac2d2c15856959f9e27a4671c5d4595800000000000000000000000000000000000000000000000000000000",
        "nonce": "0xc",
        "chainId": "0x164ce"
      },
      "additionalContracts": [],
      "isFixedGasLimit": false
    },
    {
      "hash": "0x484186f82780dfdc0fcdff138ed7812ab7e11356bac144feeb08f97f30775171",
      "transactionType": "CALL",
      "contractName": "ERC1967Proxy",
      "contractAddress": "0x78cbb3413fbb6af05ef1d21e646440e56bae3ad6",
      "function": null,
      "arguments": null,
      "transaction": {
        "from": "0xe3fd5228ac2d2c15856959f9e27a4671c5d45958",
        "to": "0x78cbb3413fbb6af05ef1d21e646440e56bae3ad6",
        "gas": "0x12d84",
        "value": "0x0",
        "input": "0x2f2ff15d94128ea7f74a449ce658791007e32321f49a24a085ab70669bc3d744a5146add000000000000000000000000d72b48ed00b67d756408a140435d8ef101f4a377",
        "nonce": "0x0",
        "chainId": "0x164ce"
      },
      "additionalContracts": [],
      "isFixedGasLimit": false
    },
    {
      "hash": "0x7f19adf7d2e4b47708a0f3e0c9a311f317f7202233978c5138553bc5d1e5b848",
      "transactionType": "CALL",
      "contractName": "ERC1967Proxy",
      "contractAddress": "0xda282e89244424e297ce8e78089b54d043fb28b6",
      "function": null,
      "arguments": null,
      "transaction": {
        "from": "0xe3fd5228ac2d2c15856959f9e27a4671c5d45958",
        "to": "0xda282e89244424e297ce8e78089b54d043fb28b6",
        "gas": "0x12d93",
        "value": "0x0",
        "input": "0x2f2ff15d635a0c1689ad5a7df2dedc643572aeaf20ebc2ba3151b047c687dd08ef00e591000000000000000000000000d72b48ed00b67d756408a140435d8ef101f4a377",
        "nonce": "0x1",
        "chainId": "0x164ce"
      },
      "additionalContracts": [],
      "isFixedGasLimit": false
    },
    {
      "hash": "0xd87d11099ad9c0fe4fa8b4598611ae7c1786952582ed3182feae4744245285ae",
      "transactionType": "CALL",
      "contractName": "ERC1967Proxy",
      "contractAddress": "0x9c9bf29880448ab39795a11b669e22a0f1d790ec",
      "function": null,
      "arguments": null,
      "transaction": {
        "from": "0xe3fd5228ac2d2c15856959f9e27a4671c5d45958",
        "to": "0x9c9bf29880448ab39795a11b669e22a0f1d790ec",
        "gas": "0x12dd2",
        "value": "0x0",
        "input": "0x2f2ff15da4771738a4a8d7cf0668efc96ce25cca50d013312cf387bac358f7392cc4d9050000000000000000000000006164658bfc7327c3f496f4125f303e3b7b78ba1c",
        "nonce": "0x2",
        "chainId": "0x164ce"
      },
      "additionalContracts": [],
      "isFixedGasLimit": false
    },
    {
      "hash": "0xe925feb10b66f4de72374e56095f558354aa334cdb9ebce44ec6a0e0f9a54354",
      "transactionType": "CALL",
      "contractName": "ERC1967Proxy",
      "contractAddress": "0x9c9bf29880448ab39795a11b669e22a0f1d790ec",
      "function": null,
      "arguments": null,
      "transaction": {
        "from": "0xe3fd5228ac2d2c15856959f9e27a4671c5d45958",
        "to": "0x9c9bf29880448ab39795a11b669e22a0f1d790ec",
        "gas": "0x12dc1",
        "value": "0x0",
        "input": "0x2f2ff15d3916eed0902929784feb1e46ad4564b96fa109b7abea862fab5e29b1799b2e5f000000000000000000000000d72b48ed00b67d756408a140435d8ef101f4a377",
        "nonce": "0x3",
        "chainId": "0x164ce"
      },
      "additionalContracts": [],
      "isFixedGasLimit": false
    },
    {
      "hash": "0x637cdfa076ca79489378b691b0fb3500493ceecfbeb4bf81438945ad6ffd14be",
      "transactionType": "CALL",
      "contractName": "ERC1967Proxy",
      "contractAddress": "0x9c9bf29880448ab39795a11b669e22a0f1d790ec",
      "function": null,
      "arguments": null,
      "transaction": {
        "from": "0xe3fd5228ac2d2c15856959f9e27a4671c5d45958",
        "to": "0x9c9bf29880448ab39795a11b669e22a0f1d790ec",
        "gas": "0x12dd2",
        "value": "0x0",
        "input": "0x2f2ff15d12871cff13e82f1629feba448a7c66e21bef7c90d20deb75fea29020b75d749a000000000000000000000000692009fe206c3f897867f6bf7b5b45506b747f9e",
        "nonce": "0x4",
        "chainId": "0x164ce"
      },
      "additionalContracts": [],
      "isFixedGasLimit": false
    },
    {
      "hash": "0x611cbcaae4a9296b319cfa01925d0a018c4ddfddcc71c3b74e7243cc66ff7294",
      "transactionType": "CALL",
      "contractName": "ERC1967Proxy",
      "contractAddress": "0x9c9bf29880448ab39795a11b669e22a0f1d790ec",
      "function": null,
      "arguments": null,
      "transaction": {
        "from": "0xe3fd5228ac2d2c15856959f9e27a4671c5d45958",
        "to": "0x9c9bf29880448ab39795a11b669e22a0f1d790ec",
        "gas": "0x12dd2",
        "value": "0x0",
        "input": "0x2f2ff15d12871cff13e82f1629feba448a7c66e21bef7c90d20deb75fea29020b75d749a0000000000000000000000006ffa7abc1e380bb967c78d5e648ef804e1fe6dad",
        "nonce": "0x5",
        "chainId": "0x164ce"
      },
      "additionalContracts": [],
      "isFixedGasLimit": false
    },
    {
      "hash": "0xb599e0dc4cff199e6733b7ccb3e2765bf86f5358a01a8459374648bda500c94b",
      "transactionType": "CALL",
      "contractName": "ERC1967Proxy",
      "contractAddress": "0x692009fe206c3f897867f6bf7b5b45506b747f9e",
      "function": null,
      "arguments": null,
      "transaction": {
        "from": "0xe3fd5228ac2d2c15856959f9e27a4671c5d45958",
        "to": "0x692009fe206c3f897867f6bf7b5b45506b747f9e",
        "gas": "0x12d66",
        "value": "0x0",
        "input": "0x2f2ff15d347b10bd654c535eeb06eaa553d718530c13c1491c49c0fe42cd3fcb18c94ab3000000000000000000000000d72b48ed00b67d756408a140435d8ef101f4a377",
        "nonce": "0x6",
        "chainId": "0x164ce"
      },
      "additionalContracts": [],
      "isFixedGasLimit": false
    },
    {
      "hash": "0x65ea45cd20142a285047209fc70dd95a65979d1f61f7917281383ce4d3902b70",
      "transactionType": "CALL",
      "contractName": "ERC1967Proxy",
      "contractAddress": "0x6ffa7abc1e380bb967c78d5e648ef804e1fe6dad",
      "function": null,
      "arguments": null,
      "transaction": {
        "from": "0xe3fd5228ac2d2c15856959f9e27a4671c5d45958",
        "to": "0x6ffa7abc1e380bb967c78d5e648ef804e1fe6dad",
        "gas": "0x12d66",
        "value": "0x0",
        "input": "0x2f2ff15d8421c86537ca8724814af8dd9a3536c8129b6f4ebed2c873a3cb4c7f1ef851b1000000000000000000000000d72b48ed00b67d756408a140435d8ef101f4a377",
        "nonce": "0x7",
        "chainId": "0x164ce"
      },
      "additionalContracts": [],
      "isFixedGasLimit": false
    },
    {
      "hash": "0xce385f4bc0d132bf5f3816ce5a2fdc63cced045f523c0ed5ca98fef5a00d0bb7",
      "transactionType": "CALL",
      "contractName": "ERC1967Proxy",
      "contractAddress": "0xd5077b67dcb56cac8b270c7788fc3e6ee03f17b9",
      "function": null,
      "arguments": null,
      "transaction": {
        "from": "0xe3fd5228ac2d2c15856959f9e27a4671c5d45958",
        "to": "0xd5077b67dcb56cac8b270c7788fc3e6ee03f17b9",
        "gas": "0x12d84",
        "value": "0x0",
        "input": "0x2f2ff15d780d9af2547ff489e27e4d081cfe787295973a1c8d1b8ee9585d9bfa2fb9258f000000000000000000000000d72b48ed00b67d756408a140435d8ef101f4a377",
        "nonce": "0x8",
        "chainId": "0x164ce"
      },
      "additionalContracts": [],
      "isFixedGasLimit": false
    },
    {
      "hash": "0x2dabb2f0f49a6cb5487ae7c2d246725e8f2109a45eb575b44431c6b27895084f",
      "transactionType": "CALL",
      "contractName": "ERC1967Proxy",
      "contractAddress": "0x692009fe206c3f897867f6bf7b5b45506b747f9e",
      "function": null,
      "arguments": null,
      "transaction": {
        "from": "0xe3fd5228ac2d2c15856959f9e27a4671c5d45958",
        "to": "0x692009fe206c3f897867f6bf7b5b45506b747f9e",
        "gas": "0x12c0d",
        "value": "0x0",
        "input": "0x3b431e920000000000000000000000009c9bf29880448ab39795a11b669e22a0f1d790ec",
        "nonce": "0x9",
        "chainId": "0x164ce"
      },
      "additionalContracts": [],
      "isFixedGasLimit": false
    },
    {
      "hash": "0xa6b5d78a6199526da62ce3ef1f393ec27aa4c810ef05e54fa67755452c646600",
      "transactionType": "CALL",
      "contractName": "ERC1967Proxy",
      "contractAddress": "0x6ffa7abc1e380bb967c78d5e648ef804e1fe6dad",
      "function": null,
      "arguments": null,
      "transaction": {
        "from": "0xe3fd5228ac2d2c15856959f9e27a4671c5d45958",
        "to": "0x6ffa7abc1e380bb967c78d5e648ef804e1fe6dad",
        "gas": "0x12c0d",
        "value": "0x0",
        "input": "0x3b431e920000000000000000000000009c9bf29880448ab39795a11b669e22a0f1d790ec",
        "nonce": "0xa",
        "chainId": "0x164ce"
      },
      "additionalContracts": [],
      "isFixedGasLimit": false
    },
    {
      "hash": "0xf2afd88653929553d5aa171a778d84bb1c207dee9deb6cd20680fa6bc3cdaa0a",
      "transactionType": "CALL",
      "contractName": "ERC1967Proxy",
      "contractAddress": "0xd5077b67dcb56cac8b270c7788fc3e6ee03f17b9",
      "function": null,
      "arguments": null,
      "transaction": {
        "from": "0xe3fd5228ac2d2c15856959f9e27a4671c5d45958",
        "to": "0xd5077b67dcb56cac8b270c7788fc3e6ee03f17b9",
        "gas": "0x12dcb",
        "value": "0x0",
        "input": "0xd5fe8b6300000000000000000000000078cbb3413fbb6af05ef1d21e646440e56bae3ad6",
        "nonce": "0xb",
        "chainId": "0x164ce"
      },
      "additionalContracts": [],
      "isFixedGasLimit": false
    },
    {
      "hash": "0x94d34534ce0492c0bb105c8f8e84fd6f3d0c8b27ebc69daa8a66db8bb440c9fd",
      "transactionType": "CALL",
      "contractName": "ERC1967Proxy",
      "contractAddress": "0xd5077b67dcb56cac8b270c7788fc3e6ee03f17b9",
      "function": null,
      "arguments": null,
      "transaction": {
        "from": "0xe3fd5228ac2d2c15856959f9e27a4671c5d45958",
        "to": "0xd5077b67dcb56cac8b270c7788fc3e6ee03f17b9",
        "gas": "0x11d61",
        "value": "0x0",
        "input": "0xfddb843b000000000000000000000000da282e89244424e297ce8e78089b54d043fb28b6",
        "nonce": "0xc",
        "chainId": "0x164ce"
      },
      "additionalContracts": [],
      "isFixedGasLimit": false
    },
    {
      "hash": "0x576d7555d6b35fa327fe92dd08bfcf2dd4796ab70f1c6003d170e2f0812b1188",
      "transactionType": "CALL",
      "contractName": "ERC1967Proxy",
      "contractAddress": "0xd5077b67dcb56cac8b270c7788fc3e6ee03f17b9",
      "function": null,
      "arguments": null,
      "transaction": {
        "from": "0xe3fd5228ac2d2c15856959f9e27a4671c5d45958",
        "to": "0xd5077b67dcb56cac8b270c7788fc3e6ee03f17b9",
        "gas": "0x11b80",
        "value": "0x0",
        "input": "0x3b431e920000000000000000000000009c9bf29880448ab39795a11b669e22a0f1d790ec",
        "nonce": "0xd",
        "chainId": "0x164ce"
      },
      "additionalContracts": [],
      "isFixedGasLimit": false
    },
    {
      "hash": "0x1b9cd47864ef593f691c564ff6bce04329f4cc907e7019beb76376df296ec536",
      "transactionType": "CALL",
      "contractName": null,
      "contractAddress": "0x4200000000000000000000000000000000000020",
      "function": "register(string,address,bool)",
      "arguments": [
        "bool isVerified",
        "0x692009FE206C3F897867F6BF7B5B45506B747F9e",
        "true"
      ],
      "transaction": {
        "from": "0xe3fd5228ac2d2c15856959f9e27a4671c5d45958",
        "to": "0x4200000000000000000000000000000000000020",
        "gas": "0x217a6",
        "value": "0x0",
        "input": "0x60d7a2780000000000000000000000000000000000000000000000000000000000000060000000000000000000000000692009fe206c3f897867f6bf7b5b45506b747f9e0000000000000000000000000000000000000000000000000000000000000001000000000000000000000000000000000000000000000000000000000000000f626f6f6c20697356657269666965640000000000000000000000000000000000",
        "nonce": "0xe",
        "chainId": "0x164ce"
      },
      "additionalContracts": [],
      "isFixedGasLimit": false
    },
    {
      "hash": "0xbbeac3620e993f1dbb33bc4e0c2312dc4e59b943edb8f9522e2611759819acbe",
      "transactionType": "CALL",
      "contractName": "ERC1967Proxy",
      "contractAddress": "0x78cbb3413fbb6af05ef1d21e646440e56bae3ad6",
      "function": null,
      "arguments": null,
      "transaction": {
        "from": "0xe3fd5228ac2d2c15856959f9e27a4671c5d45958",
        "to": "0x78cbb3413fbb6af05ef1d21e646440e56bae3ad6",
        "gas": "0x1778d",
        "value": "0x0",
        "input": "0x2f926732568eb581cdf80b03d3bdfa414f3203bfdcc4bba4e66355612bd0e879da812f06072d75e18b2be4f89a13a7147240477481c4b526d5795802acba59046b426e08",
        "nonce": "0xf",
        "chainId": "0x164ce"
      },
      "additionalContracts": [],
      "isFixedGasLimit": false
    },
    {
      "hash": "0x1a616009e2b2802bb212de7ba2981e98d67719f4e65900e24f0ac55956962ce3",
      "transactionType": "CALL",
      "contractName": null,
      "contractAddress": "0x4200000000000000000000000000000000000020",
      "function": "register(string,address,bool)",
      "arguments": [
        "uint256 coinType,uint64 snapshotAt,uint256 balance",
        "0x6FFa7ABc1E380Bb967C78D5E648EF804e1fE6dAd",
        "true"
      ],
      "transaction": {
        "from": "0xe3fd5228ac2d2c15856959f9e27a4671c5d45958",
        "to": "0x4200000000000000000000000000000000000020",
        "gas": "0x33a30",
        "value": "0x0",
        "input": "0x60d7a27800000000000000000000000000000000000000000000000000000000000000600000000000000000000000006ffa7abc1e380bb967c78d5e648ef804e1fe6dad0000000000000000000000000000000000000000000000000000000000000001000000000000000000000000000000000000000000000000000000000000003275696e7432353620636f696e547970652c75696e74363420736e617073686f7441742c75696e743235362062616c616e63650000000000000000000000000000",
        "nonce": "0x10",
        "chainId": "0x164ce"
      },
      "additionalContracts": [],
      "isFixedGasLimit": false
    },
    {
      "hash": "0x52ccd8895e0b0c3650030c2a407971c8d8fc836ae835e724e6b07a1afcb3b3f7",
      "transactionType": "CALL",
      "contractName": "ERC1967Proxy",
      "contractAddress": "0x78cbb3413fbb6af05ef1d21e646440e56bae3ad6",
      "function": null,
      "arguments": null,
      "transaction": {
        "from": "0xe3fd5228ac2d2c15856959f9e27a4671c5d45958",
        "to": "0x78cbb3413fbb6af05ef1d21e646440e56bae3ad6",
        "gas": "0x18ec6",
        "value": "0x0",
        "input": "0x2f92673206c3bd846f5ea60b0b6f5a835ef85fd8253b53f67917d6c690be628d032f841bf586ce04b9280ee14897768d9c09b0e852908f9c719b87212ffa5722b6a47ba7",
        "nonce": "0x11",
        "chainId": "0x164ce"
      },
      "additionalContracts": [],
      "isFixedGasLimit": false
    }
  ],
  "receipts": [
    {
      "status": "0x1",
      "cumulativeGasUsed": "0x13cde3",
      "logs": [
        {
          "address": "0x626cac9ba80a383d25ca4b4b8248d5e35bcac82a",
          "topics": [
            "0xc7f505b2f371ae2175ee4913f4499e1f2633a7b5936321eed1cdaeb6115181d2"
          ],
          "data": "0x000000000000000000000000000000000000000000000000ffffffffffffffff",
          "blockHash": "0x3a43e69f21579a83b6135e0ca613d8edf9dad0db963cb121647c2d2a34514b30",
          "blockNumber": "0x34fe87",
          "transactionHash": "0x6e7bea9372075a824a3a1bc0c53f58c97b86e4d66becbc7dbe474d44b1907a10",
          "transactionIndex": "0x1",
          "logIndex": "0x0",
          "removed": false
        }
      ],
      "logsBloom": "0x00000000000000000000000000002000000040000000000000000000000000000000000000000000000000000000000000000000000000000000000000000000000000000000000000000000000000000000000000000000000000000000000000000000000000000000000000000000000000000000000000000000000000000000000000000000000800000000000000000000000080000000000000000000000000000000000000000000000000200000000000000000000000000000000000000000000000000000000000000000000000000004000000000000000000000000000000000000000000000000000000000000000000000000000000000000",
      "type": "0x2",
      "transactionHash": "0x6e7bea9372075a824a3a1bc0c53f58c97b86e4d66becbc7dbe474d44b1907a10",
      "transactionIndex": "0x1",
      "blockHash": "0x3a43e69f21579a83b6135e0ca613d8edf9dad0db963cb121647c2d2a34514b30",
      "blockNumber": "0x34fe87",
      "gasUsed": "0x13197f",
      "effectiveGasPrice": "0xfc",
      "from": "0x0027b0882c92a1a86c5885fed632667e81e49e5f",
      "to": null,
      "contractAddress": "0x626cac9ba80a383d25ca4b4b8248d5e35bcac82a",
      "l1BaseFeeScalar": "0x558",
      "l1BlobBaseFee": "0x279d77483e",
      "l1BlobBaseFeeScalar": "0xc5fc5",
      "l1Fee": "0x115c6babe8e3c",
      "l1GasPrice": "0x8c663f5",
      "l1GasUsed": "0x8a57"
    },
    {
      "status": "0x1",
      "cumulativeGasUsed": "0x348a2",
      "logs": [
        {
          "address": "0x78cbb3413fbb6af05ef1d21e646440e56bae3ad6",
          "topics": [
            "0xbc7cd75a20ee27fd9adebab32041f755214dbc6bffa90cc0225b39da2e5c2d3b",
            "0x000000000000000000000000626cac9ba80a383d25ca4b4b8248d5e35bcac82a"
          ],
          "data": "0x",
          "blockHash": "0x78f89b07535109346ac62989db0b088dade0ebc4e46b42da1f534beafc67541b",
          "blockNumber": "0x34fe8b",
          "transactionHash": "0x500de4d1b40cee6f4f9b2ac25729b4fe17a28f4466340b381a62c27cdf5b7bf2",
          "transactionIndex": "0x1",
          "logIndex": "0x0",
          "removed": false
        },
        {
          "address": "0x78cbb3413fbb6af05ef1d21e646440e56bae3ad6",
          "topics": [
            "0x2f8788117e7eff1d82e926ec794901d17c78024a50270940304540a733656f0d",
            "0x0000000000000000000000000000000000000000000000000000000000000000",
            "0x000000000000000000000000e3fd5228ac2d2c15856959f9e27a4671c5d45958",
            "0x0000000000000000000000000027b0882c92a1a86c5885fed632667e81e49e5f"
          ],
          "data": "0x",
          "blockHash": "0x78f89b07535109346ac62989db0b088dade0ebc4e46b42da1f534beafc67541b",
          "blockNumber": "0x34fe8b",
          "transactionHash": "0x500de4d1b40cee6f4f9b2ac25729b4fe17a28f4466340b381a62c27cdf5b7bf2",
          "transactionIndex": "0x1",
          "logIndex": "0x1",
          "removed": false
        },
        {
          "address": "0x78cbb3413fbb6af05ef1d21e646440e56bae3ad6",
          "topics": [
            "0xc7f505b2f371ae2175ee4913f4499e1f2633a7b5936321eed1cdaeb6115181d2"
          ],
          "data": "0x0000000000000000000000000000000000000000000000000000000000000001",
          "blockHash": "0x78f89b07535109346ac62989db0b088dade0ebc4e46b42da1f534beafc67541b",
          "blockNumber": "0x34fe8b",
          "transactionHash": "0x500de4d1b40cee6f4f9b2ac25729b4fe17a28f4466340b381a62c27cdf5b7bf2",
          "transactionIndex": "0x1",
          "logIndex": "0x2",
          "removed": false
        }
      ],
      "logsBloom": "0x00000004000000000000000000000000400000000000000000000000000000000080000000000000000000000000400000000000000000000000000000000000000000000000000000008000000002000000000000000000000000000000000000000000020000000000000000000a00000000000000000000002000000000000000010000000000000800000000000100000000000080010000000000000000000000000000000000000000000000000000000000000000001000000000000000000020000000000000001000000000002000000004000100000000000020000000000000000020000000010000000000000000000000000000000000000000",
      "type": "0x2",
      "transactionHash": "0x500de4d1b40cee6f4f9b2ac25729b4fe17a28f4466340b381a62c27cdf5b7bf2",
      "transactionIndex": "0x1",
      "blockHash": "0x78f89b07535109346ac62989db0b088dade0ebc4e46b42da1f534beafc67541b",
      "blockNumber": "0x34fe8b",
      "gasUsed": "0x2943e",
      "effectiveGasPrice": "0xfc",
      "from": "0x0027b0882c92a1a86c5885fed632667e81e49e5f",
      "to": null,
      "contractAddress": "0x78cbb3413fbb6af05ef1d21e646440e56bae3ad6",
      "l1BaseFeeScalar": "0x558",
      "l1BlobBaseFee": "0x279d77483e",
      "l1BlobBaseFeeScalar": "0xc5fc5",
      "l1Fee": "0x4963481ff969",
      "l1GasPrice": "0x8c663f5",
      "l1GasUsed": "0x248c"
    },
    {
      "status": "0x1",
      "cumulativeGasUsed": "0x12ae0a",
      "logs": [
        {
          "address": "0x18b08bb2e34e586436d873b85d8555a99bfc41a7",
          "topics": [
            "0xc7f505b2f371ae2175ee4913f4499e1f2633a7b5936321eed1cdaeb6115181d2"
          ],
          "data": "0x000000000000000000000000000000000000000000000000ffffffffffffffff",
          "blockHash": "0x320d9c48e81534aa5229fd82c8b4be3e5169674a12d6af3ec3d752e958490672",
          "blockNumber": "0x34fe8e",
          "transactionHash": "0xf68b2d1bba9855fdfbc5dadbcfbfc08a4942aed0be0228a546d34919041aeb07",
          "transactionIndex": "0x1",
          "logIndex": "0x0",
          "removed": false
        }
      ],
      "logsBloom": "0x00000000000000000000200000080000000000000000000000000000000000000000000000000000000000000000000000000000000000000000000000000000001000000000000000000000000000000000000000000000000000000000000000000000000000000000000000000000000000000000000000000000000000000000000000000000000800000000000000000000000080000000000000000000000000000000000000000000000000000000000000000000000000000000000000000000000000000000000000000000000000000004000000000000000000000000000000000000000000000000000000000000000000000000000000000000",
      "type": "0x2",
      "transactionHash": "0xf68b2d1bba9855fdfbc5dadbcfbfc08a4942aed0be0228a546d34919041aeb07",
      "transactionIndex": "0x1",
      "blockHash": "0x320d9c48e81534aa5229fd82c8b4be3e5169674a12d6af3ec3d752e958490672",
      "blockNumber": "0x34fe8e",
      "gasUsed": "0x11f9a6",
      "effectiveGasPrice": "0xfc",
      "from": "0x0027b0882c92a1a86c5885fed632667e81e49e5f",
      "to": null,
      "contractAddress": "0x18b08bb2e34e586436d873b85d8555a99bfc41a7",
      "l1BaseFeeScalar": "0x558",
      "l1BlobBaseFee": "0x279d77483e",
      "l1BlobBaseFeeScalar": "0xc5fc5",
      "l1Fee": "0xfdd77c03f2c0",
      "l1GasPrice": "0x8c663f5",
      "l1GasUsed": "0x7e6b"
    },
    {
      "status": "0x1",
      "cumulativeGasUsed": "0x34880",
      "logs": [
        {
          "address": "0xda282e89244424e297ce8e78089b54d043fb28b6",
          "topics": [
            "0xbc7cd75a20ee27fd9adebab32041f755214dbc6bffa90cc0225b39da2e5c2d3b",
            "0x00000000000000000000000018b08bb2e34e586436d873b85d8555a99bfc41a7"
          ],
          "data": "0x",
          "blockHash": "0x9b7c2b4a191f120300e5cf1f1211edeb534da77fc3a42b669e1b3e84d1928718",
          "blockNumber": "0x34fe92",
          "transactionHash": "0x4dca0bdb775d5b35efd508d532603e24936dffe3a79ca6cb55c8539fdefacb7c",
          "transactionIndex": "0x1",
          "logIndex": "0x0",
          "removed": false
        },
        {
          "address": "0xda282e89244424e297ce8e78089b54d043fb28b6",
          "topics": [
            "0x2f8788117e7eff1d82e926ec794901d17c78024a50270940304540a733656f0d",
            "0x0000000000000000000000000000000000000000000000000000000000000000",
            "0x000000000000000000000000e3fd5228ac2d2c15856959f9e27a4671c5d45958",
            "0x0000000000000000000000000027b0882c92a1a86c5885fed632667e81e49e5f"
          ],
          "data": "0x",
          "blockHash": "0x9b7c2b4a191f120300e5cf1f1211edeb534da77fc3a42b669e1b3e84d1928718",
          "blockNumber": "0x34fe92",
          "transactionHash": "0x4dca0bdb775d5b35efd508d532603e24936dffe3a79ca6cb55c8539fdefacb7c",
          "transactionIndex": "0x1",
          "logIndex": "0x1",
          "removed": false
        },
        {
          "address": "0xda282e89244424e297ce8e78089b54d043fb28b6",
          "topics": [
            "0xc7f505b2f371ae2175ee4913f4499e1f2633a7b5936321eed1cdaeb6115181d2"
          ],
          "data": "0x0000000000000000000000000000000000000000000000000000000000000001",
          "blockHash": "0x9b7c2b4a191f120300e5cf1f1211edeb534da77fc3a42b669e1b3e84d1928718",
          "blockNumber": "0x34fe92",
          "transactionHash": "0x4dca0bdb775d5b35efd508d532603e24936dffe3a79ca6cb55c8539fdefacb7c",
          "transactionIndex": "0x1",
          "logIndex": "0x2",
          "removed": false
        }
      ],
      "logsBloom": "0x00000004000000000000000000000000400000000000000000000000000000000080000000000000000000100000000000000000000000000000000000000000000000000000000000008004000002000000000000000000000000000000000000004000020000000000040000000800000000000000000000002000000000200000010000000000000800000000000000000000000080010000000000000000000000000000000000000000000000000000000000000000001000000000000000000020000000000000000000000000002000000004000100000000000020000000000000000000000000000000000000000000000000800000000000000000",
      "type": "0x2",
      "transactionHash": "0x4dca0bdb775d5b35efd508d532603e24936dffe3a79ca6cb55c8539fdefacb7c",
      "transactionIndex": "0x1",
      "blockHash": "0x9b7c2b4a191f120300e5cf1f1211edeb534da77fc3a42b669e1b3e84d1928718",
      "blockNumber": "0x34fe92",
      "gasUsed": "0x29428",
      "effectiveGasPrice": "0xfc",
      "from": "0x0027b0882c92a1a86c5885fed632667e81e49e5f",
      "to": null,
      "contractAddress": "0xda282e89244424e297ce8e78089b54d043fb28b6",
      "l1BaseFeeScalar": "0x558",
      "l1BlobBaseFee": "0x29be7e1e41",
      "l1BlobBaseFeeScalar": "0xc5fc5",
      "l1Fee": "0x4d54e7e78791",
      "l1GasPrice": "0x841fa00",
      "l1GasUsed": "0x248c"
    },
    {
      "status": "0x1",
      "cumulativeGasUsed": "0x1bed1e",
      "logs": [
        {
          "address": "0x25c77d37ca2100b66a5bf6e21528a0f24e3a7ecd",
          "topics": [
            "0xc7f505b2f371ae2175ee4913f4499e1f2633a7b5936321eed1cdaeb6115181d2"
          ],
          "data": "0x000000000000000000000000000000000000000000000000ffffffffffffffff",
          "blockHash": "0xd9cd13c7a652dc493f014c038c8e564d8243fb72fbbcee1a97b8cf4e3745adf3",
          "blockNumber": "0x34fe95",
          "transactionHash": "0x0ae9dad37df1b76cb40d28ecfa4052f429d452bc8f613df9c50bc26968c502f4",
          "transactionIndex": "0x1",
          "logIndex": "0x0",
          "removed": false
        }
      ],
      "logsBloom": "0x00000000000000000000000000000000000000000000000000000000000000000000000000000000000000000000000000000000000000000000000000000000000000000000000100000000000000000000000000000000000000000000000000000000000000000000000000000000000000000000000000000000000000000000000000000000020800000000000000000000000080000000000000000000000000000000000000000000000000000000000000000000000000000000000000000000000080000000000000000000000000000004000000000000000000000000000000000000000000000000000000000000000000000000000000000000",
      "type": "0x2",
      "transactionHash": "0x0ae9dad37df1b76cb40d28ecfa4052f429d452bc8f613df9c50bc26968c502f4",
      "transactionIndex": "0x1",
      "blockHash": "0xd9cd13c7a652dc493f014c038c8e564d8243fb72fbbcee1a97b8cf4e3745adf3",
      "blockNumber": "0x34fe95",
      "gasUsed": "0x1b38c6",
      "effectiveGasPrice": "0xfc",
      "from": "0x0027b0882c92a1a86c5885fed632667e81e49e5f",
      "to": null,
      "contractAddress": "0x25c77d37ca2100b66a5bf6e21528a0f24e3a7ecd",
      "l1BaseFeeScalar": "0x558",
      "l1BlobBaseFee": "0x29be7e1e41",
      "l1BlobBaseFeeScalar": "0xc5fc5",
      "l1Fee": "0x18e3ba65780c6",
      "l1GasPrice": "0x841fa00",
      "l1GasUsed": "0xbc37"
    },
    {
      "status": "0x1",
      "cumulativeGasUsed": "0x352d2",
      "logs": [
        {
          "address": "0x9c9bf29880448ab39795a11b669e22a0f1d790ec",
          "topics": [
            "0xbc7cd75a20ee27fd9adebab32041f755214dbc6bffa90cc0225b39da2e5c2d3b",
            "0x00000000000000000000000025c77d37ca2100b66a5bf6e21528a0f24e3a7ecd"
          ],
          "data": "0x",
          "blockHash": "0x3f357d6e9f3e96d46b789b5535a9c4a9fd930b40af62bc166c95acb1ef2f379c",
          "blockNumber": "0x34fe98",
          "transactionHash": "0xe8e0ada573d7c79183d3e870b1da0fa99473837462bf0a0f394a138d8729a594",
          "transactionIndex": "0x1",
          "logIndex": "0x0",
          "removed": false
        },
        {
          "address": "0x9c9bf29880448ab39795a11b669e22a0f1d790ec",
          "topics": [
            "0x2f8788117e7eff1d82e926ec794901d17c78024a50270940304540a733656f0d",
            "0x0000000000000000000000000000000000000000000000000000000000000000",
            "0x000000000000000000000000e3fd5228ac2d2c15856959f9e27a4671c5d45958",
            "0x0000000000000000000000000027b0882c92a1a86c5885fed632667e81e49e5f"
          ],
          "data": "0x",
          "blockHash": "0x3f357d6e9f3e96d46b789b5535a9c4a9fd930b40af62bc166c95acb1ef2f379c",
          "blockNumber": "0x34fe98",
          "transactionHash": "0xe8e0ada573d7c79183d3e870b1da0fa99473837462bf0a0f394a138d8729a594",
          "transactionIndex": "0x1",
          "logIndex": "0x1",
          "removed": false
        },
        {
          "address": "0x9c9bf29880448ab39795a11b669e22a0f1d790ec",
          "topics": [
            "0xc7f505b2f371ae2175ee4913f4499e1f2633a7b5936321eed1cdaeb6115181d2"
          ],
          "data": "0x0000000000000000000000000000000000000000000000000000000000000001",
          "blockHash": "0x3f357d6e9f3e96d46b789b5535a9c4a9fd930b40af62bc166c95acb1ef2f379c",
          "blockNumber": "0x34fe98",
          "transactionHash": "0xe8e0ada573d7c79183d3e870b1da0fa99473837462bf0a0f394a138d8729a594",
          "transactionIndex": "0x1",
          "logIndex": "0x2",
          "removed": false
        }
      ],
      "logsBloom": "0x00000004000000000000000000000000400000000000000000000000000000000080000000000000000000000000000000000000000040000000000000000000040000000000000000008000000002000000000000000000000000000000000000000000020000800000000000000800000000000000000000002000000000000000010000000000000800000000000000000000000080010040000000000000000000000000000010000000000000000000000000000000001000000000000040000020000000000000000000000000002000000004000100000000000020000000000000000000000000000000000000000000000000000000000000000000",
      "type": "0x2",
      "transactionHash": "0xe8e0ada573d7c79183d3e870b1da0fa99473837462bf0a0f394a138d8729a594",
      "transactionIndex": "0x1",
      "blockHash": "0x3f357d6e9f3e96d46b789b5535a9c4a9fd930b40af62bc166c95acb1ef2f379c",
      "blockNumber": "0x34fe98",
      "gasUsed": "0x29e7a",
      "effectiveGasPrice": "0xfc",
      "from": "0x0027b0882c92a1a86c5885fed632667e81e49e5f",
      "to": null,
      "contractAddress": "0x9c9bf29880448ab39795a11b669e22a0f1d790ec",
      "l1BaseFeeScalar": "0x558",
      "l1BlobBaseFee": "0x29be7e1e41",
      "l1BlobBaseFeeScalar": "0xc5fc5",
      "l1Fee": "0x4d54e7e78791",
      "l1GasPrice": "0x841fa00",
      "l1GasUsed": "0x248c"
    },
    {
      "status": "0x1",
      "cumulativeGasUsed": "0x18ff02",
      "logs": [
        {
          "address": "0x53cc8dfd0a59fe3fa6dd7746231249f47accabef",
          "topics": [
            "0xc7f505b2f371ae2175ee4913f4499e1f2633a7b5936321eed1cdaeb6115181d2"
          ],
          "data": "0x000000000000000000000000000000000000000000000000ffffffffffffffff",
          "blockHash": "0x9ea8095974590c04121a2760a91f99f2d32148a260a664ca4924bb7ac2cb91e2",
          "blockNumber": "0x34fe9c",
          "transactionHash": "0x30126fa90985e381d9c31556d073ed8aba51ad2f16945b3e5244d081f3397eff",
          "transactionIndex": "0x1",
          "logIndex": "0x0",
          "removed": false
        }
      ],
      "logsBloom": "0x00000000000000000000000000000000000000000000000000000000000200000000000000000000000000000000000000000000000000000000000000000000000000000000004000000000000000000000000000000000000000000000000000000000000000000000000000000000000000000000000000000000000000000000000000000000000800000000000000000000000080000000000000000000000000000000000000000000000000000000000000000000000000000000000000000001000000000000000000000000000000000004000000000000000000000000000000000000000000000000000000000000000000000000000000000000",
      "type": "0x2",
      "transactionHash": "0x30126fa90985e381d9c31556d073ed8aba51ad2f16945b3e5244d081f3397eff",
      "transactionIndex": "0x1",
      "blockHash": "0x9ea8095974590c04121a2760a91f99f2d32148a260a664ca4924bb7ac2cb91e2",
      "blockNumber": "0x34fe9c",
      "gasUsed": "0x184a9e",
      "effectiveGasPrice": "0xfc",
      "from": "0x0027b0882c92a1a86c5885fed632667e81e49e5f",
      "to": null,
      "contractAddress": "0x53cc8dfd0a59fe3fa6dd7746231249f47accabef",
      "l1BaseFeeScalar": "0x558",
      "l1BlobBaseFee": "0x25983c84d5",
      "l1BlobBaseFeeScalar": "0xc5fc5",
      "l1Fee": "0x1492916718d42",
      "l1GasPrice": "0x8226158",
      "l1GasUsed": "0xacbd"
    },
    {
      "status": "0x1",
      "cumulativeGasUsed": "0x34bd5",
      "logs": [
        {
          "address": "0x692009fe206c3f897867f6bf7b5b45506b747f9e",
          "topics": [
            "0xbc7cd75a20ee27fd9adebab32041f755214dbc6bffa90cc0225b39da2e5c2d3b",
            "0x00000000000000000000000053cc8dfd0a59fe3fa6dd7746231249f47accabef"
          ],
          "data": "0x",
          "blockHash": "0x2df71efb860da38b83f175e46166cc7ed8342326c29039ba8c42b3afb260d648",
          "blockNumber": "0x34fea0",
          "transactionHash": "0x2dbaa5da3a4d177b8bb2895b018c79f41c98cf15e4d7834506b57de6ef998b91",
          "transactionIndex": "0x1",
          "logIndex": "0x0",
          "removed": false
        },
        {
          "address": "0x692009fe206c3f897867f6bf7b5b45506b747f9e",
          "topics": [
            "0x2f8788117e7eff1d82e926ec794901d17c78024a50270940304540a733656f0d",
            "0x0000000000000000000000000000000000000000000000000000000000000000",
            "0x000000000000000000000000e3fd5228ac2d2c15856959f9e27a4671c5d45958",
            "0x0000000000000000000000000027b0882c92a1a86c5885fed632667e81e49e5f"
          ],
          "data": "0x",
          "blockHash": "0x2df71efb860da38b83f175e46166cc7ed8342326c29039ba8c42b3afb260d648",
          "blockNumber": "0x34fea0",
          "transactionHash": "0x2dbaa5da3a4d177b8bb2895b018c79f41c98cf15e4d7834506b57de6ef998b91",
          "transactionIndex": "0x1",
          "logIndex": "0x1",
          "removed": false
        },
        {
          "address": "0x692009fe206c3f897867f6bf7b5b45506b747f9e",
          "topics": [
            "0xc7f505b2f371ae2175ee4913f4499e1f2633a7b5936321eed1cdaeb6115181d2"
          ],
          "data": "0x0000000000000000000000000000000000000000000000000000000000000001",
          "blockHash": "0x2df71efb860da38b83f175e46166cc7ed8342326c29039ba8c42b3afb260d648",
          "blockNumber": "0x34fea0",
          "transactionHash": "0x2dbaa5da3a4d177b8bb2895b018c79f41c98cf15e4d7834506b57de6ef998b91",
          "transactionIndex": "0x1",
          "logIndex": "0x2",
          "removed": false
        }
      ],
      "logsBloom": "0x80000004000000000000000000000000400000000000000000000000040004000080000000000000000000000000000000000000000000000000000000000000000000000000000000008000000002000000000000000000000000000000000000000000020000000000000000000802000000000000000000002000000000000000010000000000000800000000000000000000000080010000000000000000000000000000000000000000000000000000000000000000001000000000000000000020000000000000000000000000002000000004000100000000000020002000000000040000000000000000000000000000000000000000000000000000",
      "type": "0x2",
      "transactionHash": "0x2dbaa5da3a4d177b8bb2895b018c79f41c98cf15e4d7834506b57de6ef998b91",
      "transactionIndex": "0x1",
      "blockHash": "0x2df71efb860da38b83f175e46166cc7ed8342326c29039ba8c42b3afb260d648",
      "blockNumber": "0x34fea0",
      "gasUsed": "0x29771",
      "effectiveGasPrice": "0xfc",
      "from": "0x0027b0882c92a1a86c5885fed632667e81e49e5f",
      "to": null,
      "contractAddress": "0x692009fe206c3f897867f6bf7b5b45506b747f9e",
      "l1BaseFeeScalar": "0x558",
      "l1BlobBaseFee": "0x25983c84d5",
      "l1BlobBaseFeeScalar": "0xc5fc5",
      "l1Fee": "0x4572163921eb",
      "l1GasPrice": "0x8226158",
      "l1GasUsed": "0x2471"
    },
    {
      "status": "0x1",
      "cumulativeGasUsed": "0x19e90f",
      "logs": [
        {
          "address": "0x3ef42bafca751eaa51369666498b9ecea4f0ff30",
          "topics": [
            "0xc7f505b2f371ae2175ee4913f4499e1f2633a7b5936321eed1cdaeb6115181d2"
          ],
          "data": "0x000000000000000000000000000000000000000000000000ffffffffffffffff",
          "blockHash": "0x0f0b514723c2a9042f4fc01c1d982bc9dbb5a412f9d62eae186cf1b8851bb408",
          "blockNumber": "0x34fea4",
          "transactionHash": "0x509b91474333fc676d89b0952bff7e4922bdbdfeff1a47a856a9ac71383579eb",
          "transactionIndex": "0x1",
          "logIndex": "0x0",
          "removed": false
        }
      ],
      "logsBloom": "0x00000000000000000000000000000000000000000000000000000000000000000000000000000000000000000000000000000000004000010000000000000000000000000000000000000000000000000000000000000000000000000000000000000000000000000000000000000000000000000000000000000000000000000000000000000000000800000000000000000000000080000000000000000000000000000000000000000000000000000000000000000000000000000000000000000000000000000000000000000000000000200004000000000000000000000000000000000000000000000000000000000000000000000000000000000000",
      "type": "0x2",
      "transactionHash": "0x509b91474333fc676d89b0952bff7e4922bdbdfeff1a47a856a9ac71383579eb",
      "transactionIndex": "0x1",
      "blockHash": "0x0f0b514723c2a9042f4fc01c1d982bc9dbb5a412f9d62eae186cf1b8851bb408",
      "blockNumber": "0x34fea4",
      "gasUsed": "0x1934ab",
      "effectiveGasPrice": "0xfc",
      "from": "0x0027b0882c92a1a86c5885fed632667e81e49e5f",
      "to": null,
      "contractAddress": "0x3ef42bafca751eaa51369666498b9ecea4f0ff30",
      "l1BaseFeeScalar": "0x558",
      "l1BlobBaseFee": "0x25983c84d5",
      "l1BlobBaseFeeScalar": "0xc5fc5",
      "l1Fee": "0x15bfd34369975",
      "l1GasPrice": "0x8226158",
      "l1GasUsed": "0xb69f"
    },
    {
      "status": "0x1",
      "cumulativeGasUsed": "0x378bf",
      "logs": [
        {
          "address": "0x6ffa7abc1e380bb967c78d5e648ef804e1fe6dad",
          "topics": [
            "0xbc7cd75a20ee27fd9adebab32041f755214dbc6bffa90cc0225b39da2e5c2d3b",
            "0x0000000000000000000000003ef42bafca751eaa51369666498b9ecea4f0ff30"
          ],
          "data": "0x",
          "blockHash": "0xd71d04a5eb3fb045d7ea123514e757d152eb274c80dbb6032ef88570393a0ac0",
          "blockNumber": "0x34fea7",
          "transactionHash": "0xf1ac0a61a74401eb73c1a8fef01100527f06c02048fbcbec841ebac46d40d1bf",
          "transactionIndex": "0x1",
          "logIndex": "0x0",
          "removed": false
        },
        {
          "address": "0x6ffa7abc1e380bb967c78d5e648ef804e1fe6dad",
          "topics": [
            "0x2f8788117e7eff1d82e926ec794901d17c78024a50270940304540a733656f0d",
            "0x0000000000000000000000000000000000000000000000000000000000000000",
            "0x000000000000000000000000e3fd5228ac2d2c15856959f9e27a4671c5d45958",
            "0x0000000000000000000000000027b0882c92a1a86c5885fed632667e81e49e5f"
          ],
          "data": "0x",
          "blockHash": "0xd71d04a5eb3fb045d7ea123514e757d152eb274c80dbb6032ef88570393a0ac0",
          "blockNumber": "0x34fea7",
          "transactionHash": "0xf1ac0a61a74401eb73c1a8fef01100527f06c02048fbcbec841ebac46d40d1bf",
          "transactionIndex": "0x1",
          "logIndex": "0x1",
          "removed": false
        },
        {
          "address": "0x6ffa7abc1e380bb967c78d5e648ef804e1fe6dad",
          "topics": [
            "0xc7f505b2f371ae2175ee4913f4499e1f2633a7b5936321eed1cdaeb6115181d2"
          ],
          "data": "0x0000000000000000000000000000000000000000000000000000000000000001",
          "blockHash": "0xd71d04a5eb3fb045d7ea123514e757d152eb274c80dbb6032ef88570393a0ac0",
          "blockNumber": "0x34fea7",
          "transactionHash": "0xf1ac0a61a74401eb73c1a8fef01100527f06c02048fbcbec841ebac46d40d1bf",
          "transactionIndex": "0x1",
          "logIndex": "0x2",
          "removed": false
        }
      ],
      "logsBloom": "0x00000004000000000000000000000000400000000800000000000000000000000080200000000000000000000000000000000000000000000000000000000000000000000000000000008000000002000000000000000000000000000400000000000000020000000000000000000800000000000000000000002000000000000000010000000000000800000000000000000000000080010000000000000000000000000000000000000000000000000000000000000000001008000010000000000020000000000000000000000000002000000004000100000000000020800000000000000000000000000000000000000000000000000000000000000000",
      "type": "0x2",
      "transactionHash": "0xf1ac0a61a74401eb73c1a8fef01100527f06c02048fbcbec841ebac46d40d1bf",
      "transactionIndex": "0x1",
      "blockHash": "0xd71d04a5eb3fb045d7ea123514e757d152eb274c80dbb6032ef88570393a0ac0",
      "blockNumber": "0x34fea7",
      "gasUsed": "0x298a7",
      "effectiveGasPrice": "0xfc",
      "from": "0x0027b0882c92a1a86c5885fed632667e81e49e5f",
      "to": null,
      "contractAddress": "0x6ffa7abc1e380bb967c78d5e648ef804e1fe6dad",
      "l1BaseFeeScalar": "0x558",
      "l1BlobBaseFee": "0x28aa69c241",
      "l1BlobBaseFeeScalar": "0xc5fc5",
      "l1Fee": "0x4b5574666b46",
      "l1GasPrice": "0x7dbf7b0",
      "l1GasUsed": "0x248c"
    },
    {
      "status": "0x1",
      "cumulativeGasUsed": "0x1d5fcf",
      "logs": [
        {
          "address": "0xb5f8922315cbba1051af035267f75684c282023c",
          "topics": [
            "0xc7f505b2f371ae2175ee4913f4499e1f2633a7b5936321eed1cdaeb6115181d2"
          ],
          "data": "0x000000000000000000000000000000000000000000000000ffffffffffffffff",
          "blockHash": "0x0b5619036dbcf8ee94884f305c807f4067fd0ede8846194d78b04bc808384890",
          "blockNumber": "0x34feaa",
          "transactionHash": "0xf9df5fa31c092465819ff0d8464df25c93640ae9e36e19ab57de8d8a8832c3c7",
          "transactionIndex": "0x1",
          "logIndex": "0x0",
          "removed": false
        }
      ],
      "logsBloom": "0x00000000000000000000000000000000000000000000000000000000000000000000000000000000000000000000000000000000000000000000000000000000000000000000000000000000000000080000000000000000000000000000000000000000000000000000000000000020000000000000000000000000000000000000080000000000000800000000000000000000000080000000000000000000000000000000000000000000000000000000000000000000000000000000000000000000000000000000000000000000000000000004000000000000000000000000000000000000000000000000000000000000000000000000000000000000",
      "type": "0x2",
      "transactionHash": "0xf9df5fa31c092465819ff0d8464df25c93640ae9e36e19ab57de8d8a8832c3c7",
      "transactionIndex": "0x1",
      "blockHash": "0x0b5619036dbcf8ee94884f305c807f4067fd0ede8846194d78b04bc808384890",
      "blockNumber": "0x34feaa",
      "gasUsed": "0x1cab6b",
      "effectiveGasPrice": "0xfc",
      "from": "0x0027b0882c92a1a86c5885fed632667e81e49e5f",
      "to": null,
      "contractAddress": "0xb5f8922315cbba1051af035267f75684c282023c",
      "l1BaseFeeScalar": "0x558",
      "l1BlobBaseFee": "0x28aa69c241",
      "l1BlobBaseFeeScalar": "0xc5fc5",
      "l1Fee": "0x1ae8280afc518",
      "l1GasPrice": "0x7dbf7b0",
      "l1GasUsed": "0xd0de"
    },
    {
      "status": "0x1",
      "cumulativeGasUsed": "0x348fa",
      "logs": [
        {
          "address": "0xd5077b67dcb56cac8b270c7788fc3e6ee03f17b9",
          "topics": [
            "0xbc7cd75a20ee27fd9adebab32041f755214dbc6bffa90cc0225b39da2e5c2d3b",
            "0x000000000000000000000000b5f8922315cbba1051af035267f75684c282023c"
          ],
          "data": "0x",
          "blockHash": "0x2f2692ff46abf5b1dcd2767969a1e675b62b7b47128867b77cd4f160aae48999",
          "blockNumber": "0x34fead",
          "transactionHash": "0xffc80dd9ebba3fa75fd61c82c4a0eb1807a3323ce6a896aa3fa1d282c6ffab81",
          "transactionIndex": "0x1",
          "logIndex": "0x0",
          "removed": false
        },
        {
          "address": "0xd5077b67dcb56cac8b270c7788fc3e6ee03f17b9",
          "topics": [
            "0x2f8788117e7eff1d82e926ec794901d17c78024a50270940304540a733656f0d",
            "0x0000000000000000000000000000000000000000000000000000000000000000",
            "0x000000000000000000000000e3fd5228ac2d2c15856959f9e27a4671c5d45958",
            "0x0000000000000000000000000027b0882c92a1a86c5885fed632667e81e49e5f"
          ],
          "data": "0x",
          "blockHash": "0x2f2692ff46abf5b1dcd2767969a1e675b62b7b47128867b77cd4f160aae48999",
          "blockNumber": "0x34fead",
          "transactionHash": "0xffc80dd9ebba3fa75fd61c82c4a0eb1807a3323ce6a896aa3fa1d282c6ffab81",
          "transactionIndex": "0x1",
          "logIndex": "0x1",
          "removed": false
        },
        {
          "address": "0xd5077b67dcb56cac8b270c7788fc3e6ee03f17b9",
          "topics": [
            "0xc7f505b2f371ae2175ee4913f4499e1f2633a7b5936321eed1cdaeb6115181d2"
          ],
          "data": "0x0000000000000000000000000000000000000000000000000000000000000001",
          "blockHash": "0x2f2692ff46abf5b1dcd2767969a1e675b62b7b47128867b77cd4f160aae48999",
          "blockNumber": "0x34fead",
          "transactionHash": "0xffc80dd9ebba3fa75fd61c82c4a0eb1807a3323ce6a896aa3fa1d282c6ffab81",
          "transactionIndex": "0x1",
          "logIndex": "0x2",
          "removed": false
        }
      ],
      "logsBloom": "0x00000004000000000000000000000000400000000000000000000000000000000080000000000000000000000000000000000000000000000000000000000800000080000000000000008008000002000000000000000000000000000000000000000000020000000000000000000800000000000000000000002000000000000000010000001000000800000000000000000000008080010000000000000000400000000000000000000000000000000000000000000000001000000000000000000020000000000000000000000000002000000004000100000000000020000000000000000000000000000000000000000000000000000000000000000000",
      "type": "0x2",
      "transactionHash": "0xffc80dd9ebba3fa75fd61c82c4a0eb1807a3323ce6a896aa3fa1d282c6ffab81",
      "transactionIndex": "0x1",
      "blockHash": "0x2f2692ff46abf5b1dcd2767969a1e675b62b7b47128867b77cd4f160aae48999",
      "blockNumber": "0x34fead",
      "gasUsed": "0x29496",
      "effectiveGasPrice": "0xfc",
      "from": "0x0027b0882c92a1a86c5885fed632667e81e49e5f",
      "to": null,
      "contractAddress": "0xd5077b67dcb56cac8b270c7788fc3e6ee03f17b9",
      "l1BaseFeeScalar": "0x558",
      "l1BlobBaseFee": "0x28aa69c241",
      "l1BlobBaseFeeScalar": "0xc5fc5",
      "l1Fee": "0x4b5574666b46",
      "l1GasPrice": "0x7dbf7b0",
      "l1GasUsed": "0x248c"
    },
    {
      "status": "0x1",
      "cumulativeGasUsed": "0x18eb0",
      "logs": [
        {
          "address": "0x78cbb3413fbb6af05ef1d21e646440e56bae3ad6",
          "topics": [
            "0x2f8788117e7eff1d82e926ec794901d17c78024a50270940304540a733656f0d",
            "0x94128ea7f74a449ce658791007e32321f49a24a085ab70669bc3d744a5146add",
            "0x000000000000000000000000d72b48ed00b67d756408a140435d8ef101f4a377",
            "0x000000000000000000000000e3fd5228ac2d2c15856959f9e27a4671c5d45958"
          ],
          "data": "0x",
          "blockHash": "0x45ed09adb7f044315737b1ac738a73c2121bb9b0e185b7129f600ca6540054d1",
          "blockNumber": "0x34feaf",
          "transactionHash": "0x484186f82780dfdc0fcdff138ed7812ab7e11356bac144feeb08f97f30775171",
          "transactionIndex": "0x1",
          "logIndex": "0x0",
          "removed": false
        }
      ],
      "logsBloom": "0x00000004000000000000000000000000000000000000000000000000000000000000000000000000000000000000400010000000000000000000000000000000000000000000000000008000000000000000020000000000000000000000000000000000000000000000000000000200000000000000000000000000080000000000000000000000000000000000000100000000000000010000000000000000000000000000008000000000000000000000000020000000001000000200000000000000000000000000000000000000002000000000000100000000000000000000000000000000000000000000000000000000000000000000000000000000",
      "type": "0x2",
      "transactionHash": "0x484186f82780dfdc0fcdff138ed7812ab7e11356bac144feeb08f97f30775171",
      "transactionIndex": "0x1",
      "blockHash": "0x45ed09adb7f044315737b1ac738a73c2121bb9b0e185b7129f600ca6540054d1",
      "blockNumber": "0x34feaf",
      "gasUsed": "0xda4c",
      "effectiveGasPrice": "0xfc",
      "from": "0xe3fd5228ac2d2c15856959f9e27a4671c5d45958",
      "to": "0x78cbb3413fbb6af05ef1d21e646440e56bae3ad6",
      "contractAddress": null,
      "l1BaseFeeScalar": "0x558",
      "l1BlobBaseFee": "0x28aa69c241",
      "l1BlobBaseFeeScalar": "0xc5fc5",
      "l1Fee": "0xd43a3f62ed6",
      "l1GasPrice": "0x7dbf7b0",
      "l1GasUsed": "0x66f"
    },
    {
      "status": "0x1",
      "cumulativeGasUsed": "0x18eba",
      "logs": [
        {
          "address": "0xda282e89244424e297ce8e78089b54d043fb28b6",
          "topics": [
            "0x2f8788117e7eff1d82e926ec794901d17c78024a50270940304540a733656f0d",
            "0x635a0c1689ad5a7df2dedc643572aeaf20ebc2ba3151b047c687dd08ef00e591",
            "0x000000000000000000000000d72b48ed00b67d756408a140435d8ef101f4a377",
            "0x000000000000000000000000e3fd5228ac2d2c15856959f9e27a4671c5d45958"
          ],
          "data": "0x",
          "blockHash": "0x61c1c864e2ff39dc43f84e2c13c4454d369429aa1934b4430a65fa77335c151c",
          "blockNumber": "0x34feb2",
          "transactionHash": "0x7f19adf7d2e4b47708a0f3e0c9a311f317f7202233978c5138553bc5d1e5b848",
          "transactionIndex": "0x1",
          "logIndex": "0x0",
          "removed": false
        }
      ],
      "logsBloom": "0x00000004000000000000000000000000000000000000000000000000000000000000000000000000000000100000000000000000000000000000000000000000000000000000000000008000000000000000020000000000000000000000000000004000000000000000000000000000000000000000000000000000000000200000000000000000000000000000000000000000000000010000000000000000000000000000008000000000000000000080000020000000001000200000000000000000000000000000000000000000002000000000000100000000000000000000000000000000000000000000000000000000000000000000008000000000",
      "type": "0x2",
      "transactionHash": "0x7f19adf7d2e4b47708a0f3e0c9a311f317f7202233978c5138553bc5d1e5b848",
      "transactionIndex": "0x1",
      "blockHash": "0x61c1c864e2ff39dc43f84e2c13c4454d369429aa1934b4430a65fa77335c151c",
      "blockNumber": "0x34feb2",
      "gasUsed": "0xda56",
      "effectiveGasPrice": "0xfc",
      "from": "0xe3fd5228ac2d2c15856959f9e27a4671c5d45958",
      "to": "0xda282e89244424e297ce8e78089b54d043fb28b6",
      "contractAddress": null,
      "l1BaseFeeScalar": "0x558",
      "l1BlobBaseFee": "0x28aa69c241",
      "l1BlobBaseFeeScalar": "0xc5fc5",
      "l1Fee": "0xd43a3f62ed6",
      "l1GasPrice": "0x7dbf7b0",
      "l1GasUsed": "0x66f"
    },
    {
      "status": "0x1",
      "cumulativeGasUsed": "0x18ee8",
      "logs": [
        {
          "address": "0x9c9bf29880448ab39795a11b669e22a0f1d790ec",
          "topics": [
            "0x2f8788117e7eff1d82e926ec794901d17c78024a50270940304540a733656f0d",
            "0xa4771738a4a8d7cf0668efc96ce25cca50d013312cf387bac358f7392cc4d905",
            "0x0000000000000000000000006164658bfc7327c3f496f4125f303e3b7b78ba1c",
            "0x000000000000000000000000e3fd5228ac2d2c15856959f9e27a4671c5d45958"
          ],
          "data": "0x",
          "blockHash": "0x191c1522235a96a07ef411a2c85ba96b66b1d4cee375aad82b46ef757242561d",
          "blockNumber": "0x34feb5",
          "transactionHash": "0xd87d11099ad9c0fe4fa8b4598611ae7c1786952582ed3182feae4744245285ae",
          "transactionIndex": "0x1",
          "logIndex": "0x0",
          "removed": false
        }
      ],
      "logsBloom": "0x00000004000000000000000000000080000000000000000400000000000000000000000000000000000000000000000000000000000040000000000000000000000000000000000000008000000000000000000000000000000000000000000000000000000000800000000000000000000000000000000000010000000000000000000000000008000000000000000000000000000000010040000000000000000000000000000000000000004000000000000000000000001000000000000000000000000000000000000000000000002000000000000100000000000000000000000000000000400000000000000000000000000000000000000000000000",
      "type": "0x2",
      "transactionHash": "0xd87d11099ad9c0fe4fa8b4598611ae7c1786952582ed3182feae4744245285ae",
      "transactionIndex": "0x1",
      "blockHash": "0x191c1522235a96a07ef411a2c85ba96b66b1d4cee375aad82b46ef757242561d",
      "blockNumber": "0x34feb5",
      "gasUsed": "0xda84",
      "effectiveGasPrice": "0xfc",
      "from": "0xe3fd5228ac2d2c15856959f9e27a4671c5d45958",
      "to": "0x9c9bf29880448ab39795a11b669e22a0f1d790ec",
      "contractAddress": null,
      "l1BaseFeeScalar": "0x558",
      "l1BlobBaseFee": "0x29be7e1e41",
      "l1BlobBaseFeeScalar": "0xc5fc5",
      "l1Fee": "0xd9daf8e69f2",
      "l1GasPrice": "0x76eee34",
      "l1GasUsed": "0x66f"
    },
    {
      "status": "0x1",
      "cumulativeGasUsed": "0x18edc",
      "logs": [
        {
          "address": "0x9c9bf29880448ab39795a11b669e22a0f1d790ec",
          "topics": [
            "0x2f8788117e7eff1d82e926ec794901d17c78024a50270940304540a733656f0d",
            "0x3916eed0902929784feb1e46ad4564b96fa109b7abea862fab5e29b1799b2e5f",
            "0x000000000000000000000000d72b48ed00b67d756408a140435d8ef101f4a377",
            "0x000000000000000000000000e3fd5228ac2d2c15856959f9e27a4671c5d45958"
          ],
          "data": "0x",
          "blockHash": "0x2413f0e98ae771e7509ba0b4c9c10fec29d4440416247a483c954655fb6fde9c",
          "blockNumber": "0x34feb8",
          "transactionHash": "0xe925feb10b66f4de72374e56095f558354aa334cdb9ebce44ec6a0e0f9a54354",
          "transactionIndex": "0x1",
          "logIndex": "0x0",
          "removed": false
        }
      ],
      "logsBloom": "0x00000004000000000000000000000000000000000000000002000000000000000000000000000000000000000000000000000000000040000000000000000000000000000000000000008000000000000000020000000000000000000000000000000000000000800000000000000000000000000000000008000000000000000000000000000000000000000000000000000000000000010040000000000000000000000000808000000000000000000000000020000000001000000000000000000000000000000000000000000000002000000000000100000000000000000000000000000000000000000000000000000000000000000000000000000000",
      "type": "0x2",
      "transactionHash": "0xe925feb10b66f4de72374e56095f558354aa334cdb9ebce44ec6a0e0f9a54354",
      "transactionIndex": "0x1",
      "blockHash": "0x2413f0e98ae771e7509ba0b4c9c10fec29d4440416247a483c954655fb6fde9c",
      "blockNumber": "0x34feb8",
      "gasUsed": "0xda78",
      "effectiveGasPrice": "0xfc",
      "from": "0xe3fd5228ac2d2c15856959f9e27a4671c5d45958",
      "to": "0x9c9bf29880448ab39795a11b669e22a0f1d790ec",
      "contractAddress": null,
      "l1BaseFeeScalar": "0x558",
      "l1BlobBaseFee": "0x29be7e1e41",
      "l1BlobBaseFeeScalar": "0xc5fc5",
      "l1Fee": "0xd9daf8e69f2",
      "l1GasPrice": "0x76eee34",
      "l1GasUsed": "0x66f"
    },
    {
      "status": "0x1",
      "cumulativeGasUsed": "0x18ee8",
      "logs": [
        {
          "address": "0x9c9bf29880448ab39795a11b669e22a0f1d790ec",
          "topics": [
            "0x2f8788117e7eff1d82e926ec794901d17c78024a50270940304540a733656f0d",
            "0x12871cff13e82f1629feba448a7c66e21bef7c90d20deb75fea29020b75d749a",
            "0x000000000000000000000000692009fe206c3f897867f6bf7b5b45506b747f9e",
            "0x000000000000000000000000e3fd5228ac2d2c15856959f9e27a4671c5d45958"
          ],
          "data": "0x",
          "blockHash": "0x9b027d9367fee0d460b371a4a744853e59fe1e9c8087e35254cbca3fc2e9538a",
          "blockNumber": "0x34febb",
          "transactionHash": "0x637cdfa076ca79489378b691b0fb3500493ceecfbeb4bf81438945ad6ffd14be",
          "transactionIndex": "0x1",
          "logIndex": "0x0",
          "removed": false
        }
      ],
      "logsBloom": "0x00000004000000000000000000000000000000000000000000000000000000000000000000000000000000000000000000000000000040000000000000000000000000000400000000008000000000000000000000000000000000000000000000000000000000800100000000000000000000000000000000000022000000000000000000000000000000000000000000000000000000010040000000000000000000000000000000000000000000000000000002000000001000000000000000000000000000000000000000000000002000000000000100000000000000000000000000000000000000008000000000000000000000000000000000000000",
      "type": "0x2",
      "transactionHash": "0x637cdfa076ca79489378b691b0fb3500493ceecfbeb4bf81438945ad6ffd14be",
      "transactionIndex": "0x1",
      "blockHash": "0x9b027d9367fee0d460b371a4a744853e59fe1e9c8087e35254cbca3fc2e9538a",
      "blockNumber": "0x34febb",
      "gasUsed": "0xda84",
      "effectiveGasPrice": "0xfc",
      "from": "0xe3fd5228ac2d2c15856959f9e27a4671c5d45958",
      "to": "0x9c9bf29880448ab39795a11b669e22a0f1d790ec",
      "contractAddress": null,
      "l1BaseFeeScalar": "0x558",
      "l1BlobBaseFee": "0x29be7e1e41",
      "l1BlobBaseFeeScalar": "0xc5fc5",
      "l1Fee": "0xd9daf8e69f2",
      "l1GasPrice": "0x76eee34",
      "l1GasUsed": "0x66f"
    },
    {
      "status": "0x1",
      "cumulativeGasUsed": "0x1ba9c",
      "logs": [
        {
          "address": "0x9c9bf29880448ab39795a11b669e22a0f1d790ec",
          "topics": [
            "0x2f8788117e7eff1d82e926ec794901d17c78024a50270940304540a733656f0d",
            "0x12871cff13e82f1629feba448a7c66e21bef7c90d20deb75fea29020b75d749a",
            "0x0000000000000000000000006ffa7abc1e380bb967c78d5e648ef804e1fe6dad",
            "0x000000000000000000000000e3fd5228ac2d2c15856959f9e27a4671c5d45958"
          ],
          "data": "0x",
          "blockHash": "0x1fa0ccaa0de446d4eba28844481a65e406a216741797515c95b64c74cbe98fcc",
          "blockNumber": "0x34febf",
          "transactionHash": "0x611cbcaae4a9296b319cfa01925d0a018c4ddfddcc71c3b74e7243cc66ff7294",
          "transactionIndex": "0x1",
          "logIndex": "0x0",
          "removed": false
        }
      ],
      "logsBloom": "0x00000004000080000000000000000000000000000000000000000000000000000000000000000000000000000000000000000000000040000000000000000000000000000400000000008000000000000000000000000000000000000000000000000000000010800000000000000000000000000000000000000020000000000000000000000000000000000000000000000000008000010040000000000000000000000000000000000000000000000000000000000000001000000000000000000000000000000000000000000000002000000000000100000000000000000000000000000000000000008000000000000000000000000000000000000000",
      "type": "0x2",
      "transactionHash": "0x611cbcaae4a9296b319cfa01925d0a018c4ddfddcc71c3b74e7243cc66ff7294",
      "transactionIndex": "0x1",
      "blockHash": "0x1fa0ccaa0de446d4eba28844481a65e406a216741797515c95b64c74cbe98fcc",
      "blockNumber": "0x34febf",
      "gasUsed": "0xda84",
      "effectiveGasPrice": "0xfc",
      "from": "0xe3fd5228ac2d2c15856959f9e27a4671c5d45958",
      "to": "0x9c9bf29880448ab39795a11b669e22a0f1d790ec",
      "contractAddress": null,
      "l1BaseFeeScalar": "0x558",
      "l1BlobBaseFee": "0x2ad9e4c90e",
      "l1BlobBaseFeeScalar": "0xc5fc5",
      "l1Fee": "0xdfa1ea880e3",
      "l1GasPrice": "0x7146a0f",
      "l1GasUsed": "0x66f"
    },
    {
      "status": "0x1",
      "cumulativeGasUsed": "0x18e9a",
      "logs": [
        {
          "address": "0x692009fe206c3f897867f6bf7b5b45506b747f9e",
          "topics": [
            "0x2f8788117e7eff1d82e926ec794901d17c78024a50270940304540a733656f0d",
            "0x347b10bd654c535eeb06eaa553d718530c13c1491c49c0fe42cd3fcb18c94ab3",
            "0x000000000000000000000000d72b48ed00b67d756408a140435d8ef101f4a377",
            "0x000000000000000000000000e3fd5228ac2d2c15856959f9e27a4671c5d45958"
          ],
          "data": "0x",
          "blockHash": "0x47946819267ac6cbde47891b7d63b923051ce2cbe7c4431b57a9627948ac2bb7",
          "blockNumber": "0x34fec2",
          "transactionHash": "0xb599e0dc4cff199e6733b7ccb3e2765bf86f5358a01a8459374648bda500c94b",
          "transactionIndex": "0x1",
          "logIndex": "0x0",
          "removed": false
        }
      ],
      "logsBloom": "0x00000004000000000000000000000000000000000000000000000000040000000000000000000000000000000000000000000000000000000000000000000000000000000000000000008000000000000000020000000000000004000000000000000000000000000000000000000002000000000000000020000000000000000000000000000000000000000000000000000000000000010000000000000000000000000000008000000000000000000000000020000000001000000080000000000000000000000000000000000000002000000000000100000000000000000000000000040000000000000000000000000000000000000000000000000000",
      "type": "0x2",
      "transactionHash": "0xb599e0dc4cff199e6733b7ccb3e2765bf86f5358a01a8459374648bda500c94b",
      "transactionIndex": "0x1",
      "blockHash": "0x47946819267ac6cbde47891b7d63b923051ce2cbe7c4431b57a9627948ac2bb7",
      "blockNumber": "0x34fec2",
      "gasUsed": "0xda36",
      "effectiveGasPrice": "0xfc",
      "from": "0xe3fd5228ac2d2c15856959f9e27a4671c5d45958",
      "to": "0x692009fe206c3f897867f6bf7b5b45506b747f9e",
      "contractAddress": null,
      "l1BaseFeeScalar": "0x558",
      "l1BlobBaseFee": "0x2ad9e4c90e",
      "l1BlobBaseFeeScalar": "0xc5fc5",
      "l1Fee": "0xdfa1ea880e3",
      "l1GasPrice": "0x7146a0f",
      "l1GasUsed": "0x66f"
    },
    {
      "status": "0x1",
      "cumulativeGasUsed": "0x18e9a",
      "logs": [
        {
          "address": "0x6ffa7abc1e380bb967c78d5e648ef804e1fe6dad",
          "topics": [
            "0x2f8788117e7eff1d82e926ec794901d17c78024a50270940304540a733656f0d",
            "0x8421c86537ca8724814af8dd9a3536c8129b6f4ebed2c873a3cb4c7f1ef851b1",
            "0x000000000000000000000000d72b48ed00b67d756408a140435d8ef101f4a377",
            "0x000000000000000000000000e3fd5228ac2d2c15856959f9e27a4671c5d45958"
          ],
          "data": "0x",
          "blockHash": "0x285e0b701cf6a7a75389587c4d6d1c6aed42dbe0ec58691279bd61bb17ab73d9",
          "blockNumber": "0x34fec5",
          "transactionHash": "0x65ea45cd20142a285047209fc70dd95a65979d1f61f7917281383ce4d3902b70",
          "transactionIndex": "0x1",
          "logIndex": "0x0",
          "removed": false
        }
      ],
      "logsBloom": "0x00000004000000000000000000000000000000020800000000000000000000000000200000000000000000000000000000000000000000000000000000000000000000000000000000008000400000000000020000000000000000000000000000000000000000000000000000000000000000000000000000000000000000000000000000000000000000000000000000000000000000010000000000000000000000000000008000000000000000000000000020000000001000000000000000000000000000000000000000000000002000000000000100000000000000800000000000000000000000000000000000000100000000000000000000000000",
      "type": "0x2",
      "transactionHash": "0x65ea45cd20142a285047209fc70dd95a65979d1f61f7917281383ce4d3902b70",
      "transactionIndex": "0x1",
      "blockHash": "0x285e0b701cf6a7a75389587c4d6d1c6aed42dbe0ec58691279bd61bb17ab73d9",
      "blockNumber": "0x34fec5",
      "gasUsed": "0xda36",
      "effectiveGasPrice": "0xfc",
      "from": "0xe3fd5228ac2d2c15856959f9e27a4671c5d45958",
      "to": "0x6ffa7abc1e380bb967c78d5e648ef804e1fe6dad",
      "contractAddress": null,
      "l1BaseFeeScalar": "0x558",
      "l1BlobBaseFee": "0x2ad9e4c90e",
      "l1BlobBaseFeeScalar": "0xc5fc5",
      "l1Fee": "0xddd0d01165d",
      "l1GasPrice": "0x7146a0f",
      "l1GasUsed": "0x662"
    },
    {
      "status": "0x1",
      "cumulativeGasUsed": "0x18eb0",
      "logs": [
        {
          "address": "0xd5077b67dcb56cac8b270c7788fc3e6ee03f17b9",
          "topics": [
            "0x2f8788117e7eff1d82e926ec794901d17c78024a50270940304540a733656f0d",
            "0x780d9af2547ff489e27e4d081cfe787295973a1c8d1b8ee9585d9bfa2fb9258f",
            "0x000000000000000000000000d72b48ed00b67d756408a140435d8ef101f4a377",
            "0x000000000000000000000000e3fd5228ac2d2c15856959f9e27a4671c5d45958"
          ],
          "data": "0x",
          "blockHash": "0x8912937b1dc233e842fd210169fe6813b3665c5044e5cd7b88cf9c1449e680c3",
          "blockNumber": "0x34fec8",
          "transactionHash": "0xce385f4bc0d132bf5f3816ce5a2fdc63cced045f523c0ed5ca98fef5a00d0bb7",
          "transactionIndex": "0x1",
          "logIndex": "0x0",
          "removed": false
        }
      ],
      "logsBloom": "0x00000004000000000000000000000000000000000000000000000000000000000000000000000004000000000000000000000000000000000000000000000000000000000000000000008000000000000000020000000000000000000000000000000000000000000000000000000000000000000000000000000000000000000000000000001000000000000000000000000000008000010000000080000000400000000000008000000000000000000000000020000000001000000000000000000000000000000000000000000000002000000000000100000000000020000000000000000000000000000000000000000000000000000000000000000000",
      "type": "0x2",
      "transactionHash": "0xce385f4bc0d132bf5f3816ce5a2fdc63cced045f523c0ed5ca98fef5a00d0bb7",
      "transactionIndex": "0x1",
      "blockHash": "0x8912937b1dc233e842fd210169fe6813b3665c5044e5cd7b88cf9c1449e680c3",
      "blockNumber": "0x34fec8",
      "gasUsed": "0xda4c",
      "effectiveGasPrice": "0xfc",
      "from": "0xe3fd5228ac2d2c15856959f9e27a4671c5d45958",
      "to": "0xd5077b67dcb56cac8b270c7788fc3e6ee03f17b9",
      "contractAddress": null,
      "l1BaseFeeScalar": "0x558",
      "l1BlobBaseFee": "0x2ad9e4c90e",
      "l1BlobBaseFeeScalar": "0xc5fc5",
      "l1Fee": "0xdfa1ea880e3",
      "l1GasPrice": "0x7146a0f",
      "l1GasUsed": "0x66f"
    },
    {
      "status": "0x1",
      "cumulativeGasUsed": "0x1ad36",
      "logs": [
        {
          "address": "0x692009fe206c3f897867f6bf7b5b45506b747f9e",
          "topics": [
            "0xdf6a4c0e90a44c131ffe0dbf3a01863d23b8d807746d5342bf774d7bbf92207c",
            "0x0000000000000000000000000000000000000000000000000000000000000000",
            "0x0000000000000000000000009c9bf29880448ab39795a11b669e22a0f1d790ec"
          ],
          "data": "0x",
          "blockHash": "0x342328cd3933f9cf23582046bcd227db3779b3aa153f3dfc36bdb724a20dc05a",
          "blockNumber": "0x34fecb",
          "transactionHash": "0x2dabb2f0f49a6cb5487ae7c2d246725e8f2109a45eb575b44431c6b27895084f",
          "transactionIndex": "0x1",
          "logIndex": "0x0",
          "removed": false
        }
      ],
      "logsBloom": "0x00000000000000000000000000000000000000000000000100000000040000000000000000000000000000000000000000000000000000000000000000000000000000000000001000000000000000000000000000000000000000000000000400000000020000000000000000004802000000000000000000000000000000000000000000000000000000000000000000000000000000000000000000000000000000000000000000000000000000000000000000000000000000000000000000000000000000000000000000000000000000000000000000000000000020020000000000040000000000000000000000000000000000000000001000000000",
      "type": "0x2",
      "transactionHash": "0x2dabb2f0f49a6cb5487ae7c2d246725e8f2109a45eb575b44431c6b27895084f",
      "transactionIndex": "0x1",
      "blockHash": "0x342328cd3933f9cf23582046bcd227db3779b3aa153f3dfc36bdb724a20dc05a",
      "blockNumber": "0x34fecb",
      "gasUsed": "0xcd2a",
      "effectiveGasPrice": "0xfc",
      "from": "0xe3fd5228ac2d2c15856959f9e27a4671c5d45958",
      "to": "0x692009fe206c3f897867f6bf7b5b45506b747f9e",
      "contractAddress": null,
      "l1BaseFeeScalar": "0x558",
      "l1BlobBaseFee": "0x2bfccf7612",
      "l1BlobBaseFeeScalar": "0xc5fc5",
      "l1Fee": "0xdef3a01e232",
      "l1GasPrice": "0x72df1d7",
      "l1GasUsed": "0x640"
    },
    {
      "status": "0x1",
      "cumulativeGasUsed": "0x18182",
      "logs": [
        {
          "address": "0x6ffa7abc1e380bb967c78d5e648ef804e1fe6dad",
          "topics": [
            "0xdf6a4c0e90a44c131ffe0dbf3a01863d23b8d807746d5342bf774d7bbf92207c",
            "0x0000000000000000000000000000000000000000000000000000000000000000",
            "0x0000000000000000000000009c9bf29880448ab39795a11b669e22a0f1d790ec"
          ],
          "data": "0x",
          "blockHash": "0xeaed7606dbbb57282cd36c084b91df6164918ead498064212403705d20f377dc",
          "blockNumber": "0x34fece",
          "transactionHash": "0xa6b5d78a6199526da62ce3ef1f393ec27aa4c810ef05e54fa67755452c646600",
          "transactionIndex": "0x1",
          "logIndex": "0x0",
          "removed": false
        }
      ],
      "logsBloom": "0x00000000000000000000000000000000000000000800000100000000000000000000200000000000000000000000000000000000000000000000000000000000000000000000001000000000000000000000000000000000000000000000000400000000020000000000000000004800000000000000000000000000000000000000000000000000000000000000000000000000000000000000000000000000000000000000000000000000000000000000000000000000000000000000000000000000000000000000000000000000000000000000000000000000000020820000000000000000000000000000000000000000000000000000001000000000",
      "type": "0x2",
      "transactionHash": "0xa6b5d78a6199526da62ce3ef1f393ec27aa4c810ef05e54fa67755452c646600",
      "transactionIndex": "0x1",
      "blockHash": "0xeaed7606dbbb57282cd36c084b91df6164918ead498064212403705d20f377dc",
      "blockNumber": "0x34fece",
      "gasUsed": "0xcd2a",
      "effectiveGasPrice": "0xfc",
      "from": "0xe3fd5228ac2d2c15856959f9e27a4671c5d45958",
      "to": "0x6ffa7abc1e380bb967c78d5e648ef804e1fe6dad",
      "contractAddress": null,
      "l1BaseFeeScalar": "0x558",
      "l1BlobBaseFee": "0x2bfccf7612",
      "l1BlobBaseFeeScalar": "0xc5fc5",
      "l1Fee": "0xdef3a01e232",
      "l1GasPrice": "0x72df1d7",
      "l1GasUsed": "0x640"
    },
    {
      "status": "0x1",
      "cumulativeGasUsed": "0x182b3",
      "logs": [
        {
          "address": "0xd5077b67dcb56cac8b270c7788fc3e6ee03f17b9",
          "topics": [
            "0x65c0d85604294186a63b32cc4a5a76ea89245daaff1c29065ea588c5fc9196fd",
            "0x0000000000000000000000000000000000000000000000000000000000000000",
            "0x00000000000000000000000078cbb3413fbb6af05ef1d21e646440e56bae3ad6"
          ],
          "data": "0x",
          "blockHash": "0xefe53da67747e6bb4870f9833988ddfd571c50daf64aa449a9edd68c09ce1a9b",
          "blockNumber": "0x34fed1",
          "transactionHash": "0xf2afd88653929553d5aa171a778d84bb1c207dee9deb6cd20680fa6bc3cdaa0a",
          "transactionIndex": "0x1",
          "logIndex": "0x0",
          "removed": false
        }
      ],
      "logsBloom": "0x02000000000000000000000000000000000000000000000000000000000000000000000000000000000000000000000000000000000000000000020000000000000000000000000000000000000000000000000000000000000000000000000000000000020000000000000000000800000000000840000000000000000000000000000000001000000000000000000000000000008000000000000000000000400000000000200000000000000000000000000000000000000000000000000000000000000100000000000000000000000000000000000000000000000020000000000000000000000000000000000000000000000000000000000000000000",
      "type": "0x2",
      "transactionHash": "0xf2afd88653929553d5aa171a778d84bb1c207dee9deb6cd20680fa6bc3cdaa0a",
      "transactionIndex": "0x1",
      "blockHash": "0xefe53da67747e6bb4870f9833988ddfd571c50daf64aa449a9edd68c09ce1a9b",
      "blockNumber": "0x34fed1",
      "gasUsed": "0xce5b",
      "effectiveGasPrice": "0xfc",
      "from": "0xe3fd5228ac2d2c15856959f9e27a4671c5d45958",
      "to": "0xd5077b67dcb56cac8b270c7788fc3e6ee03f17b9",
      "contractAddress": null,
      "l1BaseFeeScalar": "0x558",
      "l1BlobBaseFee": "0x2bfccf7612",
      "l1BlobBaseFeeScalar": "0xc5fc5",
      "l1Fee": "0xdef3a01e232",
      "l1GasPrice": "0x72df1d7",
      "l1GasUsed": "0x640"
    },
    {
      "status": "0x1",
      "cumulativeGasUsed": "0x182f5",
      "logs": [
        {
          "address": "0xd5077b67dcb56cac8b270c7788fc3e6ee03f17b9",
          "topics": [
            "0x56a88b858fc673d2ba943657de48abe642ad371325825e357fa28413cdbbcdfc",
            "0x0000000000000000000000000000000000000000000000000000000000000000",
            "0x000000000000000000000000da282e89244424e297ce8e78089b54d043fb28b6"
          ],
          "data": "0x",
          "blockHash": "0xa8139f5eb79a7407903918d7bc5a8c7fcd567f793cf711454b431efb546ac31b",
          "blockNumber": "0x34fed5",
          "transactionHash": "0x94d34534ce0492c0bb105c8f8e84fd6f3d0c8b27ebc69daa8a66db8bb440c9fd",
          "transactionIndex": "0x1",
          "logIndex": "0x0",
          "removed": false
        }
      ],
      "logsBloom": "0x00000000000000000000000000000000000000000000000000000000000000000000000000000000000008000000000000000000200100000000000000000000000000000000000000000000000000000000000000000000000000000000000000000000020000000000000002000800000000000000200000000040000000000000000000001000000000000000000000000000008000000000000000000000400000000000000000000000000000000000000000000000000000000000000000000000000000000000000000000000000000000000000000000000000020000000000000000000000000000000000000000000000000000000000000000000",
      "type": "0x2",
      "transactionHash": "0x94d34534ce0492c0bb105c8f8e84fd6f3d0c8b27ebc69daa8a66db8bb440c9fd",
      "transactionIndex": "0x1",
      "blockHash": "0xa8139f5eb79a7407903918d7bc5a8c7fcd567f793cf711454b431efb546ac31b",
      "blockNumber": "0x34fed5",
      "gasUsed": "0xce9d",
      "effectiveGasPrice": "0xfc",
      "from": "0xe3fd5228ac2d2c15856959f9e27a4671c5d45958",
      "to": "0xd5077b67dcb56cac8b270c7788fc3e6ee03f17b9",
      "contractAddress": null,
      "l1BaseFeeScalar": "0x558",
      "l1BlobBaseFee": "0x2bfccf7612",
      "l1BlobBaseFeeScalar": "0xc5fc5",
      "l1Fee": "0xdef3a01e232",
      "l1GasPrice": "0x72df1d7",
      "l1GasUsed": "0x640"
    },
    {
      "status": "0x1",
      "cumulativeGasUsed": "0x181a4",
      "logs": [
        {
          "address": "0xd5077b67dcb56cac8b270c7788fc3e6ee03f17b9",
          "topics": [
            "0xdf6a4c0e90a44c131ffe0dbf3a01863d23b8d807746d5342bf774d7bbf92207c",
            "0x0000000000000000000000000000000000000000000000000000000000000000",
            "0x0000000000000000000000009c9bf29880448ab39795a11b669e22a0f1d790ec"
          ],
          "data": "0x",
          "blockHash": "0x6b3ccbddf00d5b09645f419575280ef5857bfe6ce6c06851d2afba231c6998a8",
          "blockNumber": "0x34fed8",
          "transactionHash": "0x576d7555d6b35fa327fe92dd08bfcf2dd4796ab70f1c6003d170e2f0812b1188",
          "transactionIndex": "0x1",
          "logIndex": "0x0",
          "removed": false
        }
      ],
      "logsBloom": "0x00000000000000000000000000000000000000000000000100000000000000000000000000000000000000000000000000000000000000000000000000000000000000000000001000000000000000000000000000000000000000000000000400000000020000000000000000004800000000000000000000000000000000000000000000001000000000000000000000000000008000000000000000000000400000000000000000000000000000000000000000000000000000000000000000000000000000000000000000000000000000000000000000000000000020020000000000000000000000000000000000000000000000000000001000000000",
      "type": "0x2",
      "transactionHash": "0x576d7555d6b35fa327fe92dd08bfcf2dd4796ab70f1c6003d170e2f0812b1188",
      "transactionIndex": "0x1",
      "blockHash": "0x6b3ccbddf00d5b09645f419575280ef5857bfe6ce6c06851d2afba231c6998a8",
      "blockNumber": "0x34fed8",
      "gasUsed": "0xcd40",
      "effectiveGasPrice": "0xfc",
      "from": "0xe3fd5228ac2d2c15856959f9e27a4671c5d45958",
      "to": "0xd5077b67dcb56cac8b270c7788fc3e6ee03f17b9",
      "contractAddress": null,
      "l1BaseFeeScalar": "0x558",
      "l1BlobBaseFee": "0x2e59fe4ca5",
      "l1BlobBaseFeeScalar": "0xc5fc5",
      "l1Fee": "0xeaef0941ee4",
      "l1GasPrice": "0x7c84527",
      "l1GasUsed": "0x640"
    },
    {
      "status": "0x1",
      "cumulativeGasUsed": "0x23832",
      "logs": [
        {
          "address": "0x4200000000000000000000000000000000000020",
          "topics": [
            "0xd0b86852e21f9e5fa4bc3b0cff9757ffe243d50c4b43968a42202153d651ea5e",
            "0x072d75e18b2be4f89a13a7147240477481c4b526d5795802acba59046b426e08",
            "0x000000000000000000000000e3fd5228ac2d2c15856959f9e27a4671c5d45958"
          ],
          "data": "0x0000000000000000000000000000000000000000000000000000000000000020072d75e18b2be4f89a13a7147240477481c4b526d5795802acba59046b426e08000000000000000000000000692009fe206c3f897867f6bf7b5b45506b747f9e00000000000000000000000000000000000000000000000000000000000000010000000000000000000000000000000000000000000000000000000000000080000000000000000000000000000000000000000000000000000000000000000f626f6f6c20697356657269666965640000000000000000000000000000000000",
          "blockHash": "0xb0466d81f0845ffe10686650421f18d74e48fe1dec2eb7bd40fa9bd45e20bdb6",
          "blockNumber": "0x34fedb",
          "transactionHash": "0x1b9cd47864ef593f691c564ff6bce04329f4cc907e7019beb76376df296ec536",
          "transactionIndex": "0x1",
          "logIndex": "0x0",
          "removed": false
        }
      ],
      "logsBloom": "0x00000000000000000000000000000000000000000000000000000000000800000000000000000000000000000000000004020000000000000000000000000000000000000000000000008000000000000000000000000000000000000000000000000008000000000000000000000000080000000000000000000000000000000000000000000000000000000000000080000000000000810000000000000000000000040000000010000000000000000000000000000000000000000000000000000000000000000000000000000000002000000000000000000000000000000000000000000000000000000000000000000000000000000000000000000000",
      "type": "0x2",
      "transactionHash": "0x1b9cd47864ef593f691c564ff6bce04329f4cc907e7019beb76376df296ec536",
      "transactionIndex": "0x1",
      "blockHash": "0xb0466d81f0845ffe10686650421f18d74e48fe1dec2eb7bd40fa9bd45e20bdb6",
      "blockNumber": "0x34fedb",
      "gasUsed": "0x183ce",
      "effectiveGasPrice": "0xfc",
      "from": "0xe3fd5228ac2d2c15856959f9e27a4671c5d45958",
      "to": "0x4200000000000000000000000000000000000020",
      "contractAddress": null,
      "l1BaseFeeScalar": "0x558",
      "l1BlobBaseFee": "0x2e59fe4ca5",
      "l1BlobBaseFeeScalar": "0xc5fc5",
      "l1Fee": "0xedf85323941",
      "l1GasPrice": "0x7c84527",
      "l1GasUsed": "0x654"
    },
    {
      "status": "0x1",
      "cumulativeGasUsed": "0x1c449",
      "logs": [
        {
          "address": "0x78cbb3413fbb6af05ef1d21e646440e56bae3ad6",
          "topics": [
            "0x563ebecbb9df1c7112240e62907d4eb34dce7d568194f648e126e148bd9f275b",
            "0x568eb581cdf80b03d3bdfa414f3203bfdcc4bba4e66355612bd0e879da812f06",
            "0x072d75e18b2be4f89a13a7147240477481c4b526d5795802acba59046b426e08"
          ],
          "data": "0x",
          "blockHash": "0x49b2cd09a9e5f7eba60ff8fc74fcb8d9eb916c2d865f4c6f3ba204a293da2409",
          "blockNumber": "0x34fede",
          "transactionHash": "0xbbeac3620e993f1dbb33bc4e0c2312dc4e59b943edb8f9522e2611759819acbe",
          "transactionIndex": "0x1",
          "logIndex": "0x0",
          "removed": false
        }
      ],
      "logsBloom": "0x00000000000000000000000000000000000000000000000000000000000000000000000000000000000000000000400004020000000000000040000000000000000000000000000000020000000000000000000000000000000000000000000000000000000000000000000000000200080000000000000000000000000000000000000000000000000000000000000500000000000000000000000000000000000000000000000000000000000000000000000000400000000000000000000000000000000000000000000000000000000000000000000000001000000000000800000000000000000000000000000000000000000000000000000000000000",
      "type": "0x2",
      "transactionHash": "0xbbeac3620e993f1dbb33bc4e0c2312dc4e59b943edb8f9522e2611759819acbe",
      "transactionIndex": "0x1",
      "blockHash": "0x49b2cd09a9e5f7eba60ff8fc74fcb8d9eb916c2d865f4c6f3ba204a293da2409",
      "blockNumber": "0x34fede",
      "gasUsed": "0x10fe5",
      "effectiveGasPrice": "0xfc",
      "from": "0xe3fd5228ac2d2c15856959f9e27a4671c5d45958",
      "to": "0x78cbb3413fbb6af05ef1d21e646440e56bae3ad6",
      "contractAddress": null,
      "l1BaseFeeScalar": "0x558",
      "l1BlobBaseFee": "0x2e59fe4ca5",
      "l1BlobBaseFeeScalar": "0xc5fc5",
      "l1Fee": "0x1019f4a2c2da",
      "l1GasPrice": "0x7c84527",
      "l1GasUsed": "0x6da"
    },
    {
      "status": "0x1",
      "cumulativeGasUsed": "0x2e94f",
      "logs": [
        {
          "address": "0x4200000000000000000000000000000000000020",
          "topics": [
            "0xd0b86852e21f9e5fa4bc3b0cff9757ffe243d50c4b43968a42202153d651ea5e",
            "0xf586ce04b9280ee14897768d9c09b0e852908f9c719b87212ffa5722b6a47ba7",
            "0x000000000000000000000000e3fd5228ac2d2c15856959f9e27a4671c5d45958"
          ],
          "data": "0x0000000000000000000000000000000000000000000000000000000000000020f586ce04b9280ee14897768d9c09b0e852908f9c719b87212ffa5722b6a47ba70000000000000000000000006ffa7abc1e380bb967c78d5e648ef804e1fe6dad00000000000000000000000000000000000000000000000000000000000000010000000000000000000000000000000000000000000000000000000000000080000000000000000000000000000000000000000000000000000000000000003275696e7432353620636f696e547970652c75696e74363420736e617073686f7441742c75696e743235362062616c616e63650000000000000000000000000000",
          "blockHash": "0x6a0bcf7b8b14686cbc0605b1f39682cc30e7d9820bab3bd34f48efd7cef93247",
          "blockNumber": "0x34fee2",
          "transactionHash": "0x1a616009e2b2802bb212de7ba2981e98d67719f4e65900e24f0ac55956962ce3",
          "transactionIndex": "0x1",
          "logIndex": "0x0",
          "removed": false
        }
      ],
      "logsBloom": "0x00000000000000000000000000000000000000000000000000000000000800000000000000000000000000000000000000000000000000000000000000000000000000000000000000008000000000000000000000000000000000000000000000000008000000000000000000000000000000000000000000000000000000400000000000000000000000000000000080000000000000810000000000000000000000040000000010000000001000000000000000000000000000000000000000000000000000000000000000000000002000000000000000000000000000080000000000000000000000000000000000000000000000000000000000000000",
      "type": "0x2",
      "transactionHash": "0x1a616009e2b2802bb212de7ba2981e98d67719f4e65900e24f0ac55956962ce3",
      "transactionIndex": "0x1",
      "blockHash": "0x6a0bcf7b8b14686cbc0605b1f39682cc30e7d9820bab3bd34f48efd7cef93247",
      "blockNumber": "0x34fee2",
      "gasUsed": "0x234eb",
      "effectiveGasPrice": "0xfc",
      "from": "0xe3fd5228ac2d2c15856959f9e27a4671c5d45958",
      "to": "0x4200000000000000000000000000000000000020",
      "contractAddress": null,
      "l1BaseFeeScalar": "0x558",
      "l1BlobBaseFee": "0x2e59fe4ca5",
      "l1BlobBaseFeeScalar": "0xc5fc5",
      "l1Fee": "0x128ed383d60d",
      "l1GasPrice": "0x7c84527",
      "l1GasUsed": "0x7e6"
    },
    {
      "status": "0x1",
      "cumulativeGasUsed": "0x1d519",
      "logs": [
        {
          "address": "0x78cbb3413fbb6af05ef1d21e646440e56bae3ad6",
          "topics": [
            "0x563ebecbb9df1c7112240e62907d4eb34dce7d568194f648e126e148bd9f275b",
            "0x06c3bd846f5ea60b0b6f5a835ef85fd8253b53f67917d6c690be628d032f841b",
            "0xf586ce04b9280ee14897768d9c09b0e852908f9c719b87212ffa5722b6a47ba7"
          ],
          "data": "0x",
          "blockHash": "0x31e8b56987f571aa668abc1b3d3182f9e8baacd8ba66014f5388cd114143a846",
          "blockNumber": "0x34fee5",
          "transactionHash": "0x52ccd8895e0b0c3650030c2a407971c8d8fc836ae835e724e6b07a1afcb3b3f7",
          "transactionIndex": "0x1",
          "logIndex": "0x0",
          "removed": false
        }
      ],
      "logsBloom": "0x00000000000000000000000000000000020000000000000000000000000000000000000000000000000000000000400000000000000000000000000000000000000000000000000000020000000000000000000000000000000000000000000000000000000000000000000000000200000000000000000000000000000100400000000000000000000010000000000500000000000000000000000000000000000000000000000000000000001000000000000000400000000000000000000000000000000000000000000000000000000000000000000000000000000000080000000000000000000000000000000000000000000000000000000000000000",
      "type": "0x2",
      "transactionHash": "0x52ccd8895e0b0c3650030c2a407971c8d8fc836ae835e724e6b07a1afcb3b3f7",
      "transactionIndex": "0x1",
      "blockHash": "0x31e8b56987f571aa668abc1b3d3182f9e8baacd8ba66014f5388cd114143a846",
      "blockNumber": "0x34fee5",
      "gasUsed": "0x120b5",
      "effectiveGasPrice": "0xfc",
      "from": "0xe3fd5228ac2d2c15856959f9e27a4671c5d45958",
      "to": "0x78cbb3413fbb6af05ef1d21e646440e56bae3ad6",
      "contractAddress": null,
      "l1BaseFeeScalar": "0x558",
      "l1BlobBaseFee": "0x279d77483e",
      "l1BlobBaseFeeScalar": "0xc5fc5",
      "l1Fee": "0xdc2e9e3f2cd",
      "l1GasPrice": "0x86cd76b",
      "l1GasUsed": "0x6da"
    }
  ],
  "libraries": [],
  "pending": [],
  "returns": {},
  "timestamp": 1756818433966,
  "chain": 91342,
  "commit": "7183f03"
}