{
  "transactions": [
    {
      "hash": "0x4aa2681a2c03c3256bfe86d607f4e636c516c159e187ae030324d981999bddca",
      "transactionType": "CREATE",
      "contractName": "BalanceRootDojangResolver",
      "contractAddress": "0x860181523de41ae0e7df7944f3be06818f47505e",
      "function": null,
      "arguments": null,
      "transaction": {
        "from": "0x0027b0882c92a1a86c5885fed632667e81e49e5f",
        "gas": "0x2305e3",
        "value": "0x0",
        "input": "0x60a080604052346100c257306080525f516020611f755f395f51905f525460ff8160401c166100b3576002600160401b03196001600160401b03821601610060575b604051611eae90816100c78239608051818181610a1e0152610b3d0152f35b6001600160401b0319166001600160401b039081175f516020611f755f395f51905f525581527fc7f505b2f371ae2175ee4913f4499e1f2633a7b5936321eed1cdaeb6115181d290602090a15f80610041565b63f92ee8a960e01b5f5260045ffd5b5f80fdfe6080806040526004361015610042575b50361561001a575f80fd5b7f1574f9f3000000000000000000000000000000000000000000000000000000005f5260045ffd5b5f3560e01c90816301ffc9a71461115857508063248a9ca3146110e85780632f2ff15d1461106d57806336568abe14610fe55780633b431e9214610e765780634f1ef28614610a9657806352d1902d146109d957806354fd4d5014610964578063723275531461083757806388e5b2d91461078a57806391d14854146106f657806391db0b7e146106d7578063a217fddf14610257578063ad3cb1cc1461065e578063c4d66de8146103ba578063cc78fef11461028f578063ce46e04614610257578063d547741f146101d5578063e49617e1146101b8578063e60c3505146101915763f72c0d8b14610135575f61000f565b3461018d575f7ffffffffffffffffffffffffffffffffffffffffffffffffffffffffffffffffc36011261018d5760206040517f5b437c77573c20c7ba441302748381a65e029cf6e602320d44b325b937c3dd9c8152f35b5f80fd5b60206101ae61019f366113eb565b6101a761192a565b349061196f565b6040519015158152f35b6101c1366113eb565b506101ca61192a565b602060405160018152f35b3461018d5760407ffffffffffffffffffffffffffffffffffffffffffffffffffffffffffffffffc36011261018d57610255600435610212611214565b9061025061024b825f527f02dd7bc7dec4dceedda775e58dd541e08a116c6c53815c0bd028192f7b626800602052600160405f20015490565b6115a3565b611822565b005b3461018d575f7ffffffffffffffffffffffffffffffffffffffffffffffffffffffffffffffffc36011261018d5760206040515f8152f35b3461018d5760207ffffffffffffffffffffffffffffffffffffffffffffffffffffffffffffffffc36011261018d5773ffffffffffffffffffffffffffffffffffffffff6102db611237565b6102e361153b565b16805f527fd852276f09be10fac28953842991572f8a5e8e0a6613bca011479db2d659a50060205260ff60405f2054161561038f57805f527fd852276f09be10fac28953842991572f8a5e8e0a6613bca011479db2d659a50060205260405f207fffffffffffffffffffffffffffffffffffffffffffffffffffffffffffffff0081541690557f368846ed588a2fb12b4fabffde520ad537df26ea80ad789b60afc37c5cc7fe6b5f80a2005b7fd5c40fc8000000000000000000000000000000000000000000000000000000005f5260045260245ffd5b3461018d5760207ffffffffffffffffffffffffffffffffffffffffffffffffffffffffffffffffc36011261018d576103f1611237565b7ff0c57e16840df040f15088dc2f81fe391c3923bec73e23a9662efc9c229c6a00549060ff8260401c16159167ffffffffffffffff811680159081610656575b600114908161064c575b159081610643575b5061061b578260017fffffffffffffffffffffffffffffffffffffffffffffffff00000000000000008316177ff0c57e16840df040f15088dc2f81fe391c3923bec73e23a9662efc9c229c6a00556105c6575b5073ffffffffffffffffffffffffffffffffffffffff81161561059e57610504906104bf611c03565b6104c7611c03565b6104cf611c03565b6104d7611c03565b6104df611c03565b6104e7611c03565b6104ef611c03565b6104f7611c03565b6104ff611c03565b611629565b5061050b57005b7fffffffffffffffffffffffffffffffffffffffffffffff00ffffffffffffffff7ff0c57e16840df040f15088dc2f81fe391c3923bec73e23a9662efc9c229c6a0054167ff0c57e16840df040f15088dc2f81fe391c3923bec73e23a9662efc9c229c6a00557fc7f505b2f371ae2175ee4913f4499e1f2633a7b5936321eed1cdaeb6115181d2602060405160018152a1005b7fd92e233d000000000000000000000000000000000000000000000000000000005f5260045ffd5b7fffffffffffffffffffffffffffffffffffffffffffffff0000000000000000001668010000000000000001177ff0c57e16840df040f15088dc2f81fe391c3923bec73e23a9662efc9c229c6a005582610496565b7ff92ee8a9000000000000000000000000000000000000000000000000000000005f5260045ffd5b90501584610443565b303b15915061043b565b849150610431565b3461018d575f7ffffffffffffffffffffffffffffffffffffffffffffffffffffffffffffffffc36011261018d576106d360405161069d60408261125a565b600581527f352e302e30000000000000000000000000000000000000000000000000000000602082015260405191829182611302565b0390f35b60206101ae6106e53661137b565b926106f192919261192a565b6114d8565b3461018d5760407ffffffffffffffffffffffffffffffffffffffffffffffffffffffffffffffffc36011261018d5761072d611214565b6004355f527f02dd7bc7dec4dceedda775e58dd541e08a116c6c53815c0bd028192f7b62680060205273ffffffffffffffffffffffffffffffffffffffff60405f2091165f52602052602060ff60405f2054166040519015158152f35b6107933661137b565b61079e92919261192a565b80820361080f575f90345b8383106107bc5760405160018152602090f35b6107c783838761145b565b358181116107e7576001916107dd85878a611498565b50039201916107a9565b7f11011294000000000000000000000000000000000000000000000000000000005f5260045ffd5b7f947d5a84000000000000000000000000000000000000000000000000000000005f5260045ffd5b3461018d5760207ffffffffffffffffffffffffffffffffffffffffffffffffffffffffffffffffc36011261018d5773ffffffffffffffffffffffffffffffffffffffff610883611237565b61088b61153b565b16805f527fd852276f09be10fac28953842991572f8a5e8e0a6613bca011479db2d659a50060205260ff60405f20541661093957805f527fd852276f09be10fac28953842991572f8a5e8e0a6613bca011479db2d659a50060205260405f2060017fffffffffffffffffffffffffffffffffffffffffffffffffffffffffffffff008254161790557f84c8e535ea2c772fdcaab7fd1c78efb11d06931c5d61fd4b75fbff891da9cc005f80a2005b7f797f004b000000000000000000000000000000000000000000000000000000005f5260045260245ffd5b3461018d575f7ffffffffffffffffffffffffffffffffffffffffffffffffffffffffffffffffc36011261018d576106d36040516109a360408261125a565b600581527f302e342e30000000000000000000000000000000000000000000000000000000602082015260405191829182611302565b3461018d575f7ffffffffffffffffffffffffffffffffffffffffffffffffffffffffffffffffc36011261018d5773ffffffffffffffffffffffffffffffffffffffff7f0000000000000000000000000000000000000000000000000000000000000000163003610a6e5760206040517f360894a13ba1a3210667c828492db98dca3e2076cc3735a920a3ca505d382bbc8152f35b7fe07c8dba000000000000000000000000000000000000000000000000000000005f5260045ffd5b60407ffffffffffffffffffffffffffffffffffffffffffffffffffffffffffffffffc36011261018d57610ac8611237565b6024359067ffffffffffffffff821161018d573660238301121561018d57816004013590610af5826112c8565b91610b03604051938461125a565b8083526020830193366024838301011161018d57815f9260246020930187378401015273ffffffffffffffffffffffffffffffffffffffff7f000000000000000000000000000000000000000000000000000000000000000016803014908115610e34575b50610a6e57335f9081527fa7c748a0701bf0a1a4a6b4f3ce71901446b87b93264dfc56e3cb1c27dd621a0c602052604090205460ff1615610de45773ffffffffffffffffffffffffffffffffffffffff8116926040517f52d1902d000000000000000000000000000000000000000000000000000000008152602081600481885afa5f9181610db0575b50610c2357847f4c9c8ce3000000000000000000000000000000000000000000000000000000005f5260045260245ffd5b807f360894a13ba1a3210667c828492db98dca3e2076cc3735a920a3ca505d382bbc869203610d855750823b15610d5a57807fffffffffffffffffffffffff00000000000000000000000000000000000000007f360894a13ba1a3210667c828492db98dca3e2076cc3735a920a3ca505d382bbc5416177f360894a13ba1a3210667c828492db98dca3e2076cc3735a920a3ca505d382bbc557fbc7cd75a20ee27fd9adebab32041f755214dbc6bffa90cc0225b39da2e5c2d3b5f80a2825115610d28575f8091610255945190845af43d15610d20573d91610d04836112c8565b92610d12604051948561125a565b83523d5f602085013e611c5a565b606091611c5a565b50505034610d3257005b7fb398979f000000000000000000000000000000000000000000000000000000005f5260045ffd5b7f4c9c8ce3000000000000000000000000000000000000000000000000000000005f5260045260245ffd5b7faa1d49a4000000000000000000000000000000000000000000000000000000005f5260045260245ffd5b9091506020813d602011610ddc575b81610dcc6020938361125a565b8101031261018d57519086610bf2565b3d9150610dbf565b7fe2517d3f000000000000000000000000000000000000000000000000000000005f52336004527f5b437c77573c20c7ba441302748381a65e029cf6e602320d44b325b937c3dd9c60245260445ffd5b905073ffffffffffffffffffffffffffffffffffffffff7f360894a13ba1a3210667c828492db98dca3e2076cc3735a920a3ca505d382bbc5416141584610b68565b3461018d5760207ffffffffffffffffffffffffffffffffffffffffffffffffffffffffffffffffc36011261018d5773ffffffffffffffffffffffffffffffffffffffff610ec2611237565b610eca61153b565b1680158015610fa5575b610f7d5773ffffffffffffffffffffffffffffffffffffffff7f44f120633ccf0f854028131b81d579e99e6e4df5270421d3e7204395a7a7590054827fffffffffffffffffffffffff00000000000000000000000000000000000000008216177f44f120633ccf0f854028131b81d579e99e6e4df5270421d3e7204395a7a7590055167fdf6a4c0e90a44c131ffe0dbf3a01863d23b8d807746d5342bf774d7bbf92207c5f80a3005b7fddee2104000000000000000000000000000000000000000000000000000000005f5260045ffd5b5073ffffffffffffffffffffffffffffffffffffffff7f44f120633ccf0f854028131b81d579e99e6e4df5270421d3e7204395a7a7590054168114610ed4565b3461018d5760407ffffffffffffffffffffffffffffffffffffffffffffffffffffffffffffffffc36011261018d5761101c611214565b3373ffffffffffffffffffffffffffffffffffffffff8216036110455761025590600435611822565b7f6697b232000000000000000000000000000000000000000000000000000000005f5260045ffd5b3461018d5760407ffffffffffffffffffffffffffffffffffffffffffffffffffffffffffffffffc36011261018d576102556004356110aa611214565b906110e361024b825f527f02dd7bc7dec4dceedda775e58dd541e08a116c6c53815c0bd028192f7b626800602052600160405f20015490565b611710565b3461018d5760207ffffffffffffffffffffffffffffffffffffffffffffffffffffffffffffffffc36011261018d5760206111506004355f527f02dd7bc7dec4dceedda775e58dd541e08a116c6c53815c0bd028192f7b626800602052600160405f20015490565b604051908152f35b3461018d5760207ffffffffffffffffffffffffffffffffffffffffffffffffffffffffffffffffc36011261018d57600435907fffffffff00000000000000000000000000000000000000000000000000000000821680920361018d57817f7965db0b00000000000000000000000000000000000000000000000000000000602093149081156111ea575b5015158152f35b7f01ffc9a700000000000000000000000000000000000000000000000000000000915014836111e3565b6024359073ffffffffffffffffffffffffffffffffffffffff8216820361018d57565b6004359073ffffffffffffffffffffffffffffffffffffffff8216820361018d57565b90601f7fffffffffffffffffffffffffffffffffffffffffffffffffffffffffffffffe0910116810190811067ffffffffffffffff82111761129b57604052565b7f4e487b71000000000000000000000000000000000000000000000000000000005f52604160045260245ffd5b67ffffffffffffffff811161129b57601f017fffffffffffffffffffffffffffffffffffffffffffffffffffffffffffffffe01660200190565b7fffffffffffffffffffffffffffffffffffffffffffffffffffffffffffffffe0601f602060409481855280519182918282880152018686015e5f8582860101520116010190565b9181601f8401121561018d5782359167ffffffffffffffff831161018d576020808501948460051b01011161018d57565b60407ffffffffffffffffffffffffffffffffffffffffffffffffffffffffffffffffc82011261018d5760043567ffffffffffffffff811161018d57816113c49160040161134a565b929092916024359067ffffffffffffffff821161018d576113e79160040161134a565b9091565b60207ffffffffffffffffffffffffffffffffffffffffffffffffffffffffffffffffc82011261018d576004359067ffffffffffffffff821161018d577ffffffffffffffffffffffffffffffffffffffffffffffffffffffffffffffffc826101409203011261018d5760040190565b919081101561146b5760051b0190565b7f4e487b71000000000000000000000000000000000000000000000000000000005f52603260045260245ffd5b919081101561146b5760051b810135907ffffffffffffffffffffffffffffffffffffffffffffffffffffffffffffffec18136030182121561018d570190565b91929081810361080f575f91345b8284106114f857505050505050600190565b61150384838861145b565b358181116107e75761151f8161151a87878a611498565b61196f565b1561153057600191039301926114e6565b505050505050505f90565b335f9081527fb7db2dd08fcb62d0c9e08c51941cae53c267786a0b75803fb7960902fc8ef97d602052604090205460ff161561157357565b7fe2517d3f000000000000000000000000000000000000000000000000000000005f52336004525f60245260445ffd5b805f527f02dd7bc7dec4dceedda775e58dd541e08a116c6c53815c0bd028192f7b62680060205260405f2073ffffffffffffffffffffffffffffffffffffffff33165f5260205260ff60405f205416156115fa5750565b7fe2517d3f000000000000000000000000000000000000000000000000000000005f523360045260245260445ffd5b73ffffffffffffffffffffffffffffffffffffffff81165f9081527fb7db2dd08fcb62d0c9e08c51941cae53c267786a0b75803fb7960902fc8ef97d602052604090205460ff1661170b5773ffffffffffffffffffffffffffffffffffffffff165f8181527fb7db2dd08fcb62d0c9e08c51941cae53c267786a0b75803fb7960902fc8ef97d6020526040812080547fffffffffffffffffffffffffffffffffffffffffffffffffffffffffffffff001660011790553391907f2f8788117e7eff1d82e926ec794901d17c78024a50270940304540a733656f0d8180a4600190565b505f90565b805f527f02dd7bc7dec4dceedda775e58dd541e08a116c6c53815c0bd028192f7b62680060205260405f2073ffffffffffffffffffffffffffffffffffffffff83165f5260205260ff60405f205416155f1461181c57805f527f02dd7bc7dec4dceedda775e58dd541e08a116c6c53815c0bd028192f7b62680060205260405f2073ffffffffffffffffffffffffffffffffffffffff83165f5260205260405f2060017fffffffffffffffffffffffffffffffffffffffffffffffffffffffffffffff0082541617905573ffffffffffffffffffffffffffffffffffffffff339216907f2f8788117e7eff1d82e926ec794901d17c78024a50270940304540a733656f0d5f80a4600190565b50505f90565b805f527f02dd7bc7dec4dceedda775e58dd541e08a116c6c53815c0bd028192f7b62680060205260405f2073ffffffffffffffffffffffffffffffffffffffff83165f5260205260ff60405f2054165f1461181c57805f527f02dd7bc7dec4dceedda775e58dd541e08a116c6c53815c0bd028192f7b62680060205260405f2073ffffffffffffffffffffffffffffffffffffffff83165f5260205260405f207fffffffffffffffffffffffffffffffffffffffffffffffffffffffffffffff00815416905573ffffffffffffffffffffffffffffffffffffffff339216907ff6391f5c32d9c69d2a47ea670b442974b53935d1edc7fd64eb21e047a839171b5f80a4600190565b734200000000000000000000000000000000000021330361194757565b7f4ca88867000000000000000000000000000000000000000000000000000000005f5260045ffd5b6119989150610120810161198e6119868284611b59565b810190611baa565b9396909296611cf3565b5115159586611b41575b5085611b1d575b5084611b13575b5083611b09575b5082611ab0575b826119c857505090565b819250611986906119d892611b59565b50505067ffffffffffffffff604051916020830193845216604082015260408152611a0460608261125a565b51902073ffffffffffffffffffffffffffffffffffffffff7f44f120633ccf0f854028131b81d579e99e6e4df5270421d3e7204395a7a75900541691823b1561018d5760445f928360405195869485937f9b1a175f00000000000000000000000000000000000000000000000000000000855260048501523560248401525af18015611aa557611a95575b50600190565b5f611a9f9161125a565b5f611a8f565b6040513d5f823e3d90fd5b915060e081013573ffffffffffffffffffffffffffffffffffffffff811680910361018d575f527fd852276f09be10fac28953842991572f8a5e8e0a6613bca011479db2d659a50060205260ff60405f205416916119be565b151592505f6119b7565b151593505f6119b0565b77ffffffffffffffffffffffffffffffffffffffffffffffff16151594505f6119a9565b67ffffffffffffffff4281169116111595505f6119a2565b9035907fffffffffffffffffffffffffffffffffffffffffffffffffffffffffffffffe18136030182121561018d570180359067ffffffffffffffff821161018d5760200191813603831361018d57565b908160a091031261018d57803591602082013567ffffffffffffffff8116810361018d5791604081013577ffffffffffffffffffffffffffffffffffffffffffffffff8116810361018d57916080606083013592013590565b60ff7ff0c57e16840df040f15088dc2f81fe391c3923bec73e23a9662efc9c229c6a005460401c1615611c3257565b7fd7e6bcf8000000000000000000000000000000000000000000000000000000005f5260045ffd5b90611c975750805115611c6f57805190602001fd5b7fd6bda275000000000000000000000000000000000000000000000000000000005f5260045ffd5b81511580611cea575b611ca8575090565b73ffffffffffffffffffffffffffffffffffffffff907f9996b315000000000000000000000000000000000000000000000000000000005f521660045260245ffd5b50803b15611ca0565b8060f81c908115808015611e6e575b611e5d576107f87effffffffffffffffffffffffffffffffffffffffffffffffffffffffffffff83169260f51c16908382046008141715611e305781901c611e2057611d4d826112c8565b90611d5b604051928361125a565b8282527fffffffffffffffffffffffffffffffffffffffffffffffffffffffffffffffe0611d88846112c8565b013660208401375f5b838110611d9f575050905090565b818160031b1c9060ff821660218110908115611e15575b50611dfb57835181101561146b577fff0000000000000000000000000000000000000000000000000000000000000060019260f81b165f1a6020828601015301611d91565b50505050506020611e0f604051918261125a565b5f815290565b607e9150115f611db6565b5050604051611e0f60208261125a565b7f4e487b71000000000000000000000000000000000000000000000000000000005f52601160045260245ffd5b505050604051611e0f60208261125a565b50601f8311611d0256fea264697066735822122018dbd667a592cccd8f1b6fae242ebcd0f4a48f9f4519add0ae9a95a88a2eb46664736f6c634300081e0033f0c57e16840df040f15088dc2f81fe391c3923bec73e23a9662efc9c229c6a00",
        "nonce": "0x1a",
        "chainId": "0x164ce"
      },
      "additionalContracts": [],
      "isFixedGasLimit": false
    },
    {
      "hash": "0xde58d8753eb5de3c53d40e1045d5b2048da4aabd4785b22f501f41fb2b6068bc",
      "transactionType": "CREATE",
      "contractName": "ERC1967Proxy",
      "contractAddress": "0xd90a964ab65bc02397de1e7fcbd230803bc1bed0",
      "function": null,
      "arguments": [
        "0x860181523de41aE0E7df7944F3be06818f47505e",
        "0xc4d66de8000000000000000000000000e3fd5228ac2d2c15856959f9e27a4671c5d45958"
      ],
      "transaction": {
        "from": "0x0027b0882c92a1a86c5885fed632667e81e49e5f",
        "gas": "0x3600c",
        "value": "0x0",
        "input": "0x60806040526102a88038038061001481610168565b92833981016040828203126101645781516001600160a01b03811692909190838303610164576020810151906001600160401b03821161016457019281601f8501121561016457835161006e610069826101a1565b610168565b9481865260208601936020838301011161016457815f926020809301865e86010152823b15610152577f360894a13ba1a3210667c828492db98dca3e2076cc3735a920a3ca505d382bbc80546001600160a01b031916821790557fbc7cd75a20ee27fd9adebab32041f755214dbc6bffa90cc0225b39da2e5c2d3b5f80a282511561013a575f8091610122945190845af43d15610132573d91610113610069846101a1565b9283523d5f602085013e6101bc565b505b604051608d908161021b8239f35b6060916101bc565b50505034156101245763b398979f60e01b5f5260045ffd5b634c9c8ce360e01b5f5260045260245ffd5b5f80fd5b6040519190601f01601f191682016001600160401b0381118382101761018d57604052565b634e487b7160e01b5f52604160045260245ffd5b6001600160401b03811161018d57601f01601f191660200190565b906101e057508051156101d157805190602001fd5b63d6bda27560e01b5f5260045ffd5b81511580610211575b6101f1575090565b639996b31560e01b5f9081526001600160a01b0391909116600452602490fd5b50803b156101e956fe60806040525f8073ffffffffffffffffffffffffffffffffffffffff7f360894a13ba1a3210667c828492db98dca3e2076cc3735a920a3ca505d382bbc5416368280378136915af43d5f803e156053573d5ff35b3d5ffdfea264697066735822122032d90b838fc99d10cc336ac5972d0cc0069270d376be6ff7edd38e874adcb70564736f6c634300081e0033000000000000000000000000860181523de41ae0e7df7944f3be06818f47505e00000000000000000000000000000000000000000000000000000000000000400000000000000000000000000000000000000000000000000000000000000024c4d66de8000000000000000000000000e3fd5228ac2d2c15856959f9e27a4671c5d4595800000000000000000000000000000000000000000000000000000000",
        "nonce": "0x1b",
        "chainId": "0x164ce"
      },
      "additionalContracts": [],
      "isFixedGasLimit": false
    },
    {
      "hash": "0xa1550c905c73db2c0758ac12ece00f5e008957f459e3d76a0b80923750593b4c",
      "transactionType": "CALL",
      "contractName": "ERC1967Proxy",
      "contractAddress": "0xd90a964ab65bc02397de1e7fcbd230803bc1bed0",
      "function": null,
      "arguments": null,
      "transaction": {
        "from": "0xe3fd5228ac2d2c15856959f9e27a4671c5d45958",
        "to": "0xd90a964ab65bc02397de1e7fcbd230803bc1bed0",
        "gas": "0x12d66",
        "value": "0x0",
        "input": "0x2f2ff15d5b437c77573c20c7ba441302748381a65e029cf6e602320d44b325b937c3dd9c000000000000000000000000d72b48ed00b67d756408a140435d8ef101f4a377",
        "nonce": "0x17",
        "chainId": "0x164ce"
      },
      "additionalContracts": [],
      "isFixedGasLimit": false
    },
    {
      "hash": "0x2cf5144c6a8c13c2e8577a1989c490b63fe4b296705a12c2f2848c45463a50ee",
      "transactionType": "CALL",
      "contractName": "ERC1967Proxy",
      "contractAddress": "0xd90a964ab65bc02397de1e7fcbd230803bc1bed0",
      "function": null,
      "arguments": null,
      "transaction": {
        "from": "0xe3fd5228ac2d2c15856959f9e27a4671c5d45958",
        "to": "0xd90a964ab65bc02397de1e7fcbd230803bc1bed0",
        "gas": "0x12c0d",
        "value": "0x0",
        "input": "0x3b431e920000000000000000000000009c9bf29880448ab39795a11b669e22a0f1d790ec",
        "nonce": "0x18",
        "chainId": "0x164ce"
      },
      "additionalContracts": [],
      "isFixedGasLimit": false
    },
    {
      "hash": "0x200c5bb22afcf23d73fedcaa9d3e3366aa6c31c6db081eb68b95a48947452c7c",
      "transactionType": "CALL",
      "contractName": null,
      "contractAddress": "0x4200000000000000000000000000000000000020",
      "function": "register(string,address,bool)",
      "arguments": [
        "uint256 balance,bytes32 salt,bytes32[] proofs",
        "0x6FFa7ABc1E380Bb967C78D5E648EF804e1fE6dAd",
        "true"
      ],
      "transaction": {
        "from": "0xe3fd5228ac2d2c15856959f9e27a4671c5d45958",
        "to": "0x4200000000000000000000000000000000000020",
        "gas": "0x30bf6",
        "value": "0x0",
        "input": "0x60d7a27800000000000000000000000000000000000000000000000000000000000000600000000000000000000000006ffa7abc1e380bb967c78d5e648ef804e1fe6dad0000000000000000000000000000000000000000000000000000000000000001000000000000000000000000000000000000000000000000000000000000002d75696e743235362062616c616e63652c627974657333322073616c742c627974657333325b5d2070726f6f667300000000000000000000000000000000000000",
        "nonce": "0x19",
        "chainId": "0x164ce"
      },
      "additionalContracts": [],
      "isFixedGasLimit": false
    },
    {
      "hash": "0xcf3f23386e67b7df280a04085e59d78be4a003c8af5102b0665acee03d65a436",
      "transactionType": "CALL",
      "contractName": null,
      "contractAddress": "0x78cbb3413fbb6af05ef1d21e646440e56bae3ad6",
      "function": "unregister(bytes32)",
      "arguments": [
        "0x06c3bd846f5ea60b0b6f5a835ef85fd8253b53f67917d6c690be628d032f841b"
      ],
      "transaction": {
        "from": "0xe3fd5228ac2d2c15856959f9e27a4671c5d45958",
        "to": "0x78cbb3413fbb6af05ef1d21e646440e56bae3ad6",
        "gas": "0xa304",
        "value": "0x0",
        "input": "0x1a0919dc06c3bd846f5ea60b0b6f5a835ef85fd8253b53f67917d6c690be628d032f841b",
        "nonce": "0x1a",
        "chainId": "0x164ce"
      },
      "additionalContracts": [],
      "isFixedGasLimit": false
    },
    {
      "hash": "0x539ea350452a58e4dcced2972563af5c3d1f110255f0b96be7984db96cc5b348",
      "transactionType": "CALL",
      "contractName": null,
      "contractAddress": "0x78cbb3413fbb6af05ef1d21e646440e56bae3ad6",
      "function": "register(bytes32,bytes32)",
      "arguments": [
        "0x06c3bd846f5ea60b0b6f5a835ef85fd8253b53f67917d6c690be628d032f841b",
        "0x77bf88ca262cc63e1b185dccd870aacc5320b8987ef6c7169920f265fe6ab5e9"
      ],
      "transaction": {
        "from": "0xe3fd5228ac2d2c15856959f9e27a4671c5d45958",
        "to": "0x78cbb3413fbb6af05ef1d21e646440e56bae3ad6",
        "gas": "0x1a6aa",
        "value": "0x0",
        "input": "0x2f92673206c3bd846f5ea60b0b6f5a835ef85fd8253b53f67917d6c690be628d032f841b77bf88ca262cc63e1b185dccd870aacc5320b8987ef6c7169920f265fe6ab5e9",
        "nonce": "0x1b",
        "chainId": "0x164ce"
      },
      "additionalContracts": [],
      "isFixedGasLimit": false
    },
    {
      "hash": "0xca25ed31c8c114b0ac7b0307b0ad2da7abef60f7ff43882555d39fa4adbceb7f",
      "transactionType": "CALL",
      "contractName": null,
      "contractAddress": "0x4200000000000000000000000000000000000020",
      "function": "register(string,address,bool)",
      "arguments": [
        "uint256 coinType,uint64 snapshotAt,uint192 leafCount,uint256 totalAmount,bytes32 root",
        "0xD90a964aB65bc02397De1E7fcBd230803bC1bEd0",
        "true"
      ],
      "transaction": {
        "from": "0xe3fd5228ac2d2c15856959f9e27a4671c5d45958",
        "to": "0x4200000000000000000000000000000000000020",
        "gas": "0x3892e",
        "value": "0x0",
        "input": "0x60d7a2780000000000000000000000000000000000000000000000000000000000000060000000000000000000000000d90a964ab65bc02397de1e7fcbd230803bc1bed00000000000000000000000000000000000000000000000000000000000000001000000000000000000000000000000000000000000000000000000000000005575696e7432353620636f696e547970652c75696e74363420736e617073686f7441742c75696e74313932206c656166436f756e742c75696e7432353620746f74616c416d6f756e742c6279746573333220726f6f740000000000000000000000",
        "nonce": "0x1c",
        "chainId": "0x164ce"
      },
      "additionalContracts": [],
      "isFixedGasLimit": false
    },
    {
      "hash": "0xeaa83319aaf1696cd49719da15b12edac585400f662506b116543f7bb5564759",
      "transactionType": "CALL",
      "contractName": null,
      "contractAddress": "0x78cbb3413fbb6af05ef1d21e646440e56bae3ad6",
      "function": "register(bytes32,bytes32)",
      "arguments": [
        "0xf09c1384d860519bb4ea5bb2a45ab64b00a8d900d47fb79203663be6da21e06c",
        "0x369faa9c2cd261c45be3db5e230b585f5f1abecf8e12be575bb543e917e6db52"
      ],
      "transaction": {
        "from": "0xe3fd5228ac2d2c15856959f9e27a4671c5d45958",
        "to": "0x78cbb3413fbb6af05ef1d21e646440e56bae3ad6",
        "gas": "0x1b355",
        "value": "0x0",
        "input": "0x2f926732f09c1384d860519bb4ea5bb2a45ab64b00a8d900d47fb79203663be6da21e06c369faa9c2cd261c45be3db5e230b585f5f1abecf8e12be575bb543e917e6db52",
        "nonce": "0x1d",
        "chainId": "0x164ce"
      },
      "additionalContracts": [],
      "isFixedGasLimit": false
    },
    {
      "hash": "0x598b8a1f43c0f9e1406afbb456cd6ae9849a69cfefb4d3bd9591dce49260a23a",
      "transactionType": "CALL",
      "contractName": null,
      "contractAddress": "0x6ffa7abc1e380bb967c78d5e648ef804e1fe6dad",
      "function": "setBalanceRootSchemaUID(bytes32)",
      "arguments": [
        "0x369faa9c2cd261c45be3db5e230b585f5f1abecf8e12be575bb543e917e6db52"
      ],
      "transaction": {
        "from": "0xe3fd5228ac2d2c15856959f9e27a4671c5d45958",
        "to": "0x6ffa7abc1e380bb967c78d5e648ef804e1fe6dad",
        "gas": "0x12c98",
        "value": "0x0",
        "input": "0xa344bbe8369faa9c2cd261c45be3db5e230b585f5f1abecf8e12be575bb543e917e6db52",
        "nonce": "0x1e",
        "chainId": "0x164ce"
      },
      "additionalContracts": [],
      "isFixedGasLimit": false
    }
  ],
  "receipts": [
    {
      "status": "0x1",
      "cumulativeGasUsed": "0x1efda3",
      "logs": [
        {
          "address": "0x860181523de41ae0e7df7944f3be06818f47505e",
          "topics": [
            "0xc7f505b2f371ae2175ee4913f4499e1f2633a7b5936321eed1cdaeb6115181d2"
          ],
          "data": "0x000000000000000000000000000000000000000000000000ffffffffffffffff",
          "blockHash": "0xd774b7efe5c1b1a2f19939cf9a1c9da133883257c9425bb517b0427ad01d7a5f",
          "blockNumber": "0xa2495a",
          "blockTimestamp": "0x692435b6",
          "transactionHash": "0x4aa2681a2c03c3256bfe86d607f4e636c516c159e187ae030324d981999bddca",
          "transactionIndex": "0x2",
          "logIndex": "0x1",
          "removed": false
        }
      ],
      "logsBloom": "0x00000000000000000000000000000000000000000000000000000000000000000000000000000000000000000000000000000000000000000000000000000000000000000000000000000000000000000000000000000000000000000000000000000000000000200000000000000000000000000000000000000000000000000000000000000000000800000000000000000000000080000000000000000000000000000000000000000000000001000000000000000000000000000004000000000000000000000000000000000000000000000004000000000000000000000000000000000000000000000000000000000000000000000000000000000000",
      "type": "0x2",
      "transactionHash": "0x4aa2681a2c03c3256bfe86d607f4e636c516c159e187ae030324d981999bddca",
      "transactionIndex": "0x2",
      "blockHash": "0xd774b7efe5c1b1a2f19939cf9a1c9da133883257c9425bb517b0427ad01d7a5f",
      "blockNumber": "0xa2495a",
      "gasUsed": "0x1af0d6",
      "effectiveGasPrice": "0xf433b",
      "from": "0x0027b0882c92a1a86c5885fed632667e81e49e5f",
      "to": null,
      "contractAddress": "0x860181523de41ae0e7df7944f3be06818f47505e",
      "l1BaseFeeScalar": "0x558",
      "l1BlobBaseFee": "0x1",
      "l1BlobBaseFeeScalar": "0xc5fc5",
      "l1Fee": "0xcd7",
      "l1GasPrice": "0xa",
      "l1GasUsed": "0xc782"
    },
    {
      "status": "0x1",
      "cumulativeGasUsed": "0x4069b",
      "logs": [
        {
          "address": "0xd90a964ab65bc02397de1e7fcbd230803bc1bed0",
          "topics": [
            "0xbc7cd75a20ee27fd9adebab32041f755214dbc6bffa90cc0225b39da2e5c2d3b",
            "0x000000000000000000000000860181523de41ae0e7df7944f3be06818f47505e"
          ],
          "data": "0x",
          "blockHash": "0xa2cc361fa9dc7b4d33133b9ccd8cfc8ebeda2c4054c77e8d77df94437644af59",
          "blockNumber": "0xa2495d",
          "blockTimestamp": "0x692435b9",
          "transactionHash": "0xde58d8753eb5de3c53d40e1045d5b2048da4aabd4785b22f501f41fb2b6068bc",
          "transactionIndex": "0x3",
          "logIndex": "0x0",
          "removed": false
        },
        {
          "address": "0xd90a964ab65bc02397de1e7fcbd230803bc1bed0",
          "topics": [
            "0x2f8788117e7eff1d82e926ec794901d17c78024a50270940304540a733656f0d",
            "0x0000000000000000000000000000000000000000000000000000000000000000",
            "0x000000000000000000000000e3fd5228ac2d2c15856959f9e27a4671c5d45958",
            "0x0000000000000000000000000027b0882c92a1a86c5885fed632667e81e49e5f"
          ],
          "data": "0x",
          "blockHash": "0xa2cc361fa9dc7b4d33133b9ccd8cfc8ebeda2c4054c77e8d77df94437644af59",
          "blockNumber": "0xa2495d",
          "blockTimestamp": "0x692435b9",
          "transactionHash": "0xde58d8753eb5de3c53d40e1045d5b2048da4aabd4785b22f501f41fb2b6068bc",
          "transactionIndex": "0x3",
          "logIndex": "0x1",
          "removed": false
        },
        {
          "address": "0xd90a964ab65bc02397de1e7fcbd230803bc1bed0",
          "topics": [
            "0xc7f505b2f371ae2175ee4913f4499e1f2633a7b5936321eed1cdaeb6115181d2"
          ],
          "data": "0x0000000000000000000000000000000000000000000000000000000000000001",
          "blockHash": "0xa2cc361fa9dc7b4d33133b9ccd8cfc8ebeda2c4054c77e8d77df94437644af59",
          "blockNumber": "0xa2495d",
          "blockTimestamp": "0x692435b9",
          "transactionHash": "0xde58d8753eb5de3c53d40e1045d5b2048da4aabd4785b22f501f41fb2b6068bc",
          "transactionIndex": "0x3",
          "logIndex": "0x2",
          "removed": false
        }
      ],
      "logsBloom": "0x00000004000000000200000000000000400000000000002000000000000000000080000000000000000000000000000000000000000000000000002000000000000010000040000000008000000002000000000000000000000000000000000000000000020000000000000000000800000000000000000000002000000000000000010000000000000800000000000000000000000080010000000000000000000000000000000000000000000000000000800000000000001000000000000000000020000000000000000000000000002000000004000100000000000020000000000000000000000000000000000000000000000000000000000000000000",
      "type": "0x2",
      "transactionHash": "0xde58d8753eb5de3c53d40e1045d5b2048da4aabd4785b22f501f41fb2b6068bc",
      "transactionIndex": "0x3",
      "blockHash": "0xa2cc361fa9dc7b4d33133b9ccd8cfc8ebeda2c4054c77e8d77df94437644af59",
      "blockNumber": "0xa2495d",
      "gasUsed": "0x298a7",
      "effectiveGasPrice": "0xf433b",
      "from": "0x0027b0882c92a1a86c5885fed632667e81e49e5f",
      "to": null,
      "contractAddress": "0xd90a964ab65bc02397de1e7fcbd230803bc1bed0",
      "l1BaseFeeScalar": "0x558",
      "l1BlobBaseFee": "0x1",
      "l1BlobBaseFeeScalar": "0xc5fc5",
      "l1Fee": "0x25e",
      "l1GasPrice": "0xa",
      "l1GasUsed": "0x24cf"
    },
    {
      "status": "0x1",
      "cumulativeGasUsed": "0x4e48e",
      "logs": [
        {
          "address": "0xd90a964ab65bc02397de1e7fcbd230803bc1bed0",
          "topics": [
            "0x2f8788117e7eff1d82e926ec794901d17c78024a50270940304540a733656f0d",
            "0x5b437c77573c20c7ba441302748381a65e029cf6e602320d44b325b937c3dd9c",
            "0x000000000000000000000000d72b48ed00b67d756408a140435d8ef101f4a377",
            "0x000000000000000000000000e3fd5228ac2d2c15856959f9e27a4671c5d45958"
          ],
          "data": "0x",
          "blockHash": "0x54ed5fc060622cb1e8a3ca0cf9cee1da57e4a044978c03d579e185e45011a528",
          "blockNumber": "0xa2495f",
          "blockTimestamp": "0x692435bb",
          "transactionHash": "0xa1550c905c73db2c0758ac12ece00f5e008957f459e3d76a0b80923750593b4c",
          "transactionIndex": "0x5",
          "logIndex": "0x3",
          "removed": false
        }
      ],
      "logsBloom": "0x00000004000000000000000000000000000000000000000000000000000000000000000000000000000000000000000000000000000000000000002000000000000010000800000000008000000000000000020000000000002000000000000000000000000020000000000000000000000000000000000000000000000000000000000000000000000000000000000000000000000000010000000000000000000000000000008000000000000000000000800020000000001000000000000000000000000000000000000000000000002000000000000100000000000000000000000000000000000000000000000000000000000000000000000000000000",
      "type": "0x2",
      "transactionHash": "0xa1550c905c73db2c0758ac12ece00f5e008957f459e3d76a0b80923750593b4c",
      "transactionIndex": "0x5",
      "blockHash": "0x54ed5fc060622cb1e8a3ca0cf9cee1da57e4a044978c03d579e185e45011a528",
      "blockNumber": "0xa2495f",
      "gasUsed": "0xda36",
      "effectiveGasPrice": "0xf433b",
      "from": "0xe3fd5228ac2d2c15856959f9e27a4671c5d45958",
      "to": "0xd90a964ab65bc02397de1e7fcbd230803bc1bed0",
      "contractAddress": null,
      "l1BaseFeeScalar": "0x558",
      "l1BlobBaseFee": "0x1",
      "l1BlobBaseFeeScalar": "0xc5fc5",
      "l1Fee": "0x6d",
      "l1GasPrice": "0xa",
      "l1GasUsed": "0x6a4"
    },
    {
      "status": "0x1",
      "cumulativeGasUsed": "0x1813a",
      "logs": [
        {
          "address": "0xd90a964ab65bc02397de1e7fcbd230803bc1bed0",
          "topics": [
            "0xdf6a4c0e90a44c131ffe0dbf3a01863d23b8d807746d5342bf774d7bbf92207c",
            "0x0000000000000000000000000000000000000000000000000000000000000000",
            "0x0000000000000000000000009c9bf29880448ab39795a11b669e22a0f1d790ec"
          ],
          "data": "0x",
          "blockHash": "0x805064aa468c65443c7dbe541ca0af8c529fb03d1cbe8d558fc7b10f6f609874",
          "blockNumber": "0xa24962",
          "blockTimestamp": "0x692435be",
          "transactionHash": "0x2cf5144c6a8c13c2e8577a1989c490b63fe4b296705a12c2f2848c45463a50ee",
          "transactionIndex": "0x1",
          "logIndex": "0x0",
          "removed": false
        }
      ],
      "logsBloom": "0x00000000000000000000000000000000000000000000000100000000000000000000000000000000000000000000000000000000000000000000002000000000000010000000001000000000000000000000000000000000000000000000000400000000020000000000000000004800000000000000000000000000000000000000000000000000000000000000000000000000000000000000000000000000000000000000000000000000000000000000800000000000000000000000000000000000000000000000000000000000000000000000000000000000000020020000000000000000000000000000000000000000000000000000001000000000",
      "type": "0x2",
      "transactionHash": "0x2cf5144c6a8c13c2e8577a1989c490b63fe4b296705a12c2f2848c45463a50ee",
      "transactionIndex": "0x1",
      "blockHash": "0x805064aa468c65443c7dbe541ca0af8c529fb03d1cbe8d558fc7b10f6f609874",
      "blockNumber": "0xa24962",
      "gasUsed": "0xcd2a",
      "effectiveGasPrice": "0xf433b",
      "from": "0xe3fd5228ac2d2c15856959f9e27a4671c5d45958",
      "to": "0xd90a964ab65bc02397de1e7fcbd230803bc1bed0",
      "contractAddress": null,
      "l1BaseFeeScalar": "0x558",
      "l1BlobBaseFee": "0x1",
      "l1BlobBaseFeeScalar": "0xc5fc5",
      "l1Fee": "0x66",
      "l1GasPrice": "0xa",
      "l1GasUsed": "0x640"
    },
    {
      "status": "0x1",
      "cumulativeGasUsed": "0xc92f9",
      "logs": [
        {
          "address": "0x4200000000000000000000000000000000000020",
          "topics": [
            "0xd0b86852e21f9e5fa4bc3b0cff9757ffe243d50c4b43968a42202153d651ea5e",
            "0x77bf88ca262cc63e1b185dccd870aacc5320b8987ef6c7169920f265fe6ab5e9",
            "0x000000000000000000000000e3fd5228ac2d2c15856959f9e27a4671c5d45958"
          ],
          "data": "0x000000000000000000000000000000000000000000000000000000000000002077bf88ca262cc63e1b185dccd870aacc5320b8987ef6c7169920f265fe6ab5e90000000000000000000000006ffa7abc1e380bb967c78d5e648ef804e1fe6dad00000000000000000000000000000000000000000000000000000000000000010000000000000000000000000000000000000000000000000000000000000080000000000000000000000000000000000000000000000000000000000000002d75696e743235362062616c616e63652c627974657333322073616c742c627974657333325b5d2070726f6f667300000000000000000000000000000000000000",
          "blockHash": "0x826d4d18edb2ecd5b864254faf02fc33fd959d1b706fb929851ff4407c23fb9c",
          "blockNumber": "0xa24965",
          "blockTimestamp": "0x692435c1",
          "transactionHash": "0x200c5bb22afcf23d73fedcaa9d3e3366aa6c31c6db081eb68b95a48947452c7c",
          "transactionIndex": "0x5",
          "logIndex": "0x5",
          "removed": false
        }
      ],
      "logsBloom": "0x00000000000000200000000000000000000000000000000000000000000800000000000000000000000000000000000000000000000000000000000000000000000000000000000000008000000000000000000000000000000000000000000000000008000000000000000000000000000000000000000000000000000000000000000000000000000000000000000080000000000000810000000000000000000000040000000010000000000000000000000000000000000000000000000000000000000000000000000000000000002040000000000000000000000000000000000000000000000000000000000000000000000000002000000000000000",
      "type": "0x2",
      "transactionHash": "0x200c5bb22afcf23d73fedcaa9d3e3366aa6c31c6db081eb68b95a48947452c7c",
      "transactionIndex": "0x5",
      "blockHash": "0x826d4d18edb2ecd5b864254faf02fc33fd959d1b706fb929851ff4407c23fb9c",
      "blockNumber": "0xa24965",
      "gasUsed": "0x234af",
      "effectiveGasPrice": "0xf433b",
      "from": "0xe3fd5228ac2d2c15856959f9e27a4671c5d45958",
      "to": "0x4200000000000000000000000000000000000020",
      "contractAddress": null,
      "l1BaseFeeScalar": "0x558",
      "l1BlobBaseFee": "0x1",
      "l1BlobBaseFeeScalar": "0xc5fc5",
      "l1Fee": "0x81",
      "l1GasPrice": "0xa",
      "l1GasUsed": "0x7d8"
    },
    {
      "status": "0x1",
      "cumulativeGasUsed": "0x12a16",
      "logs": [
        {
          "address": "0x78cbb3413fbb6af05ef1d21e646440e56bae3ad6",
          "topics": [
            "0x1af628ebeae91886202be87a44790fab4644154e4464b578a48648755be67b48",
            "0x06c3bd846f5ea60b0b6f5a835ef85fd8253b53f67917d6c690be628d032f841b"
          ],
          "data": "0x",
          "blockHash": "0xf81b99ea4c2f3427aa14e8627499ba50bec71f1ca5e0b06c4f71eefc651fed7b",
          "blockNumber": "0xa24968",
          "blockTimestamp": "0x692435c4",
          "transactionHash": "0xcf3f23386e67b7df280a04085e59d78be4a003c8af5102b0665acee03d65a436",
          "transactionIndex": "0x1",
          "logIndex": "0x0",
          "removed": false
        }
      ],
      "logsBloom": "0x00000000000000000000000000000000020000000000000000000000000000000000000000000000000000000000400000000000000001000000000000000000000000000000000000000000000000000000020000000000000000000000000000000000000000000000000000000200000000000000000000000000000100000000000000000000000010000000000100000000000000000000000000000000000000000000000000000000000000000000000000000000000000000000000000000000000000000000000000000000000000000000000000000000000000000000000000000000000000000000000000000000020000000000000000000000",
      "type": "0x2",
      "transactionHash": "0xcf3f23386e67b7df280a04085e59d78be4a003c8af5102b0665acee03d65a436",
      "transactionIndex": "0x1",
      "blockHash": "0xf81b99ea4c2f3427aa14e8627499ba50bec71f1ca5e0b06c4f71eefc651fed7b",
      "blockNumber": "0xa24968",
      "gasUsed": "0x7606",
      "effectiveGasPrice": "0xf433b",
      "from": "0xe3fd5228ac2d2c15856959f9e27a4671c5d45958",
      "to": "0x78cbb3413fbb6af05ef1d21e646440e56bae3ad6",
      "contractAddress": null,
      "l1BaseFeeScalar": "0x558",
      "l1BlobBaseFee": "0x1",
      "l1BlobBaseFeeScalar": "0xc5fc5",
      "l1Fee": "0x66",
      "l1GasPrice": "0xa",
      "l1GasUsed": "0x640"
    },
    {
      "status": "0x1",
      "cumulativeGasUsed": "0x10352c",
      "logs": [
        {
          "address": "0x78cbb3413fbb6af05ef1d21e646440e56bae3ad6",
          "topics": [
            "0x563ebecbb9df1c7112240e62907d4eb34dce7d568194f648e126e148bd9f275b",
            "0x06c3bd846f5ea60b0b6f5a835ef85fd8253b53f67917d6c690be628d032f841b",
            "0x77bf88ca262cc63e1b185dccd870aacc5320b8987ef6c7169920f265fe6ab5e9"
          ],
          "data": "0x",
          "blockHash": "0xcb5dca345741be1aaea8ca134269330fd05593ebcc7cabf69072f7c5e986be07",
          "blockNumber": "0xa2496b",
          "blockTimestamp": "0x692435c7",
          "transactionHash": "0x539ea350452a58e4dcced2972563af5c3d1f110255f0b96be7984db96cc5b348",
          "transactionIndex": "0xc",
          "logIndex": "0x9",
          "removed": false
        }
      ],
      "logsBloom": "0x00000000000000200000000000000000020000000000000000000000000000000000000000000000000000000000400000000000000000000000000000000000000000000000000000020000000000000000000000000000000000000000000000000000000000000000000000000200000000000000000000000000000100000000000000000000000010000000000500000000000000000000000000000000000000000000000000000000000000000000000000400000000000000000000000000000000000000000000000000000000040000000000000000000000000000000000000000000000000000000000000000000000000002000000000000000",
      "type": "0x2",
      "transactionHash": "0x539ea350452a58e4dcced2972563af5c3d1f110255f0b96be7984db96cc5b348",
      "transactionIndex": "0xc",
      "blockHash": "0xcb5dca345741be1aaea8ca134269330fd05593ebcc7cabf69072f7c5e986be07",
      "blockNumber": "0xa2496b",
      "gasUsed": "0x12101",
      "effectiveGasPrice": "0xf433b",
      "from": "0xe3fd5228ac2d2c15856959f9e27a4671c5d45958",
      "to": "0x78cbb3413fbb6af05ef1d21e646440e56bae3ad6",
      "contractAddress": null,
      "l1BaseFeeScalar": "0x558",
      "l1BlobBaseFee": "0x1",
      "l1BlobBaseFeeScalar": "0xc5fc5",
      "l1Fee": "0x71",
      "l1GasPrice": "0x9",
      "l1GasUsed": "0x710"
    },
    {
      "status": "0x1",
      "cumulativeGasUsed": "0x18e8ef",
      "logs": [
        {
          "address": "0x4200000000000000000000000000000000000020",
          "topics": [
            "0xd0b86852e21f9e5fa4bc3b0cff9757ffe243d50c4b43968a42202153d651ea5e",
            "0x369faa9c2cd261c45be3db5e230b585f5f1abecf8e12be575bb543e917e6db52",
            "0x000000000000000000000000e3fd5228ac2d2c15856959f9e27a4671c5d45958"
          ],
          "data": "0x0000000000000000000000000000000000000000000000000000000000000020369faa9c2cd261c45be3db5e230b585f5f1abecf8e12be575bb543e917e6db52000000000000000000000000d90a964ab65bc02397de1e7fcbd230803bc1bed000000000000000000000000000000000000000000000000000000000000000010000000000000000000000000000000000000000000000000000000000000080000000000000000000000000000000000000000000000000000000000000005575696e7432353620636f696e547970652c75696e74363420736e617073686f7441742c75696e74313932206c656166436f756e742c75696e7432353620746f74616c416d6f756e742c6279746573333220726f6f740000000000000000000000",
          "blockHash": "0x048f4f71b0ddef02eeaca5220daee739b126355bf980573cc1811e3d8c0668b5",
          "blockNumber": "0xa2496e",
          "blockTimestamp": "0x692435ca",
          "transactionHash": "0xca25ed31c8c114b0ac7b0307b0ad2da7abef60f7ff43882555d39fa4adbceb7f",
          "transactionIndex": "0x12",
          "logIndex": "0x12",
          "removed": false
        }
      ],
      "logsBloom": "0x00000000000000000000000000000000000000000000000000000000000800000000000000000000000000000000000000000000000000000000000000000000000000000000000000008000000200000000000000000000000000000000000000000008000000000000000000000000000000000000000000000000000000000000000002000000000000000000000080000000000000810000000000000000000000040000000010000000000000000000000000000000000000000000000000000000004000000000000000000000002000000000000000000000000000000000000000000000000000000000000000000000000000000000000000000000",
      "type": "0x2",
      "transactionHash": "0xca25ed31c8c114b0ac7b0307b0ad2da7abef60f7ff43882555d39fa4adbceb7f",
      "transactionIndex": "0x12",
      "blockHash": "0x048f4f71b0ddef02eeaca5220daee739b126355bf980573cc1811e3d8c0668b5",
      "blockNumber": "0xa2496e",
      "gasUsed": "0x28f56",
      "effectiveGasPrice": "0xf433b",
      "from": "0xe3fd5228ac2d2c15856959f9e27a4671c5d45958",
      "to": "0x4200000000000000000000000000000000000020",
      "contractAddress": null,
      "l1BaseFeeScalar": "0x558",
      "l1BlobBaseFee": "0x1",
      "l1BlobBaseFeeScalar": "0xc5fc5",
      "l1Fee": "0x9a",
      "l1GasPrice": "0x9",
      "l1GasUsed": "0x992"
    },
    {
      "status": "0x1",
      "cumulativeGasUsed": "0x374fd",
      "logs": [
        {
          "address": "0x78cbb3413fbb6af05ef1d21e646440e56bae3ad6",
          "topics": [
            "0x563ebecbb9df1c7112240e62907d4eb34dce7d568194f648e126e148bd9f275b",
            "0xf09c1384d860519bb4ea5bb2a45ab64b00a8d900d47fb79203663be6da21e06c",
            "0x369faa9c2cd261c45be3db5e230b585f5f1abecf8e12be575bb543e917e6db52"
          ],
          "data": "0x",
          "blockHash": "0xf981010a2ed1f0215af4ccac7202ae7d2192174916cdcdcc6c13268fe7959ebe",
          "blockNumber": "0xa24971",
          "blockTimestamp": "0x692435cd",
          "transactionHash": "0xeaa83319aaf1696cd49719da15b12edac585400f662506b116543f7bb5564759",
          "transactionIndex": "0x4",
          "logIndex": "0x3",
          "removed": false
        }
      ],
      "logsBloom": "0x00000000000000000000000000000000000000000000000000000000000000000000000000000000000000000000400000000000000000000000000000000000000000000000000000020000000200000000000000000000000000000000000000000000000000000000000000000200000000800000000000000000000000000000000002000000000000000000000500000000000000000000000000000000000000000000000000000000000000000000000000400000000000000000000010000000004000000000000000000000000000000000000000000000000000000000000000000000000000000000000000008000000000000000000000000000",
      "type": "0x2",
      "transactionHash": "0xeaa83319aaf1696cd49719da15b12edac585400f662506b116543f7bb5564759",
      "transactionIndex": "0x4",
      "blockHash": "0xf981010a2ed1f0215af4ccac7202ae7d2192174916cdcdcc6c13268fe7959ebe",
      "blockNumber": "0xa24971",
      "gasUsed": "0x129aa",
      "effectiveGasPrice": "0xf433b",
      "from": "0xe3fd5228ac2d2c15856959f9e27a4671c5d45958",
      "to": "0x78cbb3413fbb6af05ef1d21e646440e56bae3ad6",
      "contractAddress": null,
      "l1BaseFeeScalar": "0x558",
      "l1BlobBaseFee": "0x1",
      "l1BlobBaseFeeScalar": "0xc5fc5",
      "l1Fee": "0x71",
      "l1GasPrice": "0x9",
      "l1GasUsed": "0x710"
    },
    {
      "status": "0x1",
      "cumulativeGasUsed": "0x6850e",
      "logs": [
        {
          "address": "0x6ffa7abc1e380bb967c78d5e648ef804e1fe6dad",
          "topics": [
            "0x1d1068e1bdc899d4e2fb3ecfb15c3ca2b054770397d926d2e40a3c0c57ceb9ce",
            "0x0000000000000000000000000000000000000000000000000000000000000000",
            "0x369faa9c2cd261c45be3db5e230b585f5f1abecf8e12be575bb543e917e6db52"
          ],
          "data": "0x",
          "blockHash": "0xdc5c561dfeba2adec9e001662f00176893ccf7fa1e91b3cbb5859e0c8bcc1e2d",
          "blockNumber": "0xa24974",
          "blockTimestamp": "0x692435d0",
          "transactionHash": "0x598b8a1f43c0f9e1406afbb456cd6ae9849a69cfefb4d3bd9591dce49260a23a",
          "transactionIndex": "0x3",
          "logIndex": "0x5",
          "removed": false
        }
      ],
      "logsBloom": "0x00000000000000000000000000000000000000000800000000000000000000000000200000000000000000000000000000000000000000000000000000000000000000000000000000000000000200000000000000000000000000000000000000000000020000000000000000000800000000000000000000000000000000000000000002000000000000000000000000000000000000000000000000000000000000000000000000000080000000000000000000000000000000000000000000000000004000000000000000000000000000000000000000020000000020800000000000000800000000000000000000000000000000000000000000000000",
      "type": "0x2",
      "transactionHash": "0x598b8a1f43c0f9e1406afbb456cd6ae9849a69cfefb4d3bd9591dce49260a23a",
      "transactionIndex": "0x3",
      "blockHash": "0xdc5c561dfeba2adec9e001662f00176893ccf7fa1e91b3cbb5859e0c8bcc1e2d",
      "blockNumber": "0xa24974",
      "gasUsed": "0xcd89",
      "effectiveGasPrice": "0xf433b",
      "from": "0xe3fd5228ac2d2c15856959f9e27a4671c5d45958",
      "to": "0x6ffa7abc1e380bb967c78d5e648ef804e1fe6dad",
      "contractAddress": null,
      "l1BaseFeeScalar": "0x558",
      "l1BlobBaseFee": "0x1",
      "l1BlobBaseFeeScalar": "0xc5fc5",
      "l1Fee": "0x64",
      "l1GasPrice": "0x9",
      "l1GasUsed": "0x640"
    }
  ],
  "libraries": [],
  "pending": [],
  "returns": {},
  "timestamp": 1763980784222,
  "chain": 91342,
  "commit": "ad68526"
}