{
  "transactions": [
    {
      "hash": "0xdc35b3373f70f6be5f6cc722d03dc635ea8df86ecf4bca956692e959586ed409",
      "transactionType": "CREATE",
      "contractName": "VerifyCodeDojangResolver",
      "contractAddress": "0x091dfe62d70fe2425621bf06f7e71ff0fdb06cca",
      "function": null,
      "arguments": null,
      "transaction": {
        "from": "0x0027b0882c92a1a86c5885fed632667e81e49e5f",
        "gas": "0x20ddab",
        "value": "0x0",
        "input": "0x60a080604052346100c257306080525f516020611d7b5f395f51905f525460ff8160401c166100b3576002600160401b03196001600160401b03821601610060575b604051611cb490816100c78239608051818181610a1e0152610b100152f35b6001600160401b0319166001600160401b039081175f516020611d7b5f395f51905f525581527fc7f505b2f371ae2175ee4913f4499e1f2633a7b5936321eed1cdaeb6115181d290602090a15f80610041565b63f92ee8a960e01b5f5260045ffd5b5f80fdfe6080806040526004361015610042575b50361561001a575f80fd5b7f1574f9f3000000000000000000000000000000000000000000000000000000005f5260045ffd5b5f3560e01c90816301ffc9a71461112d57508063248a9ca3146110bd5780632f2ff15d1461104257806336568abe14610fba5780633b431e9214610e4b5780634f1ef28614610a9657806352d1902d146109d957806354fd4d501461095c578063723275531461082f57806388e5b2d91461078257806391d14854146106ee57806391db0b7e146106cf578063a217fddf14610257578063ad3cb1cc1461064e578063c4d66de8146103ba578063cc78fef11461028f578063ce46e04614610257578063d547741f146101d5578063e49617e1146101b8578063e60c3505146101915763f72c0d8b14610135575f61000f565b3461018d575f7ffffffffffffffffffffffffffffffffffffffffffffffffffffffffffffffffc36011261018d5760206040517f94aec555c41b62ae70fe2e3ed4effcc448a64811ba9fc0cd20a136196e28c0ce8152f35b5f80fd5b60206101ae61019f366113f1565b6101a7611930565b3490611975565b6040519015158152f35b6101c1366113f1565b506101ca611930565b602060405160018152f35b3461018d5760407ffffffffffffffffffffffffffffffffffffffffffffffffffffffffffffffffc36011261018d576102556004356102126111e9565b9061025061024b825f527f02dd7bc7dec4dceedda775e58dd541e08a116c6c53815c0bd028192f7b626800602052600160405f20015490565b6115a9565b611828565b005b3461018d575f7ffffffffffffffffffffffffffffffffffffffffffffffffffffffffffffffffc36011261018d5760206040515f8152f35b3461018d5760207ffffffffffffffffffffffffffffffffffffffffffffffffffffffffffffffffc36011261018d5773ffffffffffffffffffffffffffffffffffffffff6102db61120c565b6102e3611541565b16805f527fd852276f09be10fac28953842991572f8a5e8e0a6613bca011479db2d659a50060205260ff60405f2054161561038f57805f527fd852276f09be10fac28953842991572f8a5e8e0a6613bca011479db2d659a50060205260405f207fffffffffffffffffffffffffffffffffffffffffffffffffffffffffffffff0081541690557f368846ed588a2fb12b4fabffde520ad537df26ea80ad789b60afc37c5cc7fe6b5f80a2005b7fd5c40fc8000000000000000000000000000000000000000000000000000000005f5260045260245ffd5b3461018d5760207ffffffffffffffffffffffffffffffffffffffffffffffffffffffffffffffffc36011261018d576103f161120c565b7ff0c57e16840df040f15088dc2f81fe391c3923bec73e23a9662efc9c229c6a00549060ff8260401c16159167ffffffffffffffff811680159081610646575b600114908161063c575b159081610633575b5061060b578260017fffffffffffffffffffffffffffffffffffffffffffffffff00000000000000008316177ff0c57e16840df040f15088dc2f81fe391c3923bec73e23a9662efc9c229c6a00556105b6575b5073ffffffffffffffffffffffffffffffffffffffff81161561058e576104f4906104bf611b8e565b6104c7611b8e565b6104cf611b8e565b6104d7611b8e565b6104df611b8e565b6104e7611b8e565b6104ef611b8e565b61162f565b506104fb57005b7fffffffffffffffffffffffffffffffffffffffffffffff00ffffffffffffffff7ff0c57e16840df040f15088dc2f81fe391c3923bec73e23a9662efc9c229c6a0054167ff0c57e16840df040f15088dc2f81fe391c3923bec73e23a9662efc9c229c6a00557fc7f505b2f371ae2175ee4913f4499e1f2633a7b5936321eed1cdaeb6115181d2602060405160018152a1005b7fd92e233d000000000000000000000000000000000000000000000000000000005f5260045ffd5b7fffffffffffffffffffffffffffffffffffffffffffffff0000000000000000001668010000000000000001177ff0c57e16840df040f15088dc2f81fe391c3923bec73e23a9662efc9c229c6a005582610496565b7ff92ee8a9000000000000000000000000000000000000000000000000000000005f5260045ffd5b90501584610443565b303b15915061043b565b849150610431565b3461018d575f7ffffffffffffffffffffffffffffffffffffffffffffffffffffffffffffffffc36011261018d576106cb60405161068d60408261122f565b600581527f352e302e30000000000000000000000000000000000000000000000000000000602082015260405191829160208352602083019061130d565b0390f35b60206101ae6106dd36611381565b926106e9929192611930565b6114de565b3461018d5760407ffffffffffffffffffffffffffffffffffffffffffffffffffffffffffffffffc36011261018d576107256111e9565b6004355f527f02dd7bc7dec4dceedda775e58dd541e08a116c6c53815c0bd028192f7b62680060205273ffffffffffffffffffffffffffffffffffffffff60405f2091165f52602052602060ff60405f2054166040519015158152f35b61078b36611381565b610796929192611930565b808203610807575f90345b8383106107b45760405160018152602090f35b6107bf838387611461565b358181116107df576001916107d585878a61149e565b50039201916107a1565b7f11011294000000000000000000000000000000000000000000000000000000005f5260045ffd5b7f947d5a84000000000000000000000000000000000000000000000000000000005f5260045ffd5b3461018d5760207ffffffffffffffffffffffffffffffffffffffffffffffffffffffffffffffffc36011261018d5773ffffffffffffffffffffffffffffffffffffffff61087b61120c565b610883611541565b16805f527fd852276f09be10fac28953842991572f8a5e8e0a6613bca011479db2d659a50060205260ff60405f20541661093157805f527fd852276f09be10fac28953842991572f8a5e8e0a6613bca011479db2d659a50060205260405f2060017fffffffffffffffffffffffffffffffffffffffffffffffffffffffffffffff008254161790557f84c8e535ea2c772fdcaab7fd1c78efb11d06931c5d61fd4b75fbff891da9cc005f80a2005b7f797f004b000000000000000000000000000000000000000000000000000000005f5260045260245ffd5b3461018d575f7ffffffffffffffffffffffffffffffffffffffffffffffffffffffffffffffffc36011261018d576106cb60405161099b60408261122f565b600581527f302e352e30000000000000000000000000000000000000000000000000000000602082015260405191829160208352602083019061130d565b3461018d575f7ffffffffffffffffffffffffffffffffffffffffffffffffffffffffffffffffc36011261018d5773ffffffffffffffffffffffffffffffffffffffff7f0000000000000000000000000000000000000000000000000000000000000000163003610a6e5760206040517f360894a13ba1a3210667c828492db98dca3e2076cc3735a920a3ca505d382bbc8152f35b7fe07c8dba000000000000000000000000000000000000000000000000000000005f5260045ffd5b60407ffffffffffffffffffffffffffffffffffffffffffffffffffffffffffffffffc36011261018d57610ac861120c565b60243567ffffffffffffffff811161018d573660238201121561018d57610af99036906024816004013591016112d7565b73ffffffffffffffffffffffffffffffffffffffff7f000000000000000000000000000000000000000000000000000000000000000016803014908115610e09575b50610a6e57335f9081527fed9de58436e9b79560facccca83f680a3a081e23309a653efa5857ae98e58c0d602052604090205460ff1615610db95773ffffffffffffffffffffffffffffffffffffffff8216916040517f52d1902d000000000000000000000000000000000000000000000000000000008152602081600481875afa5f9181610d85575b50610bf657837f4c9c8ce3000000000000000000000000000000000000000000000000000000005f5260045260245ffd5b807f360894a13ba1a3210667c828492db98dca3e2076cc3735a920a3ca505d382bbc859203610d5a5750813b15610d2f57807fffffffffffffffffffffffff00000000000000000000000000000000000000007f360894a13ba1a3210667c828492db98dca3e2076cc3735a920a3ca505d382bbc5416177f360894a13ba1a3210667c828492db98dca3e2076cc3735a920a3ca505d382bbc557fbc7cd75a20ee27fd9adebab32041f755214dbc6bffa90cc0225b39da2e5c2d3b5f80a2815115610cfe575f8083602061025595519101845af43d15610cf6573d91610cda8361129d565b92610ce8604051948561122f565b83523d5f602085013e611be5565b606091611be5565b505034610d0757005b7fb398979f000000000000000000000000000000000000000000000000000000005f5260045ffd5b7f4c9c8ce3000000000000000000000000000000000000000000000000000000005f5260045260245ffd5b7faa1d49a4000000000000000000000000000000000000000000000000000000005f5260045260245ffd5b9091506020813d602011610db1575b81610da16020938361122f565b8101031261018d57519085610bc5565b3d9150610d94565b7fe2517d3f000000000000000000000000000000000000000000000000000000005f52336004527f94aec555c41b62ae70fe2e3ed4effcc448a64811ba9fc0cd20a136196e28c0ce60245260445ffd5b905073ffffffffffffffffffffffffffffffffffffffff7f360894a13ba1a3210667c828492db98dca3e2076cc3735a920a3ca505d382bbc5416141583610b3b565b3461018d5760207ffffffffffffffffffffffffffffffffffffffffffffffffffffffffffffffffc36011261018d5773ffffffffffffffffffffffffffffffffffffffff610e9761120c565b610e9f611541565b1680158015610f7a575b610f525773ffffffffffffffffffffffffffffffffffffffff7f56479d54c8a270d052194a471b8a16cca9486bd3897b44aa281df9412faba70054827fffffffffffffffffffffffff00000000000000000000000000000000000000008216177f56479d54c8a270d052194a471b8a16cca9486bd3897b44aa281df9412faba70055167fdf6a4c0e90a44c131ffe0dbf3a01863d23b8d807746d5342bf774d7bbf92207c5f80a3005b7fddee2104000000000000000000000000000000000000000000000000000000005f5260045ffd5b5073ffffffffffffffffffffffffffffffffffffffff7f56479d54c8a270d052194a471b8a16cca9486bd3897b44aa281df9412faba70054168114610ea9565b3461018d5760407ffffffffffffffffffffffffffffffffffffffffffffffffffffffffffffffffc36011261018d57610ff16111e9565b3373ffffffffffffffffffffffffffffffffffffffff82160361101a5761025590600435611828565b7f6697b232000000000000000000000000000000000000000000000000000000005f5260045ffd5b3461018d5760407ffffffffffffffffffffffffffffffffffffffffffffffffffffffffffffffffc36011261018d5761025560043561107f6111e9565b906110b861024b825f527f02dd7bc7dec4dceedda775e58dd541e08a116c6c53815c0bd028192f7b626800602052600160405f20015490565b611716565b3461018d5760207ffffffffffffffffffffffffffffffffffffffffffffffffffffffffffffffffc36011261018d5760206111256004355f527f02dd7bc7dec4dceedda775e58dd541e08a116c6c53815c0bd028192f7b626800602052600160405f20015490565b604051908152f35b3461018d5760207ffffffffffffffffffffffffffffffffffffffffffffffffffffffffffffffffc36011261018d57600435907fffffffff00000000000000000000000000000000000000000000000000000000821680920361018d57817f7965db0b00000000000000000000000000000000000000000000000000000000602093149081156111bf575b5015158152f35b7f01ffc9a700000000000000000000000000000000000000000000000000000000915014836111b8565b6024359073ffffffffffffffffffffffffffffffffffffffff8216820361018d57565b6004359073ffffffffffffffffffffffffffffffffffffffff8216820361018d57565b90601f7fffffffffffffffffffffffffffffffffffffffffffffffffffffffffffffffe0910116810190811067ffffffffffffffff82111761127057604052565b7f4e487b71000000000000000000000000000000000000000000000000000000005f52604160045260245ffd5b67ffffffffffffffff811161127057601f017fffffffffffffffffffffffffffffffffffffffffffffffffffffffffffffffe01660200190565b9291926112e38261129d565b916112f1604051938461122f565b82948184528183011161018d578281602093845f960137010152565b907fffffffffffffffffffffffffffffffffffffffffffffffffffffffffffffffe0601f602080948051918291828752018686015e5f8582860101520116010190565b9181601f8401121561018d5782359167ffffffffffffffff831161018d576020808501948460051b01011161018d57565b60407ffffffffffffffffffffffffffffffffffffffffffffffffffffffffffffffffc82011261018d5760043567ffffffffffffffff811161018d57816113ca91600401611350565b929092916024359067ffffffffffffffff821161018d576113ed91600401611350565b9091565b60207ffffffffffffffffffffffffffffffffffffffffffffffffffffffffffffffffc82011261018d576004359067ffffffffffffffff821161018d577ffffffffffffffffffffffffffffffffffffffffffffffffffffffffffffffffc826101409203011261018d5760040190565b91908110156114715760051b0190565b7f4e487b71000000000000000000000000000000000000000000000000000000005f52603260045260245ffd5b91908110156114715760051b810135907ffffffffffffffffffffffffffffffffffffffffffffffffffffffffffffffec18136030182121561018d570190565b919290818103610807575f91345b8284106114fe57505050505050600190565b611509848388611461565b358181116107df576115258161152087878a61149e565b611975565b1561153657600191039301926114ec565b505050505050505f90565b335f9081527fb7db2dd08fcb62d0c9e08c51941cae53c267786a0b75803fb7960902fc8ef97d602052604090205460ff161561157957565b7fe2517d3f000000000000000000000000000000000000000000000000000000005f52336004525f60245260445ffd5b805f527f02dd7bc7dec4dceedda775e58dd541e08a116c6c53815c0bd028192f7b62680060205260405f2073ffffffffffffffffffffffffffffffffffffffff33165f5260205260ff60405f205416156116005750565b7fe2517d3f000000000000000000000000000000000000000000000000000000005f523360045260245260445ffd5b73ffffffffffffffffffffffffffffffffffffffff81165f9081527fb7db2dd08fcb62d0c9e08c51941cae53c267786a0b75803fb7960902fc8ef97d602052604090205460ff166117115773ffffffffffffffffffffffffffffffffffffffff165f8181527fb7db2dd08fcb62d0c9e08c51941cae53c267786a0b75803fb7960902fc8ef97d6020526040812080547fffffffffffffffffffffffffffffffffffffffffffffffffffffffffffffff001660011790553391907f2f8788117e7eff1d82e926ec794901d17c78024a50270940304540a733656f0d8180a4600190565b505f90565b805f527f02dd7bc7dec4dceedda775e58dd541e08a116c6c53815c0bd028192f7b62680060205260405f2073ffffffffffffffffffffffffffffffffffffffff83165f5260205260ff60405f205416155f1461182257805f527f02dd7bc7dec4dceedda775e58dd541e08a116c6c53815c0bd028192f7b62680060205260405f2073ffffffffffffffffffffffffffffffffffffffff83165f5260205260405f2060017fffffffffffffffffffffffffffffffffffffffffffffffffffffffffffffff0082541617905573ffffffffffffffffffffffffffffffffffffffff339216907f2f8788117e7eff1d82e926ec794901d17c78024a50270940304540a733656f0d5f80a4600190565b50505f90565b805f527f02dd7bc7dec4dceedda775e58dd541e08a116c6c53815c0bd028192f7b62680060205260405f2073ffffffffffffffffffffffffffffffffffffffff83165f5260205260ff60405f2054165f1461182257805f527f02dd7bc7dec4dceedda775e58dd541e08a116c6c53815c0bd028192f7b62680060205260405f2073ffffffffffffffffffffffffffffffffffffffff83165f5260205260405f207fffffffffffffffffffffffffffffffffffffffffffffffffffffffffffffff00815416905573ffffffffffffffffffffffffffffffffffffffff339216907ff6391f5c32d9c69d2a47ea670b442974b53935d1edc7fd64eb21e047a839171b5f80a4600190565b734200000000000000000000000000000000000021330361194d57565b7f4ca88867000000000000000000000000000000000000000000000000000000005f5260045ffd5b905060e081013573ffffffffffffffffffffffffffffffffffffffff811680910361018d575f527fd852276f09be10fac28953842991572f8a5e8e0a6613bca011479db2d659a50060205260ff60405f20541690816119d2575090565b90506101208101357fffffffffffffffffffffffffffffffffffffffffffffffffffffffffffffffe18236030181121561018d57810180359067ffffffffffffffff821161018d576020810191803603831361018d5781019060407fffffffffffffffffffffffffffffffffffffffffffffffffffffffffffffffe0602083818601950301011261018d5760408101359067ffffffffffffffff821161018d57019080603f8301121561018d57611a98611ae2918360406020611ab696013591016112d7565b6040519283916020830195358652604080840152606083019061130d565b037fffffffffffffffffffffffffffffffffffffffffffffffffffffffffffffffe0810183528261122f565b51902073ffffffffffffffffffffffffffffffffffffffff7f56479d54c8a270d052194a471b8a16cca9486bd3897b44aa281df9412faba700541691823b1561018d5760445f928360405195869485937f9b1a175f00000000000000000000000000000000000000000000000000000000855260048501523560248401525af18015611b8357611b73575b50600190565b5f611b7d9161122f565b5f611b6d565b6040513d5f823e3d90fd5b60ff7ff0c57e16840df040f15088dc2f81fe391c3923bec73e23a9662efc9c229c6a005460401c1615611bbd57565b7fd7e6bcf8000000000000000000000000000000000000000000000000000000005f5260045ffd5b90611c225750805115611bfa57805190602001fd5b7fd6bda275000000000000000000000000000000000000000000000000000000005f5260045ffd5b81511580611c75575b611c33575090565b73ffffffffffffffffffffffffffffffffffffffff907f9996b315000000000000000000000000000000000000000000000000000000005f521660045260245ffd5b50803b15611c2b56fea26469706673582212204f7c15078280def2a08206be38486d69785e21b8ed40af04ac3387918c7682d064736f6c634300081d0033f0c57e16840df040f15088dc2f81fe391c3923bec73e23a9662efc9c229c6a00",
        "nonce": "0x1c",
        "chainId": "0x164ce"
      },
      "additionalContracts": [],
      "isFixedGasLimit": false
    },
    {
      "hash": "0x13def499d4b8708699c7c023ad48433accf6c091cb9123cc419e1c1db293cf45",
      "transactionType": "CREATE",
      "contractName": "ERC1967Proxy",
      "contractAddress": "0x843ff433f7657901118ff3e2eca915abb9bc12df",
      "function": null,
      "arguments": [
        "0x091dfe62D70FE2425621Bf06f7e71Ff0FdB06CCa",
        "0xc4d66de8000000000000000000000000e3fd5228ac2d2c15856959f9e27a4671c5d45958"
      ],
      "transaction": {
        "from": "0x0027b0882c92a1a86c5885fed632667e81e49e5f",
        "gas": "0x35e5a",
        "value": "0x0",
        "input": "0x60806040526102a88038038061001481610168565b92833981016040828203126101645781516001600160a01b03811692909190838303610164576020810151906001600160401b03821161016457019281601f8501121561016457835161006e610069826101a1565b610168565b9481865260208601936020838301011161016457815f926020809301865e86010152823b15610152577f360894a13ba1a3210667c828492db98dca3e2076cc3735a920a3ca505d382bbc80546001600160a01b031916821790557fbc7cd75a20ee27fd9adebab32041f755214dbc6bffa90cc0225b39da2e5c2d3b5f80a282511561013a575f8091610122945190845af43d15610132573d91610113610069846101a1565b9283523d5f602085013e6101bc565b505b604051608d908161021b8239f35b6060916101bc565b50505034156101245763b398979f60e01b5f5260045ffd5b634c9c8ce360e01b5f5260045260245ffd5b5f80fd5b6040519190601f01601f191682016001600160401b0381118382101761018d57604052565b634e487b7160e01b5f52604160045260245ffd5b6001600160401b03811161018d57601f01601f191660200190565b906101e057508051156101d157805190602001fd5b63d6bda27560e01b5f5260045ffd5b81511580610211575b6101f1575090565b639996b31560e01b5f9081526001600160a01b0391909116600452602490fd5b50803b156101e956fe60806040525f8073ffffffffffffffffffffffffffffffffffffffff7f360894a13ba1a3210667c828492db98dca3e2076cc3735a920a3ca505d382bbc5416368280378136915af43d5f803e156053573d5ff35b3d5ffdfea264697066735822122000320d7070954ef1f15ac866cb97560066819462543386348d27b1d5c7bfe5c564736f6c634300081d0033000000000000000000000000091dfe62d70fe2425621bf06f7e71ff0fdb06cca00000000000000000000000000000000000000000000000000000000000000400000000000000000000000000000000000000000000000000000000000000024c4d66de8000000000000000000000000e3fd5228ac2d2c15856959f9e27a4671c5d4595800000000000000000000000000000000000000000000000000000000",
        "nonce": "0x1d",
        "chainId": "0x164ce"
      },
      "additionalContracts": [],
      "isFixedGasLimit": false
    },
    {
      "hash": "0x06014a564051230d85f94713d042cd2463990ab476a9197771de18f7cdbd97d9",
      "transactionType": "CALL",
      "contractName": "ERC1967Proxy",
      "contractAddress": "0x843ff433f7657901118ff3e2eca915abb9bc12df",
      "function": null,
      "arguments": null,
      "transaction": {
        "from": "0xe3fd5228ac2d2c15856959f9e27a4671c5d45958",
        "to": "0x843ff433f7657901118ff3e2eca915abb9bc12df",
        "gas": "0x12d66",
        "value": "0x0",
        "input": "0x2f2ff15d94aec555c41b62ae70fe2e3ed4effcc448a64811ba9fc0cd20a136196e28c0ce000000000000000000000000d72b48ed00b67d756408a140435d8ef101f4a377",
        "nonce": "0x1f",
        "chainId": "0x164ce"
      },
      "additionalContracts": [],
      "isFixedGasLimit": false
    },
    {
      "hash": "0xfab288b93c47b5cb72c03e8d0772c2694b7d3cb1859cfe5fa90301d528755010",
      "transactionType": "CALL",
      "contractName": "ERC1967Proxy",
      "contractAddress": "0x843ff433f7657901118ff3e2eca915abb9bc12df",
      "function": null,
      "arguments": null,
      "transaction": {
        "from": "0xe3fd5228ac2d2c15856959f9e27a4671c5d45958",
        "to": "0x843ff433f7657901118ff3e2eca915abb9bc12df",
        "gas": "0x12c0d",
        "value": "0x0",
        "input": "0x3b431e920000000000000000000000009c9bf29880448ab39795a11b669e22a0f1d790ec",
        "nonce": "0x20",
        "chainId": "0x164ce"
      },
      "additionalContracts": [],
      "isFixedGasLimit": false
    },
    {
      "hash": "0x32ec7a003dff7d016ef33637483b0565bc883e778289df90987116961eedebe1",
      "transactionType": "CALL",
      "contractName": null,
      "contractAddress": "0x4200000000000000000000000000000000000020",
      "function": "register(string,address,bool)",
      "arguments": [
        "bytes32 codeHash,string domain",
        "0x843fF433f7657901118fF3E2Eca915abb9BC12Df",
        "true"
      ],
      "transaction": {
        "from": "0xe3fd5228ac2d2c15856959f9e27a4671c5d45958",
        "to": "0x4200000000000000000000000000000000000020",
        "gas": "0x218a4",
        "value": "0x0",
        "input": "0x60d7a2780000000000000000000000000000000000000000000000000000000000000060000000000000000000000000843ff433f7657901118ff3e2eca915abb9bc12df0000000000000000000000000000000000000000000000000000000000000001000000000000000000000000000000000000000000000000000000000000001e6279746573333220636f6465486173682c737472696e6720646f6d61696e0000",
        "nonce": "0x21",
        "chainId": "0x164ce"
      },
      "additionalContracts": [],
      "isFixedGasLimit": false
    },
    {
      "hash": "0x5c83df6813bcba7f26bc26bd2bccad8d70e562b785c83b009d6187eeb210621a",
      "transactionType": "CALL",
      "contractName": null,
      "contractAddress": "0x78cbb3413fbb6af05ef1d21e646440e56bae3ad6",
      "function": "register(bytes32,bytes32)",
      "arguments": [
        "0x68053e055c01ce9b3577f3162b36324bb195ebcb574c48e823480d205f06af9b",
        "0x55ac1369dac97522d062b89ffdc4e752b48fbeba86915fdb956c7c2d0501d280"
      ],
      "transaction": {
        "from": "0xe3fd5228ac2d2c15856959f9e27a4671c5d45958",
        "to": "0x78cbb3413fbb6af05ef1d21e646440e56bae3ad6",
        "gas": "0x18e14",
        "value": "0x0",
        "input": "0x2f92673268053e055c01ce9b3577f3162b36324bb195ebcb574c48e823480d205f06af9b55ac1369dac97522d062b89ffdc4e752b48fbeba86915fdb956c7c2d0501d280",
        "nonce": "0x22",
        "chainId": "0x164ce"
      },
      "additionalContracts": [],
      "isFixedGasLimit": false
    }
  ],
  "receipts": [
    {
      "status": "0x1",
      "cumulativeGasUsed": "0x2c3d8a",
      "logs": [
        {
          "address": "0x091dfe62d70fe2425621bf06f7e71ff0fdb06cca",
          "topics": [
            "0xc7f505b2f371ae2175ee4913f4499e1f2633a7b5936321eed1cdaeb6115181d2"
          ],
          "data": "0x000000000000000000000000000000000000000000000000ffffffffffffffff",
          "blockHash": "0x502fe8226c2dbc8c55a3de6254efcffc986c4c6bea62f6484d185c030c8c4a23",
          "blockNumber": "0xab616c",
          "blockTimestamp": "0x692d4dc8",
          "transactionHash": "0xdc35b3373f70f6be5f6cc722d03dc635ea8df86ecf4bca956692e959586ed409",
          "transactionIndex": "0x4",
          "logIndex": "0x4",
          "removed": false
        }
      ],
      "logsBloom": "0x00000000000000000000000000000000000000000000000000000000000000000000000000000000000000000000000000000000000000000000000000000000000000000000000000000000000000000000000000000000000000000000000000000000000000000000000000000000000000000000000000000000000000000000000000000000000800000000000000000000000180000000020000000000000000000000000000000000000000000000000000000000000000000000000000000000000000000000000000200000000000000004000000000000000000000000000000000000000000000000000000000000000000000000000000000000",
      "type": "0x2",
      "transactionHash": "0xdc35b3373f70f6be5f6cc722d03dc635ea8df86ecf4bca956692e959586ed409",
      "transactionIndex": "0x4",
      "blockHash": "0x502fe8226c2dbc8c55a3de6254efcffc986c4c6bea62f6484d185c030c8c4a23",
      "blockNumber": "0xab616c",
      "gasUsed": "0x19480e",
      "effectiveGasPrice": "0xf42bd",
      "from": "0x0027b0882c92a1a86c5885fed632667e81e49e5f",
      "to": null,
      "contractAddress": "0x091dfe62d70fe2425621bf06f7e71ff0fdb06cca",
      "l1BaseFeeScalar": "0x558",
      "l1BlobBaseFee": "0x1",
      "l1BlobBaseFeeScalar": "0xc5fc5",
      "l1Fee": "0xb67",
      "l1GasPrice": "0x9",
      "l1GasUsed": "0xb50e"
    },
    {
      "status": "0x1",
      "cumulativeGasUsed": "0x34b69",
      "logs": [
        {
          "address": "0x843ff433f7657901118ff3e2eca915abb9bc12df",
          "topics": [
            "0xbc7cd75a20ee27fd9adebab32041f755214dbc6bffa90cc0225b39da2e5c2d3b",
            "0x000000000000000000000000091dfe62d70fe2425621bf06f7e71ff0fdb06cca"
          ],
          "data": "0x",
          "blockHash": "0x70543e1b89b27c199c48dca5faf690033d43cfb908ecb22f698e8f7b4145968e",
          "blockNumber": "0xab616f",
          "blockTimestamp": "0x692d4dcb",
          "transactionHash": "0x13def499d4b8708699c7c023ad48433accf6c091cb9123cc419e1c1db293cf45",
          "transactionIndex": "0x1",
          "logIndex": "0x0",
          "removed": false
        },
        {
          "address": "0x843ff433f7657901118ff3e2eca915abb9bc12df",
          "topics": [
            "0x2f8788117e7eff1d82e926ec794901d17c78024a50270940304540a733656f0d",
            "0x0000000000000000000000000000000000000000000000000000000000000000",
            "0x000000000000000000000000e3fd5228ac2d2c15856959f9e27a4671c5d45958",
            "0x0000000000000000000000000027b0882c92a1a86c5885fed632667e81e49e5f"
          ],
          "data": "0x",
          "blockHash": "0x70543e1b89b27c199c48dca5faf690033d43cfb908ecb22f698e8f7b4145968e",
          "blockNumber": "0xab616f",
          "blockTimestamp": "0x692d4dcb",
          "transactionHash": "0x13def499d4b8708699c7c023ad48433accf6c091cb9123cc419e1c1db293cf45",
          "transactionIndex": "0x1",
          "logIndex": "0x1",
          "removed": false
        },
        {
          "address": "0x843ff433f7657901118ff3e2eca915abb9bc12df",
          "topics": [
            "0xc7f505b2f371ae2175ee4913f4499e1f2633a7b5936321eed1cdaeb6115181d2"
          ],
          "data": "0x0000000000000000000000000000000000000000000000000000000000000001",
          "blockHash": "0x70543e1b89b27c199c48dca5faf690033d43cfb908ecb22f698e8f7b4145968e",
          "blockNumber": "0xab616f",
          "blockTimestamp": "0x692d4dcb",
          "transactionHash": "0x13def499d4b8708699c7c023ad48433accf6c091cb9123cc419e1c1db293cf45",
          "transactionIndex": "0x1",
          "logIndex": "0x2",
          "removed": false
        }
      ],
      "logsBloom": "0x00000004040000000000000000000000400000000000000000000000000000000088000000000000000000000000000000000000000000000000000000000000000000000000010000008000000002000000000000000000000000000000000000000000020000000000000000000800000000000000000000002000000000000000010000000000000800000000000000000000000080010008000000000000000000000000000000000000000000000000000000400000001000000000000000000020000000000000000000000000002000000004000100000000000020000000000000000000000000000000000000000000000000000000000100000000",
      "type": "0x2",
      "transactionHash": "0x13def499d4b8708699c7c023ad48433accf6c091cb9123cc419e1c1db293cf45",
      "transactionIndex": "0x1",
      "blockHash": "0x70543e1b89b27c199c48dca5faf690033d43cfb908ecb22f698e8f7b4145968e",
      "blockNumber": "0xab616f",
      "gasUsed": "0x29759",
      "effectiveGasPrice": "0xf42bd",
      "from": "0x0027b0882c92a1a86c5885fed632667e81e49e5f",
      "to": null,
      "contractAddress": "0x843ff433f7657901118ff3e2eca915abb9bc12df",
      "l1BaseFeeScalar": "0x558",
      "l1BlobBaseFee": "0x1",
      "l1BlobBaseFeeScalar": "0xc5fc5",
      "l1Fee": "0x251",
      "l1GasPrice": "0x9",
      "l1GasUsed": "0x24cf"
    },
    {
      "status": "0x1",
      "cumulativeGasUsed": "0x3c597",
      "logs": [
        {
          "address": "0x843ff433f7657901118ff3e2eca915abb9bc12df",
          "topics": [
            "0x2f8788117e7eff1d82e926ec794901d17c78024a50270940304540a733656f0d",
            "0x94aec555c41b62ae70fe2e3ed4effcc448a64811ba9fc0cd20a136196e28c0ce",
            "0x000000000000000000000000d72b48ed00b67d756408a140435d8ef101f4a377",
            "0x000000000000000000000000e3fd5228ac2d2c15856959f9e27a4671c5d45958"
          ],
          "data": "0x",
          "blockHash": "0xddfd230636fea35ff62126359f4b3800f2b1ab5aaf59cc1650e22582d134ddde",
          "blockNumber": "0xab6171",
          "blockTimestamp": "0x692d4dcd",
          "transactionHash": "0x06014a564051230d85f94713d042cd2463990ab476a9197771de18f7cdbd97d9",
          "transactionIndex": "0x3",
          "logIndex": "0x3",
          "removed": false
        }
      ],
      "logsBloom": "0x00000004040000000000000000000000000000000000000000000000200000000008000000000000000000000000000000100000000000000000000000000000000000000000000000008000000000000000020000000000000000000000000000000000000000000000000000000000000000000000000000000000000000000000000000000000000000000000000000000000000000010000000000000000000000000000008000000000000000000000000020000000001000000000000000000000000000000000000000000000002000000000000100000000000000000000000000000000000000000000000000000000000000000000001100000000",
      "type": "0x2",
      "transactionHash": "0x06014a564051230d85f94713d042cd2463990ab476a9197771de18f7cdbd97d9",
      "transactionIndex": "0x3",
      "blockHash": "0xddfd230636fea35ff62126359f4b3800f2b1ab5aaf59cc1650e22582d134ddde",
      "blockNumber": "0xab6171",
      "gasUsed": "0xda36",
      "effectiveGasPrice": "0xf42bd",
      "from": "0xe3fd5228ac2d2c15856959f9e27a4671c5d45958",
      "to": "0x843ff433f7657901118ff3e2eca915abb9bc12df",
      "contractAddress": null,
      "l1BaseFeeScalar": "0x558",
      "l1BlobBaseFee": "0x1",
      "l1BlobBaseFeeScalar": "0xc5fc5",
      "l1Fee": "0x6b",
      "l1GasPrice": "0x9",
      "l1GasUsed": "0x6a4"
    },
    {
      "status": "0x1",
      "cumulativeGasUsed": "0x624e9",
      "logs": [
        {
          "address": "0x843ff433f7657901118ff3e2eca915abb9bc12df",
          "topics": [
            "0xdf6a4c0e90a44c131ffe0dbf3a01863d23b8d807746d5342bf774d7bbf92207c",
            "0x0000000000000000000000000000000000000000000000000000000000000000",
            "0x0000000000000000000000009c9bf29880448ab39795a11b669e22a0f1d790ec"
          ],
          "data": "0x",
          "blockHash": "0xbd7a372d635036fc06d719b87325d50de9e04ddeb5b64a5d37c4baca6fe5e500",
          "blockNumber": "0xab6174",
          "blockTimestamp": "0x692d4dd0",
          "transactionHash": "0xfab288b93c47b5cb72c03e8d0772c2694b7d3cb1859cfe5fa90301d528755010",
          "transactionIndex": "0x4",
          "logIndex": "0x4",
          "removed": false
        }
      ],
      "logsBloom": "0x00000000040000000000000000000000000000000000000100000000000000000008000000000000000000000000000000000000000000000000000000000000000000000000001000000000000000000000000000000000000000000000000400000000020000000000000000004800000000000000000000000000000000000000000000000000000000000000000000000000000000000000000000000000000000000000000000000000000000000000000000000000000000000000000000000000000000000000000000000000000000000000000000000000000020020000000000000000000000000000000000000000000000000000001100000000",
      "type": "0x2",
      "transactionHash": "0xfab288b93c47b5cb72c03e8d0772c2694b7d3cb1859cfe5fa90301d528755010",
      "transactionIndex": "0x4",
      "blockHash": "0xbd7a372d635036fc06d719b87325d50de9e04ddeb5b64a5d37c4baca6fe5e500",
      "blockNumber": "0xab6174",
      "gasUsed": "0xcd2a",
      "effectiveGasPrice": "0xf42bd",
      "from": "0xe3fd5228ac2d2c15856959f9e27a4671c5d45958",
      "to": "0x843ff433f7657901118ff3e2eca915abb9bc12df",
      "contractAddress": null,
      "l1BaseFeeScalar": "0x558",
      "l1BlobBaseFee": "0x1",
      "l1BlobBaseFeeScalar": "0xc5fc5",
      "l1Fee": "0x64",
      "l1GasPrice": "0x9",
      "l1GasUsed": "0x640"
    },
    {
      "status": "0x1",
      "cumulativeGasUsed": "0x32e20",
      "logs": [
        {
          "address": "0x4200000000000000000000000000000000000020",
          "topics": [
            "0xd0b86852e21f9e5fa4bc3b0cff9757ffe243d50c4b43968a42202153d651ea5e",
            "0x55ac1369dac97522d062b89ffdc4e752b48fbeba86915fdb956c7c2d0501d280",
            "0x000000000000000000000000e3fd5228ac2d2c15856959f9e27a4671c5d45958"
          ],
          "data": "0x000000000000000000000000000000000000000000000000000000000000002055ac1369dac97522d062b89ffdc4e752b48fbeba86915fdb956c7c2d0501d280000000000000000000000000843ff433f7657901118ff3e2eca915abb9bc12df00000000000000000000000000000000000000000000000000000000000000010000000000000000000000000000000000000000000000000000000000000080000000000000000000000000000000000000000000000000000000000000001e6279746573333220636f6465486173682c737472696e6720646f6d61696e0000",
          "blockHash": "0x87f7e2436a04a06f7a324439994f9760f27b2c944bbb1bd7c9f1a30834929c5a",
          "blockNumber": "0xab6177",
          "blockTimestamp": "0x692d4dd3",
          "transactionHash": "0x32ec7a003dff7d016ef33637483b0565bc883e778289df90987116961eedebe1",
          "transactionIndex": "0x2",
          "logIndex": "0x3",
          "removed": false
        }
      ],
      "logsBloom": "0x00000000000000000000000000000000000000000000000000000000000800000000000000000000000000000000000000000000000000000000000000000000000000000000000000008000000000000000000000000000000000000000000000000008000000000000000000000000000000000000000000000000000000000000000000000000000000000000000080000000000000810000000000000000004000040000000010000000000000000000000000000800000000000000000000000000000000000000000008000000002000000000000000000000000000000000000000000000000000000000000000000000000000000000000000000000",
      "type": "0x2",
      "transactionHash": "0x32ec7a003dff7d016ef33637483b0565bc883e778289df90987116961eedebe1",
      "transactionIndex": "0x2",
      "blockHash": "0x87f7e2436a04a06f7a324439994f9760f27b2c944bbb1bd7c9f1a30834929c5a",
      "blockNumber": "0xab6177",
      "gasUsed": "0x18485",
      "effectiveGasPrice": "0xf42bd",
      "from": "0xe3fd5228ac2d2c15856959f9e27a4671c5d45958",
      "to": "0x4200000000000000000000000000000000000020",
      "contractAddress": null,
      "l1BaseFeeScalar": "0x558",
      "l1BlobBaseFee": "0x1",
      "l1BlobBaseFeeScalar": "0xc5fc5",
      "l1Fee": "0x73",
      "l1GasPrice": "0x9",
      "l1GasUsed": "0x72a"
    },
    {
      "status": "0x1",
      "cumulativeGasUsed": "0x1c441",
      "logs": [
        {
          "address": "0x78cbb3413fbb6af05ef1d21e646440e56bae3ad6",
          "topics": [
            "0x563ebecbb9df1c7112240e62907d4eb34dce7d568194f648e126e148bd9f275b",
            "0x68053e055c01ce9b3577f3162b36324bb195ebcb574c48e823480d205f06af9b",
            "0x55ac1369dac97522d062b89ffdc4e752b48fbeba86915fdb956c7c2d0501d280"
          ],
          "data": "0x",
          "blockHash": "0xc0bb5c88c9ac1c85c92075d92146eb0590b7bff0005dcb79c23a5dd078a3ebe4",
          "blockNumber": "0xab617a",
          "blockTimestamp": "0x692d4dd6",
          "transactionHash": "0x5c83df6813bcba7f26bc26bd2bccad8d70e562b785c83b009d6187eeb210621a",
          "transactionIndex": "0x1",
          "logIndex": "0x0",
          "removed": false
        }
      ],
      "logsBloom": "0x00000000000000000000000000000000000000000000000000000000000000000000000000000000000000000000400000000000000000000000000000000000000000000000000010020000000000000000000000000000000000000000000000000000000000000000000000000200000000000000000000000000000000000000000000000000000000000000000500000000000000000000000000000000004200000000000000000000000000000000000000400800000000000000000000000000000200000000000008000000000000000000000000000000000000000000000000000000000000000000000000000000000000000000000000000000",
      "type": "0x2",
      "transactionHash": "0x5c83df6813bcba7f26bc26bd2bccad8d70e562b785c83b009d6187eeb210621a",
      "transactionIndex": "0x1",
      "blockHash": "0xc0bb5c88c9ac1c85c92075d92146eb0590b7bff0005dcb79c23a5dd078a3ebe4",
      "blockNumber": "0xab617a",
      "gasUsed": "0x11031",
      "effectiveGasPrice": "0xf42bd",
      "from": "0xe3fd5228ac2d2c15856959f9e27a4671c5d45958",
      "to": "0x78cbb3413fbb6af05ef1d21e646440e56bae3ad6",
      "contractAddress": null,
      "l1BaseFeeScalar": "0x558",
      "l1BlobBaseFee": "0x1",
      "l1BlobBaseFeeScalar": "0xc5fc5",
      "l1Fee": "0x71",
      "l1GasPrice": "0x9",
      "l1GasUsed": "0x710"
    }
  ],
  "libraries": [],
  "pending": [],
  "returns": {},
  "timestamp": 1764576757886,
  "chain": 91342,
  "commit": "6d96f64"
}